{
  "_format": "hh-sol-artifact-1",
  "contractName": "Pharmacy",
  "sourceName": "contracts/Pharmacy.sol",
  "abi": [
    {
      "inputs": [],
      "stateMutability": "nonpayable",
      "type": "constructor"
    },
    {
      "anonymous": false,
      "inputs": [
        {
          "indexed": false,
          "internalType": "uint256",
          "name": "id",
          "type": "uint256"
        },
        {
          "indexed": false,
          "internalType": "string",
          "name": "name",
          "type": "string"
        },
        {
          "indexed": false,
          "internalType": "uint256",
          "name": "quantity",
          "type": "uint256"
        },
        {
          "indexed": false,
          "internalType": "address",
          "name": "currentScEntity",
          "type": "address"
        }
      ],
      "name": "ProductCreated",
      "type": "event"
    },
    {
      "anonymous": false,
      "inputs": [
        {
          "indexed": false,
          "internalType": "uint256",
          "name": "id",
          "type": "uint256"
        }
      ],
      "name": "ProductRemoved",
      "type": "event"
    },
    {
      "anonymous": false,
      "inputs": [
        {
          "indexed": false,
          "internalType": "address",
          "name": "entity_address",
          "type": "address"
        },
        {
          "indexed": false,
          "internalType": "string",
          "name": "name",
          "type": "string"
        },
        {
          "indexed": false,
          "internalType": "enum Pharmacy.EntityType",
          "name": "entity_type",
          "type": "uint8"
        }
      ],
      "name": "ScEntityCreated",
      "type": "event"
    },
    {
      "anonymous": false,
      "inputs": [
        {
          "indexed": false,
          "internalType": "address",
          "name": "entity_address",
          "type": "address"
        }
      ],
      "name": "ScEntityRemoved",
      "type": "event"
    },
    {
      "anonymous": false,
      "inputs": [
        {
          "indexed": false,
          "internalType": "uint256",
          "name": "shipment_id",
          "type": "uint256"
        },
        {
          "indexed": false,
          "internalType": "address",
          "name": "origin",
          "type": "address"
        },
        {
          "indexed": false,
          "internalType": "address",
          "name": "destination",
          "type": "address"
        },
        {
          "indexed": false,
          "internalType": "uint256",
          "name": "date_of_departure",
          "type": "uint256"
        },
        {
          "indexed": false,
          "internalType": "uint256",
          "name": "expected_date_of_arrival",
          "type": "uint256"
        },
        {
          "indexed": false,
          "internalType": "uint256",
          "name": "product_id",
          "type": "uint256"
        }
      ],
      "name": "ShipmentCreated",
      "type": "event"
    },
    {
      "anonymous": false,
      "inputs": [
        {
          "indexed": false,
          "internalType": "address",
          "name": "user_address",
          "type": "address"
        },
        {
          "indexed": false,
          "internalType": "string",
          "name": "name",
          "type": "string"
        },
        {
          "indexed": false,
          "internalType": "enum Pharmacy.Role",
          "name": "role",
          "type": "uint8"
        }
      ],
      "name": "UserCreated",
      "type": "event"
    },
    {
      "anonymous": false,
      "inputs": [
        {
          "indexed": false,
          "internalType": "address",
          "name": "user_address",
          "type": "address"
        }
      ],
      "name": "UserRemoved",
      "type": "event"
    },
    {
      "inputs": [
        {
          "internalType": "address",
          "name": "entity_address",
          "type": "address"
        },
        {
          "internalType": "string",
          "name": "name",
          "type": "string"
        },
        {
          "internalType": "enum Pharmacy.EntityType",
          "name": "entity_type",
          "type": "uint8"
        }
      ],
      "name": "create_ScEntity",
      "outputs": [],
      "stateMutability": "nonpayable",
      "type": "function"
    },
    {
      "inputs": [
        {
          "internalType": "string",
          "name": "name",
          "type": "string"
        },
        {
          "internalType": "uint256",
          "name": "quantity",
          "type": "uint256"
        },
        {
          "internalType": "address",
          "name": "currentScEntity",
          "type": "address"
        }
      ],
      "name": "create_product",
      "outputs": [],
      "stateMutability": "nonpayable",
      "type": "function"
    },
    {
      "inputs": [
        {
          "internalType": "address",
          "name": "destination",
          "type": "address"
        },
        {
          "internalType": "uint256",
          "name": "product_id",
          "type": "uint256"
        },
        {
          "internalType": "uint256",
          "name": "expected_date_of_arrival",
          "type": "uint256"
        }
      ],
      "name": "create_shipment",
      "outputs": [],
      "stateMutability": "nonpayable",
      "type": "function"
    },
    {
      "inputs": [
        {
          "internalType": "string",
          "name": "name",
          "type": "string"
        },
        {
          "internalType": "enum Pharmacy.Role",
          "name": "role",
          "type": "uint8"
        },
        {
          "internalType": "address",
          "name": "user_address",
          "type": "address"
        }
      ],
      "name": "create_user",
      "outputs": [],
      "stateMutability": "nonpayable",
      "type": "function"
    },
    {
      "inputs": [
        {
          "internalType": "address",
          "name": "",
          "type": "address"
        },
        {
          "internalType": "uint256",
          "name": "",
          "type": "uint256"
        }
      ],
      "name": "entities_products",
      "outputs": [
        {
          "internalType": "uint256",
          "name": "",
          "type": "uint256"
        }
      ],
      "stateMutability": "view",
      "type": "function"
    },
    {
      "inputs": [],
      "name": "get_ScEntities",
      "outputs": [
        {
          "components": [
            {
              "internalType": "address",
              "name": "entity_address",
              "type": "address"
            },
            {
              "internalType": "string",
              "name": "name",
              "type": "string"
            },
            {
              "internalType": "enum Pharmacy.EntityType",
              "name": "entity_type",
              "type": "uint8"
            }
          ],
          "internalType": "struct Pharmacy.ScEntity[]",
          "name": "",
          "type": "tuple[]"
        }
      ],
      "stateMutability": "view",
      "type": "function"
    },
    {
      "inputs": [
        {
          "internalType": "address",
          "name": "entity_address",
          "type": "address"
        }
      ],
      "name": "get_ScEntity",
      "outputs": [
        {
          "components": [
            {
              "internalType": "address",
              "name": "entity_address",
              "type": "address"
            },
            {
              "internalType": "string",
              "name": "name",
              "type": "string"
            },
            {
              "internalType": "enum Pharmacy.EntityType",
              "name": "entity_type",
              "type": "uint8"
            }
          ],
          "internalType": "struct Pharmacy.ScEntity",
          "name": "",
          "type": "tuple"
        }
      ],
      "stateMutability": "view",
      "type": "function"
    },
    {
      "inputs": [
        {
          "internalType": "uint256",
          "name": "id",
          "type": "uint256"
        }
      ],
      "name": "get_product",
      "outputs": [
        {
          "components": [
            {
              "internalType": "uint256",
              "name": "id",
              "type": "uint256"
            },
            {
              "internalType": "string",
              "name": "name",
              "type": "string"
            },
            {
              "internalType": "uint256",
              "name": "quantity",
              "type": "uint256"
            },
            {
              "internalType": "address",
              "name": "currentScEntity",
              "type": "address"
            }
          ],
          "internalType": "struct Pharmacy.Product",
          "name": "",
          "type": "tuple"
        }
      ],
      "stateMutability": "view",
      "type": "function"
    },
    {
      "inputs": [
        {
          "internalType": "uint256",
          "name": "id",
          "type": "uint256"
        }
      ],
      "name": "get_product_entity",
      "outputs": [
        {
          "components": [
            {
              "internalType": "address",
              "name": "entity_address",
              "type": "address"
            },
            {
              "internalType": "string",
              "name": "name",
              "type": "string"
            },
            {
              "internalType": "enum Pharmacy.EntityType",
              "name": "entity_type",
              "type": "uint8"
            }
          ],
          "internalType": "struct Pharmacy.ScEntity",
          "name": "",
          "type": "tuple"
        }
      ],
      "stateMutability": "view",
      "type": "function"
    },
    {
      "inputs": [
        {
          "internalType": "uint256",
          "name": "product_id",
          "type": "uint256"
        }
      ],
      "name": "get_product_shipments",
      "outputs": [
        {
          "components": [
            {
              "internalType": "uint256",
              "name": "shipment_id",
              "type": "uint256"
            },
            {
              "internalType": "address",
              "name": "origin",
              "type": "address"
            },
            {
              "internalType": "address",
              "name": "destination",
              "type": "address"
            },
            {
              "internalType": "uint256",
              "name": "date_of_departure",
              "type": "uint256"
            },
            {
              "internalType": "uint256",
              "name": "expected_date_of_arrival",
              "type": "uint256"
            },
            {
              "internalType": "uint256",
              "name": "product_id",
              "type": "uint256"
            }
          ],
          "internalType": "struct Pharmacy.Shipment[]",
          "name": "",
          "type": "tuple[]"
        }
      ],
      "stateMutability": "view",
      "type": "function"
    },
    {
      "inputs": [],
      "name": "get_products",
      "outputs": [
        {
          "components": [
            {
              "internalType": "uint256",
              "name": "id",
              "type": "uint256"
            },
            {
              "internalType": "string",
              "name": "name",
              "type": "string"
            },
            {
              "internalType": "uint256",
              "name": "quantity",
              "type": "uint256"
            },
            {
              "internalType": "address",
              "name": "currentScEntity",
              "type": "address"
            }
          ],
          "internalType": "struct Pharmacy.Product[]",
          "name": "",
          "type": "tuple[]"
        }
      ],
      "stateMutability": "view",
      "type": "function"
    },
    {
      "inputs": [
        {
          "internalType": "uint256",
          "name": "shipment_id",
          "type": "uint256"
        }
      ],
      "name": "get_shipment",
      "outputs": [
        {
          "components": [
            {
              "internalType": "uint256",
              "name": "shipment_id",
              "type": "uint256"
            },
            {
              "internalType": "address",
              "name": "origin",
              "type": "address"
            },
            {
              "internalType": "address",
              "name": "destination",
              "type": "address"
            },
            {
              "internalType": "uint256",
              "name": "date_of_departure",
              "type": "uint256"
            },
            {
              "internalType": "uint256",
              "name": "expected_date_of_arrival",
              "type": "uint256"
            },
            {
              "internalType": "uint256",
              "name": "product_id",
              "type": "uint256"
            }
          ],
          "internalType": "struct Pharmacy.Shipment",
          "name": "",
          "type": "tuple"
        }
      ],
      "stateMutability": "view",
      "type": "function"
    },
    {
      "inputs": [],
      "name": "get_shipments",
      "outputs": [
        {
          "components": [
            {
              "internalType": "uint256",
              "name": "shipment_id",
              "type": "uint256"
            },
            {
              "internalType": "address",
              "name": "origin",
              "type": "address"
            },
            {
              "internalType": "address",
              "name": "destination",
              "type": "address"
            },
            {
              "internalType": "uint256",
              "name": "date_of_departure",
              "type": "uint256"
            },
            {
              "internalType": "uint256",
              "name": "expected_date_of_arrival",
              "type": "uint256"
            },
            {
              "internalType": "uint256",
              "name": "product_id",
              "type": "uint256"
            }
          ],
          "internalType": "struct Pharmacy.Shipment[]",
          "name": "",
          "type": "tuple[]"
        }
      ],
      "stateMutability": "view",
      "type": "function"
    },
    {
      "inputs": [
        {
          "internalType": "uint256",
          "name": "",
          "type": "uint256"
        }
      ],
      "name": "products_index",
      "outputs": [
        {
          "internalType": "uint256",
          "name": "",
          "type": "uint256"
        }
      ],
      "stateMutability": "view",
      "type": "function"
    },
    {
      "inputs": [
        {
          "internalType": "uint256",
          "name": "",
          "type": "uint256"
        }
      ],
      "name": "products_list",
      "outputs": [
        {
          "internalType": "uint256",
          "name": "id",
          "type": "uint256"
        },
        {
          "internalType": "string",
          "name": "name",
          "type": "string"
        },
        {
          "internalType": "uint256",
          "name": "quantity",
          "type": "uint256"
        },
        {
          "internalType": "address",
          "name": "currentScEntity",
          "type": "address"
        }
      ],
      "stateMutability": "view",
      "type": "function"
    },
    {
      "inputs": [
        {
          "internalType": "uint256",
          "name": "",
          "type": "uint256"
        },
        {
          "internalType": "uint256",
          "name": "",
          "type": "uint256"
        }
      ],
      "name": "products_shipments",
      "outputs": [
        {
          "internalType": "uint256",
          "name": "",
          "type": "uint256"
        }
      ],
      "stateMutability": "view",
      "type": "function"
    },
    {
      "inputs": [
        {
          "internalType": "address",
          "name": "entity_address",
          "type": "address"
        }
      ],
      "name": "remove_ScEntity",
      "outputs": [],
      "stateMutability": "nonpayable",
      "type": "function"
    },
    {
      "inputs": [
        {
          "internalType": "uint256",
          "name": "id",
          "type": "uint256"
        }
      ],
      "name": "remove_product",
      "outputs": [],
      "stateMutability": "nonpayable",
      "type": "function"
    },
    {
      "inputs": [
        {
          "internalType": "address",
          "name": "user_address",
          "type": "address"
        }
      ],
      "name": "remove_user",
      "outputs": [],
      "stateMutability": "nonpayable",
      "type": "function"
    },
    {
      "inputs": [
        {
          "internalType": "address",
          "name": "",
          "type": "address"
        }
      ],
      "name": "scEntities_index",
      "outputs": [
        {
          "internalType": "uint256",
          "name": "",
          "type": "uint256"
        }
      ],
      "stateMutability": "view",
      "type": "function"
    },
    {
      "inputs": [
        {
          "internalType": "uint256",
          "name": "",
          "type": "uint256"
        }
      ],
      "name": "scEntities_list",
      "outputs": [
        {
          "internalType": "address",
          "name": "entity_address",
          "type": "address"
        },
        {
          "internalType": "string",
          "name": "name",
          "type": "string"
        },
        {
          "internalType": "enum Pharmacy.EntityType",
          "name": "entity_type",
          "type": "uint8"
        }
      ],
      "stateMutability": "view",
      "type": "function"
    },
    {
      "inputs": [
        {
          "internalType": "uint256",
          "name": "shipment_id",
          "type": "uint256"
        }
      ],
      "name": "set_expected_date_of_arrival",
      "outputs": [],
      "stateMutability": "nonpayable",
      "type": "function"
    },
    {
      "inputs": [
        {
          "internalType": "uint256",
          "name": "",
          "type": "uint256"
        }
      ],
      "name": "shipments_list",
      "outputs": [
        {
          "internalType": "uint256",
          "name": "shipment_id",
          "type": "uint256"
        },
        {
          "internalType": "address",
          "name": "origin",
          "type": "address"
        },
        {
          "internalType": "address",
          "name": "destination",
          "type": "address"
        },
        {
          "internalType": "uint256",
          "name": "date_of_departure",
          "type": "uint256"
        },
        {
          "internalType": "uint256",
          "name": "expected_date_of_arrival",
          "type": "uint256"
        },
        {
          "internalType": "uint256",
          "name": "product_id",
          "type": "uint256"
        }
      ],
      "stateMutability": "view",
      "type": "function"
    },
    {
      "inputs": [
        {
          "internalType": "address",
          "name": "",
          "type": "address"
        }
      ],
      "name": "users",
      "outputs": [
        {
          "internalType": "address",
          "name": "user_address",
          "type": "address"
        },
        {
          "internalType": "string",
          "name": "name",
          "type": "string"
        },
        {
          "internalType": "enum Pharmacy.Role",
          "name": "role",
          "type": "uint8"
        }
      ],
      "stateMutability": "view",
      "type": "function"
    },
    {
      "inputs": [
        {
          "internalType": "address",
          "name": "user_address",
          "type": "address"
        }
      ],
      "name": "view_user",
      "outputs": [
        {
          "components": [
            {
              "internalType": "address",
              "name": "user_address",
              "type": "address"
            },
            {
              "internalType": "string",
              "name": "name",
              "type": "string"
            },
            {
              "internalType": "enum Pharmacy.Role",
              "name": "role",
              "type": "uint8"
            }
          ],
          "internalType": "struct Pharmacy.User",
          "name": "",
          "type": "tuple"
        }
      ],
      "stateMutability": "view",
      "type": "function"
    }
  ],
  "bytecode": "0x608060405260016005553480156200001657600080fd5b50600060405180606001604052803373ffffffffffffffffffffffffffffffffffffffff1681526020016040518060400160405280600581526020017f41646d696e00000000000000000000000000000000000000000000000000000081525081526020016000600381111562000092576200009162000172565b5b8152509050806000803373ffffffffffffffffffffffffffffffffffffffff1673ffffffffffffffffffffffffffffffffffffffff16815260200190815260200160002060008201518160000160006101000a81548173ffffffffffffffffffffffffffffffffffffffff021916908373ffffffffffffffffffffffffffffffffffffffff16021790555060208201518160010190816200013491906200041b565b5060408201518160020160006101000a81548160ff0219169083600381111562000163576200016262000172565b5b02179055509050505062000502565b7f4e487b7100000000000000000000000000000000000000000000000000000000600052602160045260246000fd5b600081519050919050565b7f4e487b7100000000000000000000000000000000000000000000000000000000600052604160045260246000fd5b7f4e487b7100000000000000000000000000000000000000000000000000000000600052602260045260246000fd5b600060028204905060018216806200022357607f821691505b602082108103620002395762000238620001db565b5b50919050565b60008190508160005260206000209050919050565b60006020601f8301049050919050565b600082821b905092915050565b600060088302620002a37fffffffffffffffffffffffffffffffffffffffffffffffffffffffffffffffff8262000264565b620002af868362000264565b95508019841693508086168417925050509392505050565b6000819050919050565b6000819050919050565b6000620002fc620002f6620002f084620002c7565b620002d1565b620002c7565b9050919050565b6000819050919050565b6200031883620002db565b62000330620003278262000303565b84845462000271565b825550505050565b600090565b6200034762000338565b620003548184846200030d565b505050565b5b818110156200037c57620003706000826200033d565b6001810190506200035a565b5050565b601f821115620003cb5762000395816200023f565b620003a08462000254565b81016020851015620003b0578190505b620003c8620003bf8562000254565b83018262000359565b50505b505050565b600082821c905092915050565b6000620003f060001984600802620003d0565b1980831691505092915050565b60006200040b8383620003dd565b9150826002028217905092915050565b6200042682620001a1565b67ffffffffffffffff811115620004425762000441620001ac565b5b6200044e82546200020a565b6200045b82828562000380565b600060209050601f8311600181146200049357600084156200047e578287015190505b6200048a8582620003fd565b865550620004fa565b601f198416620004a3866200023f565b60005b82811015620004cd57848901518255600182019150602085019450602081019050620004a6565b86831015620004ed5784890151620004e9601f891682620003dd565b8355505b6001600288020188555050505b505050505050565b61590480620005126000396000f3fe608060405234801561001057600080fd5b50600436106101725760003560e01c8063a87430ba116100de578063cb40f9d511610097578063efccd4aa11610071578063efccd4aa146104ac578063f7aed773146104ca578063f80e6fe1146104fd578063faecc2461461052d57610172565b8063cb40f9d514610444578063de63918a14610460578063eb54eb051461047c57610172565b8063a87430ba14610369578063b07048d91461039b578063b08806a2146103b7578063b7bdecc9146103ec578063c041fa2714610408578063c17644a81461042657610172565b80632fca0bf7116101305780632fca0bf71461025d5780633490228f1461028d5780636f11432d146102a9578063777138bb146102d95780637bc195bf14610309578063871bb6951461033957610172565b8062709d39146101775780630e326221146101a957806316248fd1146101c55780632120a03b146101f557806323033fe01461021157806326b6be7114610241575b600080fd5b610191600480360381019061018c9190614015565b61055d565b6040516101a09392919061418a565b60405180910390f35b6101c360048036038101906101be9190614015565b61064c565b005b6101df60048036038101906101da91906141c8565b6108d4565b6040516101ec9190614217565b60405180910390f35b61020f600480360381019061020a919061425e565b610905565b005b61022b6004803603810190610226919061425e565b610d6a565b6040516102389190614343565b60405180910390f35b61025b60048036038101906102569190614015565b610fd1565b005b61027760048036038101906102729190614015565b610ffe565b6040516102849190614217565b60405180910390f35b6102a760048036038101906102a2919061449a565b611016565b005b6102c360048036038101906102be9190614015565b611385565b6040516102d0919061457b565b60405180910390f35b6102f360048036038101906102ee9190614015565b611557565b6040516103009190614343565b60405180910390f35b610323600480360381019061031e9190614015565b61164e565b60405161033091906146c7565b60405180910390f35b610353600480360381019061034e919061425e565b611e61565b6040516103609190614781565b60405180910390f35b610383600480360381019061037e919061425e565b6120e9565b604051610392939291906147b2565b60405180910390f35b6103b560048036038101906103b0919061425e565b6121c8565b005b6103d160048036038101906103cc9190614015565b612482565b6040516103e3969594939291906147f0565b60405180910390f35b61040660048036038101906104019190614876565b61250e565b005b6104106128ab565b60405161041d91906146c7565b60405180910390f35b61042e6129de565b60405161043b9190614a0a565b60405180910390f35b61045e60048036038101906104599190614a2c565b612ee5565b005b61047a60048036038101906104759190614aa4565b613669565b005b6104966004803603810190610491919061425e565b61390b565b6040516104a39190614217565b60405180910390f35b6104b4613923565b6040516104c19190614c25565b60405180910390f35b6104e460048036038101906104df9190614015565b613ae3565b6040516104f49493929190614c47565b60405180910390f35b61051760048036038101906105129190614c93565b613bcb565b6040516105249190614217565b60405180910390f35b61054760048036038101906105429190614015565b613bfc565b6040516105549190614d4e565b60405180910390f35b6008818154811061056d57600080fd5b90600052602060002090600302016000915090508060000160009054906101000a900473ffffffffffffffffffffffffffffffffffffffff16908060010180546105b690614d98565b80601f01602080910402602001604051908101604052809291908181526020018280546105e290614d98565b801561062f5780601f106106045761010080835404028352916020019161062f565b820191906000526020600020905b81548152906001019060200180831161061257829003601f168201915b5050505050908060020160009054906101000a900460ff16905083565b6000600260008381526020019081526020016000205414158061069457508060066000815481106106805761067f614dc9565b5b906000526020600020906004020160000154145b6106d3576040517f08c379a00000000000000000000000000000000000000000000000000000000081526004016106ca90614e44565b60405180910390fd5b600060026000838152602001908152602001600020549050600660016006805490506106ff9190614e93565b815481106107105761070f614dc9565b5b90600052602060002090600402016006828154811061073257610731614dc9565b5b9060005260206000209060040201600082015481600001556001820181600101908161075e9190615089565b50600282015481600201556003820160009054906101000a900473ffffffffffffffffffffffffffffffffffffffff168160030160006101000a81548173ffffffffffffffffffffffffffffffffffffffff021916908373ffffffffffffffffffffffffffffffffffffffff1602179055509050508060026000600684815481106107ec576107eb614dc9565b5b9060005260206000209060040201600001548152602001908152602001600020819055506002600083815260200190815260200160002060009055600680548061083957610838615171565b5b60019003818190600052602060002090600402016000808201600090556001820160006108669190613e32565b60028201600090556003820160006101000a81549073ffffffffffffffffffffffffffffffffffffffff0219169055505090557f07015631cff457b5b13492c2045e70c6305a0a4aa773e432e79abbe2cf52c1eb826040516108c89190614217565b60405180910390a15050565b600460205281600052604060002081815481106108f057600080fd5b90600052602060002001600091509150505481565b600080600381111561091a57610919614113565b5b6000803373ffffffffffffffffffffffffffffffffffffffff1673ffffffffffffffffffffffffffffffffffffffff16815260200190815260200160002060020160009054906101000a900460ff16600381111561097b5761097a614113565b5b146109bb576040517f08c379a00000000000000000000000000000000000000000000000000000000081526004016109b2906151ec565b60405180910390fd5b6000600160008473ffffffffffffffffffffffffffffffffffffffff1673ffffffffffffffffffffffffffffffffffffffff16815260200190815260200160002054905060088054905081108015610a8357508273ffffffffffffffffffffffffffffffffffffffff1660088281548110610a3957610a38614dc9565b5b906000526020600020906003020160000160009054906101000a900473ffffffffffffffffffffffffffffffffffffffff1673ffffffffffffffffffffffffffffffffffffffff16145b610ac2576040517f08c379a0000000000000000000000000000000000000000000000000000000008152600401610ab990615258565b60405180910390fd5b6001600880549050610ad49190614e93565b8114610c755760086001600880549050610aee9190614e93565b81548110610aff57610afe614dc9565b5b906000526020600020906003020160088281548110610b2157610b20614dc9565b5b90600052602060002090600302016000820160009054906101000a900473ffffffffffffffffffffffffffffffffffffffff168160000160006101000a81548173ffffffffffffffffffffffffffffffffffffffff021916908373ffffffffffffffffffffffffffffffffffffffff16021790555060018201816001019081610baa9190615089565b506002820160009054906101000a900460ff168160020160006101000a81548160ff02191690836005811115610be357610be2614113565b5b0217905550905050806001600060088481548110610c0457610c03614dc9565b5b906000526020600020906003020160000160009054906101000a900473ffffffffffffffffffffffffffffffffffffffff1673ffffffffffffffffffffffffffffffffffffffff1673ffffffffffffffffffffffffffffffffffffffff168152602001908152602001600020819055505b6008805480610c8757610c86615171565b5b6001900381819060005260206000209060030201600080820160006101000a81549073ffffffffffffffffffffffffffffffffffffffff0219169055600182016000610cd39190613e32565b6002820160006101000a81549060ff021916905550509055600160008473ffffffffffffffffffffffffffffffffffffffff1673ffffffffffffffffffffffffffffffffffffffff168152602001908152602001600020600090557f5d3e2f6091ad4a3a365ae9a6a381688e8e80b4ebb902a5217c76ca91fdff95af83604051610d5d9190615278565b60405180910390a1505050565b610d72613e72565b6000600160008473ffffffffffffffffffffffffffffffffffffffff1673ffffffffffffffffffffffffffffffffffffffff16815260200190815260200160002054905060088054905081108015610e3a57508273ffffffffffffffffffffffffffffffffffffffff1660088281548110610df057610def614dc9565b5b906000526020600020906003020160000160009054906101000a900473ffffffffffffffffffffffffffffffffffffffff1673ffffffffffffffffffffffffffffffffffffffff16145b610e79576040517f08c379a0000000000000000000000000000000000000000000000000000000008152600401610e7090615258565b60405180910390fd5b60088181548110610e8d57610e8c614dc9565b5b90600052602060002090600302016040518060600160405290816000820160009054906101000a900473ffffffffffffffffffffffffffffffffffffffff1673ffffffffffffffffffffffffffffffffffffffff1673ffffffffffffffffffffffffffffffffffffffff168152602001600182018054610f0c90614d98565b80601f0160208091040260200160405190810160405280929190818152602001828054610f3890614d98565b8015610f855780601f10610f5a57610100808354040283529160200191610f85565b820191906000526020600020905b815481529060010190602001808311610f6857829003601f168201915b505050505081526020016002820160009054906101000a900460ff166005811115610fb357610fb2614113565b5b6005811115610fc557610fc4614113565b5b81525050915050919050565b4260078281548110610fe657610fe5614dc9565b5b90600052602060002090600602016004018190555050565b60026020528060005260406000206000915090505481565b6000600160008373ffffffffffffffffffffffffffffffffffffffff1673ffffffffffffffffffffffffffffffffffffffff168152602001908152602001600020549050600880549050811080156110de57508173ffffffffffffffffffffffffffffffffffffffff166008828154811061109457611093614dc9565b5b906000526020600020906003020160000160009054906101000a900473ffffffffffffffffffffffffffffffffffffffff1673ffffffffffffffffffffffffffffffffffffffff16145b61111d576040517f08c379a000000000000000000000000000000000000000000000000000000000815260040161111490615305565b60405180910390fd5b6000600581111561113157611130614113565b5b6008828154811061114557611144614dc9565b5b906000526020600020906003020160020160009054906101000a900460ff16600581111561117657611175614113565b5b146111b6576040517f08c379a00000000000000000000000000000000000000000000000000000000081526004016111ad90615397565b60405180910390fd5b60006040518060800160405280600560008154809291906111d6906153b7565b9190505581526020018681526020018581526020018473ffffffffffffffffffffffffffffffffffffffff168152509050600680549050600260008360000151815260200190815260200160002081905550600681908060018154018082558091505060019003906000526020600020906004020160009091909190915060008201518160000155602082015181600101908161127391906153ff565b506040820151816002015560608201518160030160006101000a81548173ffffffffffffffffffffffffffffffffffffffff021916908373ffffffffffffffffffffffffffffffffffffffff1602179055505050600360008473ffffffffffffffffffffffffffffffffffffffff1673ffffffffffffffffffffffffffffffffffffffff168152602001908152602001600020816000015190806001815401808255809150506001900390600052602060002001600090919091909150557f2e87df3c8f53fb06266ed52023929f5fab9f24130224ef6538b665d9cac8253081600001518260200151836040015184606001516040516113769493929190614c47565b60405180910390a15050505050565b61138d613ebb565b600060026000848152602001908152602001600020541415806113d557508160066000815481106113c1576113c0614dc9565b5b906000526020600020906004020160000154145b611414576040517f08c379a000000000000000000000000000000000000000000000000000000000815260040161140b90614e44565b60405180910390fd5b600660026000848152602001908152602001600020548154811061143b5761143a614dc9565b5b90600052602060002090600402016040518060800160405290816000820154815260200160018201805461146e90614d98565b80601f016020809104026020016040519081016040528092919081815260200182805461149a90614d98565b80156114e75780601f106114bc576101008083540402835291602001916114e7565b820191906000526020600020905b8154815290600101906020018083116114ca57829003601f168201915b50505050508152602001600282015481526020016003820160009054906101000a900473ffffffffffffffffffffffffffffffffffffffff1673ffffffffffffffffffffffffffffffffffffffff1673ffffffffffffffffffffffffffffffffffffffff16815250509050919050565b61155f613e72565b600060026000848152602001908152602001600020541415806115a7575081600660008154811061159357611592614dc9565b5b906000526020600020906004020160000154145b6115e6576040517f08c379a00000000000000000000000000000000000000000000000000000000081526004016115dd90614e44565b60405180910390fd5b61164760066002600085815260200190815260200160002054815481106116105761160f614dc9565b5b906000526020600020906004020160030160009054906101000a900473ffffffffffffffffffffffffffffffffffffffff16610d6a565b9050919050565b606060006002600084815260200190815260200160002054141580611698575081600660008154811061168457611683614dc9565b5b906000526020600020906004020160000154145b6116d7576040517f08c379a00000000000000000000000000000000000000000000000000000000081526004016116ce90614e44565b60405180910390fd5b60008060003373ffffffffffffffffffffffffffffffffffffffff1673ffffffffffffffffffffffffffffffffffffffff1681526020019081526020016000206040518060600160405290816000820160009054906101000a900473ffffffffffffffffffffffffffffffffffffffff1673ffffffffffffffffffffffffffffffffffffffff1673ffffffffffffffffffffffffffffffffffffffff16815260200160018201805461178890614d98565b80601f01602080910402602001604051908101604052809291908181526020018280546117b490614d98565b80156118015780601f106117d657610100808354040283529160200191611801565b820191906000526020600020905b8154815290600101906020018083116117e457829003601f168201915b505050505081526020016002820160009054906101000a900460ff16600381111561182f5761182e614113565b5b600381111561184157611840614113565b5b8152505090503373ffffffffffffffffffffffffffffffffffffffff16816000015173ffffffffffffffffffffffffffffffffffffffff16146118b9576040517f08c379a00000000000000000000000000000000000000000000000000000000081526004016118b0906151ec565b60405180910390fd5b60006004600085815260200190815260200160002080548060200260200160405190810160405280929190818152602001828054801561191857602002820191906000526020600020905b815481526020019060010190808311611904575b505050505090506001600381111561193357611932614113565b5b8260400151600381111561194a57611949614113565b5b148061197e57506002600381111561196557611964614113565b5b8260400151600381111561197c5761197b614113565b5b145b15611ca957600080600360003373ffffffffffffffffffffffffffffffffffffffff1673ffffffffffffffffffffffffffffffffffffffff168152602001908152602001600020805480602002602001604051908101604052809291908181526020018280548015611a0f57602002820191906000526020600020905b8154815260200190600101908083116119fb575b5050505050905060005b8151811015611a595786828281518110611a3657611a35614dc9565b5b602002602001015103611a4c5760019250611a59565b8080600101915050611a19565b5081611a9a576040517f08c379a0000000000000000000000000000000000000000000000000000000008152600401611a9190615543565b60405180910390fd5b600060016003811115611ab057611aaf614113565b5b85604001516003811115611ac757611ac6614113565b5b14611ad3576003611ad6565b60025b60ff169050600081855110611aeb5781611aee565b84515b905060008167ffffffffffffffff811115611b0c57611b0b61436f565b5b604051908082528060200260200182016040528015611b4557816020015b611b32613ef9565b815260200190600190039081611b2a5790505b50905060005b82811015611c99576007878281518110611b6857611b67614dc9565b5b602002602001015181548110611b8157611b80614dc9565b5b90600052602060002090600602016040518060c0016040529081600082015481526020016001820160009054906101000a900473ffffffffffffffffffffffffffffffffffffffff1673ffffffffffffffffffffffffffffffffffffffff1673ffffffffffffffffffffffffffffffffffffffff1681526020016002820160009054906101000a900473ffffffffffffffffffffffffffffffffffffffff1673ffffffffffffffffffffffffffffffffffffffff1673ffffffffffffffffffffffffffffffffffffffff1681526020016003820154815260200160048201548152602001600582015481525050828281518110611c8157611c80614dc9565b5b60200260200101819052508080600101915050611b4b565b5080975050505050505050611e5c565b6000815167ffffffffffffffff811115611cc657611cc561436f565b5b604051908082528060200260200182016040528015611cff57816020015b611cec613ef9565b815260200190600190039081611ce45790505b50905060005b8251811015611e54576007838281518110611d2357611d22614dc9565b5b602002602001015181548110611d3c57611d3b614dc9565b5b90600052602060002090600602016040518060c0016040529081600082015481526020016001820160009054906101000a900473ffffffffffffffffffffffffffffffffffffffff1673ffffffffffffffffffffffffffffffffffffffff1673ffffffffffffffffffffffffffffffffffffffff1681526020016002820160009054906101000a900473ffffffffffffffffffffffffffffffffffffffff1673ffffffffffffffffffffffffffffffffffffffff1673ffffffffffffffffffffffffffffffffffffffff1681526020016003820154815260200160048201548152602001600582015481525050828281518110611e3c57611e3b614dc9565b5b60200260200101819052508080600101915050611d05565b508093505050505b919050565b611e69613f5b565b611ea76040518060400160405280601781526020017f766965775f757365722069732072756e6e696e672e2e2e000000000000000000815250613d53565b8173ffffffffffffffffffffffffffffffffffffffff166000808473ffffffffffffffffffffffffffffffffffffffff1673ffffffffffffffffffffffffffffffffffffffff16815260200190815260200160002060000160009054906101000a900473ffffffffffffffffffffffffffffffffffffffff1673ffffffffffffffffffffffffffffffffffffffff1614611f76576040517f08c379a0000000000000000000000000000000000000000000000000000000008152600401611f6d906155af565b60405180910390fd5b6000808373ffffffffffffffffffffffffffffffffffffffff1673ffffffffffffffffffffffffffffffffffffffff1681526020019081526020016000206040518060600160405290816000820160009054906101000a900473ffffffffffffffffffffffffffffffffffffffff1673ffffffffffffffffffffffffffffffffffffffff1673ffffffffffffffffffffffffffffffffffffffff16815260200160018201805461202590614d98565b80601f016020809104026020016040519081016040528092919081815260200182805461205190614d98565b801561209e5780601f106120735761010080835404028352916020019161209e565b820191906000526020600020905b81548152906001019060200180831161208157829003601f168201915b505050505081526020016002820160009054906101000a900460ff1660038111156120cc576120cb614113565b5b60038111156120de576120dd614113565b5b815250509050919050565b60006020528060005260406000206000915090508060000160009054906101000a900473ffffffffffffffffffffffffffffffffffffffff169080600101805461213290614d98565b80601f016020809104026020016040519081016040528092919081815260200182805461215e90614d98565b80156121ab5780601f10612180576101008083540402835291602001916121ab565b820191906000526020600020905b81548152906001019060200180831161218e57829003601f168201915b5050505050908060020160009054906101000a900460ff16905083565b60008060038111156121dd576121dc614113565b5b6000803373ffffffffffffffffffffffffffffffffffffffff1673ffffffffffffffffffffffffffffffffffffffff16815260200190815260200160002060020160009054906101000a900460ff16600381111561223e5761223d614113565b5b1461227e576040517f08c379a0000000000000000000000000000000000000000000000000000000008152600401612275906151ec565b60405180910390fd5b8173ffffffffffffffffffffffffffffffffffffffff166000808473ffffffffffffffffffffffffffffffffffffffff1673ffffffffffffffffffffffffffffffffffffffff16815260200190815260200160002060000160009054906101000a900473ffffffffffffffffffffffffffffffffffffffff1673ffffffffffffffffffffffffffffffffffffffff161461234d576040517f08c379a0000000000000000000000000000000000000000000000000000000008152600401612344906155af565b60405180910390fd5b8173ffffffffffffffffffffffffffffffffffffffff163373ffffffffffffffffffffffffffffffffffffffff16036123bb576040517f08c379a00000000000000000000000000000000000000000000000000000000081526004016123b29061561b565b60405180910390fd5b6000808373ffffffffffffffffffffffffffffffffffffffff1673ffffffffffffffffffffffffffffffffffffffff168152602001908152602001600020600080820160006101000a81549073ffffffffffffffffffffffffffffffffffffffff02191690556001820160006124319190613e32565b6002820160006101000a81549060ff021916905550507fe9dce8c992623ce791725b21e857e33248d1f190a25b5168313420eebdaae99d826040516124769190615278565b60405180910390a15050565b6007818154811061249257600080fd5b90600052602060002090600602016000915090508060000154908060010160009054906101000a900473ffffffffffffffffffffffffffffffffffffffff16908060020160009054906101000a900473ffffffffffffffffffffffffffffffffffffffff16908060030154908060040154908060050154905086565b600080600381111561252357612522614113565b5b6000803373ffffffffffffffffffffffffffffffffffffffff1673ffffffffffffffffffffffffffffffffffffffff16815260200190815260200160002060020160009054906101000a900460ff16600381111561258457612583614113565b5b146125c4576040517f08c379a00000000000000000000000000000000000000000000000000000000081526004016125bb906151ec565b60405180910390fd5b6000600160008673ffffffffffffffffffffffffffffffffffffffff1673ffffffffffffffffffffffffffffffffffffffff168152602001908152602001600020541480156126d35750600060088054905014806126d257508373ffffffffffffffffffffffffffffffffffffffff166008600160008773ffffffffffffffffffffffffffffffffffffffff1673ffffffffffffffffffffffffffffffffffffffff168152602001908152602001600020548154811061268757612686614dc9565b5b906000526020600020906003020160000160009054906101000a900473ffffffffffffffffffffffffffffffffffffffff1673ffffffffffffffffffffffffffffffffffffffff1614155b5b612712576040517f08c379a000000000000000000000000000000000000000000000000000000000815260040161270990615687565b60405180910390fd5b600060405180606001604052808673ffffffffffffffffffffffffffffffffffffffff16815260200185815260200184600581111561275457612753614113565b5b8152509050600880549050600160008773ffffffffffffffffffffffffffffffffffffffff1673ffffffffffffffffffffffffffffffffffffffff16815260200190815260200160002081905550600881908060018154018082558091505060019003906000526020600020906003020160009091909190915060008201518160000160006101000a81548173ffffffffffffffffffffffffffffffffffffffff021916908373ffffffffffffffffffffffffffffffffffffffff160217905550602082015181600101908161282a91906153ff565b5060408201518160020160006101000a81548160ff0219169083600581111561285657612855614113565b5b021790555050507f5e1452cfc728689895f5ea99ed4bb90292b01d5fd117e480c94cddb4e1f5d5ef81600001518260200151836040015160405161289c9392919061418a565b60405180910390a15050505050565b60606007805480602002602001604051908101604052809291908181526020016000905b828210156129d557838290600052602060002090600602016040518060c0016040529081600082015481526020016001820160009054906101000a900473ffffffffffffffffffffffffffffffffffffffff1673ffffffffffffffffffffffffffffffffffffffff1673ffffffffffffffffffffffffffffffffffffffff1681526020016002820160009054906101000a900473ffffffffffffffffffffffffffffffffffffffff1673ffffffffffffffffffffffffffffffffffffffff1673ffffffffffffffffffffffffffffffffffffffff1681526020016003820154815260200160048201548152602001600582015481525050815260200190600101906128cf565b50505050905090565b6060600160038111156129f4576129f3614113565b5b6000803373ffffffffffffffffffffffffffffffffffffffff1673ffffffffffffffffffffffffffffffffffffffff16815260200190815260200160002060020160009054906101000a900460ff166003811115612a5557612a54614113565b5b1480612ad3575060026003811115612a7057612a6f614113565b5b6000803373ffffffffffffffffffffffffffffffffffffffff1673ffffffffffffffffffffffffffffffffffffffff16815260200190815260200160002060020160009054906101000a900460ff166003811115612ad157612ad0614113565b5b145b15612d8b576000600360003373ffffffffffffffffffffffffffffffffffffffff1673ffffffffffffffffffffffffffffffffffffffff1681526020019081526020016000208054905067ffffffffffffffff811115612b3657612b3561436f565b5b604051908082528060200260200182016040528015612b6f57816020015b612b5c613ebb565b815260200190600190039081612b545790505b50905060005b600360003373ffffffffffffffffffffffffffffffffffffffff1673ffffffffffffffffffffffffffffffffffffffff16815260200190815260200160002080549050811015612d8157600660026000600360003373ffffffffffffffffffffffffffffffffffffffff1673ffffffffffffffffffffffffffffffffffffffff1681526020019081526020016000208481548110612c1657612c15614dc9565b5b906000526020600020015481526020019081526020016000205481548110612c4157612c40614dc9565b5b906000526020600020906004020160405180608001604052908160008201548152602001600182018054612c7490614d98565b80601f0160208091040260200160405190810160405280929190818152602001828054612ca090614d98565b8015612ced5780601f10612cc257610100808354040283529160200191612ced565b820191906000526020600020905b815481529060010190602001808311612cd057829003601f168201915b50505050508152602001600282015481526020016003820160009054906101000a900473ffffffffffffffffffffffffffffffffffffffff1673ffffffffffffffffffffffffffffffffffffffff1673ffffffffffffffffffffffffffffffffffffffff1681525050828281518110612d6957612d68614dc9565b5b60200260200101819052508080600101915050612b75565b5080915050612ee2565b6006805480602002602001604051908101604052809291908181526020016000905b82821015612edb578382906000526020600020906004020160405180608001604052908160008201548152602001600182018054612dea90614d98565b80601f0160208091040260200160405190810160405280929190818152602001828054612e1690614d98565b8015612e635780601f10612e3857610100808354040283529160200191612e63565b820191906000526020600020905b815481529060010190602001808311612e4657829003601f168201915b50505050508152602001600282015481526020016003820160009054906101000a900473ffffffffffffffffffffffffffffffffffffffff1673ffffffffffffffffffffffffffffffffffffffff1673ffffffffffffffffffffffffffffffffffffffff168152505081526020019060010190612dad565b5050505090505b90565b804210612f27576040517f08c379a0000000000000000000000000000000000000000000000000000000008152600401612f1e90615719565b60405180910390fd5b600060026000848152602001908152602001600020549050600081141580612f745750826006600081548110612f6057612f5f614dc9565b5b906000526020600020906004020160000154145b612fb3576040517f08c379a0000000000000000000000000000000000000000000000000000000008152600401612faa90614e44565b60405180910390fd5b6000600160008673ffffffffffffffffffffffffffffffffffffffff1673ffffffffffffffffffffffffffffffffffffffff1681526020019081526020016000205490506008805490508110801561307b57508473ffffffffffffffffffffffffffffffffffffffff166008828154811061303157613030614dc9565b5b906000526020600020906003020160000160009054906101000a900473ffffffffffffffffffffffffffffffffffffffff1673ffffffffffffffffffffffffffffffffffffffff16145b6130ba576040517f08c379a00000000000000000000000000000000000000000000000000000000081526004016130b190615258565b60405180910390fd5b6000600683815481106130d0576130cf614dc9565b5b90600052602060002090600402016040518060800160405290816000820154815260200160018201805461310390614d98565b80601f016020809104026020016040519081016040528092919081815260200182805461312f90614d98565b801561317c5780601f106131515761010080835404028352916020019161317c565b820191906000526020600020905b81548152906001019060200180831161315f57829003601f168201915b50505050508152602001600282015481526020016003820160009054906101000a900473ffffffffffffffffffffffffffffffffffffffff1673ffffffffffffffffffffffffffffffffffffffff1673ffffffffffffffffffffffffffffffffffffffff16815250509050600060016000836060015173ffffffffffffffffffffffffffffffffffffffff1673ffffffffffffffffffffffffffffffffffffffff16815260200190815260200160002054905060006008848154811061324557613244614dc9565b5b906000526020600020906003020160020160009054906101000a900460ff16600581111561327657613275614113565b5b118015613316575060016008848154811061329457613293614dc9565b5b906000526020600020906003020160020160009054906101000a900460ff1660058111156132c5576132c4614113565b5b6132cf9190614e93565b600882815481106132e3576132e2614dc9565b5b906000526020600020906003020160020160009054906101000a900460ff16600581111561331457613313614113565b5b145b613355576040517f08c379a000000000000000000000000000000000000000000000000000000000815260040161334c90615785565b60405180910390fd5b60006040518060c001604052806007805490508152602001846060015173ffffffffffffffffffffffffffffffffffffffff1681526020018973ffffffffffffffffffffffffffffffffffffffff16815260200142815260200187815260200188815250905060046000888152602001908152602001600020816000015190806001815401808255809150506001900390600052602060002001600090919091909150556003600581111561340d5761340c614113565b5b6008858154811061342157613420614dc9565b5b906000526020600020906003020160020160009054906101000a900460ff16600581111561345257613451614113565b5b036134be57600360008973ffffffffffffffffffffffffffffffffffffffff1673ffffffffffffffffffffffffffffffffffffffff1681526020019081526020016000208790806001815401808255809150506001900390600052602060002001600090919091909150555b87600686815481106134d3576134d2614dc9565b5b906000526020600020906004020160030160006101000a81548173ffffffffffffffffffffffffffffffffffffffff021916908373ffffffffffffffffffffffffffffffffffffffff16021790555060078190806001815401808255809150506001900390600052602060002090600602016000909190919091506000820151816000015560208201518160010160006101000a81548173ffffffffffffffffffffffffffffffffffffffff021916908373ffffffffffffffffffffffffffffffffffffffff16021790555060408201518160020160006101000a81548173ffffffffffffffffffffffffffffffffffffffff021916908373ffffffffffffffffffffffffffffffffffffffff160217905550606082015181600301556080820151816004015560a0820151816005015550507f876644f605c09f137e642a100ea79c3ff90507acc401482bbca37fd22ba292cc816000015182602001518360400151846060015185608001518660a00151604051613657969594939291906147f0565b60405180910390a15050505050505050565b600080600381111561367e5761367d614113565b5b6000803373ffffffffffffffffffffffffffffffffffffffff1673ffffffffffffffffffffffffffffffffffffffff16815260200190815260200160002060020160009054906101000a900460ff1660038111156136df576136de614113565b5b1461371f576040517f08c379a0000000000000000000000000000000000000000000000000000000008152600401613716906151ec565b60405180910390fd5b8173ffffffffffffffffffffffffffffffffffffffff166000808473ffffffffffffffffffffffffffffffffffffffff1673ffffffffffffffffffffffffffffffffffffffff16815260200190815260200160002060000160009054906101000a900473ffffffffffffffffffffffffffffffffffffffff1673ffffffffffffffffffffffffffffffffffffffff16036137ee576040517f08c379a00000000000000000000000000000000000000000000000000000000081526004016137e5906157f1565b60405180910390fd5b600060405180606001604052808473ffffffffffffffffffffffffffffffffffffffff1681526020018681526020018560038111156138305761382f614113565b5b8152509050806000808573ffffffffffffffffffffffffffffffffffffffff1673ffffffffffffffffffffffffffffffffffffffff16815260200190815260200160002060008201518160000160006101000a81548173ffffffffffffffffffffffffffffffffffffffff021916908373ffffffffffffffffffffffffffffffffffffffff16021790555060208201518160010190816138d091906153ff565b5060408201518160020160006101000a81548160ff021916908360038111156138fc576138fb614113565b5b02179055509050505050505050565b60016020528060005260406000206000915090505481565b60606139636040518060400160405280601981526020017f63616c6c696e67206765745f5363456e7469746965732e2e2e00000000000000815250613d53565b6008805480602002602001604051908101604052809291908181526020016000905b82821015613ada57838290600052602060002090600302016040518060600160405290816000820160009054906101000a900473ffffffffffffffffffffffffffffffffffffffff1673ffffffffffffffffffffffffffffffffffffffff1673ffffffffffffffffffffffffffffffffffffffff168152602001600182018054613a0e90614d98565b80601f0160208091040260200160405190810160405280929190818152602001828054613a3a90614d98565b8015613a875780601f10613a5c57610100808354040283529160200191613a87565b820191906000526020600020905b815481529060010190602001808311613a6a57829003601f168201915b505050505081526020016002820160009054906101000a900460ff166005811115613ab557613ab4614113565b5b6005811115613ac757613ac6614113565b5b8152505081526020019060010190613985565b50505050905090565b60068181548110613af357600080fd5b9060005260206000209060040201600091509050806000015490806001018054613b1c90614d98565b80601f0160208091040260200160405190810160405280929190818152602001828054613b4890614d98565b8015613b955780601f10613b6a57610100808354040283529160200191613b95565b820191906000526020600020905b815481529060010190602001808311613b7857829003601f168201915b5050505050908060020154908060030160009054906101000a900473ffffffffffffffffffffffffffffffffffffffff16905084565b60036020528160005260406000208181548110613be757600080fd5b90600052602060002001600091509150505481565b613c04613ef9565b6007805490508210613c4b576040517f08c379a0000000000000000000000000000000000000000000000000000000008152600401613c429061585d565b60405180910390fd5b60078281548110613c5f57613c5e614dc9565b5b90600052602060002090600602016040518060c0016040529081600082015481526020016001820160009054906101000a900473ffffffffffffffffffffffffffffffffffffffff1673ffffffffffffffffffffffffffffffffffffffff1673ffffffffffffffffffffffffffffffffffffffff1681526020016002820160009054906101000a900473ffffffffffffffffffffffffffffffffffffffff1673ffffffffffffffffffffffffffffffffffffffff1673ffffffffffffffffffffffffffffffffffffffff16815260200160038201548152602001600482015481526020016005820154815250509050919050565b613de981604051602401613d67919061587d565b6040516020818303038152906040527f41304fac000000000000000000000000000000000000000000000000000000007bffffffffffffffffffffffffffffffffffffffffffffffffffffffff19166020820180517bffffffffffffffffffffffffffffffffffffffffffffffffffffffff8381831617835250505050613dec565b50565b613e0381613dfb613e06613e27565b63ffffffff16565b50565b60006a636f6e736f6c652e6c6f679050600080835160208501845afa505050565b613fa4819050919050565b508054613e3e90614d98565b6000825580601f10613e505750613e6f565b601f016020900490600052602060002090810190613e6e9190613fae565b5b50565b6040518060600160405280600073ffffffffffffffffffffffffffffffffffffffff1681526020016060815260200160006005811115613eb557613eb4614113565b5b81525090565b6040518060800160405280600081526020016060815260200160008152602001600073ffffffffffffffffffffffffffffffffffffffff1681525090565b6040518060c0016040528060008152602001600073ffffffffffffffffffffffffffffffffffffffff168152602001600073ffffffffffffffffffffffffffffffffffffffff1681526020016000815260200160008152602001600081525090565b6040518060600160405280600073ffffffffffffffffffffffffffffffffffffffff1681526020016060815260200160006003811115613f9e57613f9d614113565b5b81525090565b613fac61589f565b565b5b80821115613fc7576000816000905550600101613faf565b5090565b6000604051905090565b600080fd5b600080fd5b6000819050919050565b613ff281613fdf565b8114613ffd57600080fd5b50565b60008135905061400f81613fe9565b92915050565b60006020828403121561402b5761402a613fd5565b5b600061403984828501614000565b91505092915050565b600073ffffffffffffffffffffffffffffffffffffffff82169050919050565b600061406d82614042565b9050919050565b61407d81614062565b82525050565b600081519050919050565b600082825260208201905092915050565b60005b838110156140bd5780820151818401526020810190506140a2565b60008484015250505050565b6000601f19601f8301169050919050565b60006140e582614083565b6140ef818561408e565b93506140ff81856020860161409f565b614108816140c9565b840191505092915050565b7f4e487b7100000000000000000000000000000000000000000000000000000000600052602160045260246000fd5b6006811061415357614152614113565b5b50565b600081905061416482614142565b919050565b600061417482614156565b9050919050565b61418481614169565b82525050565b600060608201905061419f6000830186614074565b81810360208301526141b181856140da565b90506141c0604083018461417b565b949350505050565b600080604083850312156141df576141de613fd5565b5b60006141ed85828601614000565b92505060206141fe85828601614000565b9150509250929050565b61421181613fdf565b82525050565b600060208201905061422c6000830184614208565b92915050565b61423b81614062565b811461424657600080fd5b50565b60008135905061425881614232565b92915050565b60006020828403121561427457614273613fd5565b5b600061428284828501614249565b91505092915050565b61429481614062565b82525050565b600082825260208201905092915050565b60006142b682614083565b6142c0818561429a565b93506142d081856020860161409f565b6142d9816140c9565b840191505092915050565b6142ed81614169565b82525050565b600060608301600083015161430b600086018261428b565b506020830151848203602086015261432382826142ab565b915050604083015161433860408601826142e4565b508091505092915050565b6000602082019050818103600083015261435d81846142f3565b905092915050565b600080fd5b600080fd5b7f4e487b7100000000000000000000000000000000000000000000000000000000600052604160045260246000fd5b6143a7826140c9565b810181811067ffffffffffffffff821117156143c6576143c561436f565b5b80604052505050565b60006143d9613fcb565b90506143e5828261439e565b919050565b600067ffffffffffffffff8211156144055761440461436f565b5b61440e826140c9565b9050602081019050919050565b82818337600083830152505050565b600061443d614438846143ea565b6143cf565b9050828152602081018484840111156144595761445861436a565b5b61446484828561441b565b509392505050565b600082601f83011261448157614480614365565b5b813561449184826020860161442a565b91505092915050565b6000806000606084860312156144b3576144b2613fd5565b5b600084013567ffffffffffffffff8111156144d1576144d0613fda565b5b6144dd8682870161446c565b93505060206144ee86828701614000565b92505060406144ff86828701614249565b9150509250925092565b61451281613fdf565b82525050565b60006080830160008301516145306000860182614509565b506020830151848203602086015261454882826142ab565b915050604083015161455d6040860182614509565b506060830151614570606086018261428b565b508091505092915050565b600060208201905081810360008301526145958184614518565b905092915050565b600081519050919050565b600082825260208201905092915050565b6000819050602082019050919050565b60c0820160008201516145df6000850182614509565b5060208201516145f2602085018261428b565b506040820151614605604085018261428b565b5060608201516146186060850182614509565b50608082015161462b6080850182614509565b5060a082015161463e60a0850182614509565b50505050565b600061465083836145c9565b60c08301905092915050565b6000602082019050919050565b60006146748261459d565b61467e81856145a8565b9350614689836145b9565b8060005b838110156146ba5781516146a18882614644565b97506146ac8361465c565b92505060018101905061468d565b5085935050505092915050565b600060208201905081810360008301526146e18184614669565b905092915050565b600481106146fa576146f9614113565b5b50565b600081905061470b826146e9565b919050565b600061471b826146fd565b9050919050565b61472b81614710565b82525050565b6000606083016000830151614749600086018261428b565b506020830151848203602086015261476182826142ab565b91505060408301516147766040860182614722565b508091505092915050565b6000602082019050818103600083015261479b8184614731565b905092915050565b6147ac81614710565b82525050565b60006060820190506147c76000830186614074565b81810360208301526147d981856140da565b90506147e860408301846147a3565b949350505050565b600060c0820190506148056000830189614208565b6148126020830188614074565b61481f6040830187614074565b61482c6060830186614208565b6148396080830185614208565b61484660a0830184614208565b979650505050505050565b6006811061485e57600080fd5b50565b60008135905061487081614851565b92915050565b60008060006060848603121561488f5761488e613fd5565b5b600061489d86828701614249565b935050602084013567ffffffffffffffff8111156148be576148bd613fda565b5b6148ca8682870161446c565b92505060406148db86828701614861565b9150509250925092565b600081519050919050565b600082825260208201905092915050565b6000819050602082019050919050565b60006080830160008301516149296000860182614509565b506020830151848203602086015261494182826142ab565b91505060408301516149566040860182614509565b506060830151614969606086018261428b565b508091505092915050565b60006149808383614911565b905092915050565b6000602082019050919050565b60006149a0826148e5565b6149aa81856148f0565b9350836020820285016149bc85614901565b8060005b858110156149f857848403895281516149d98582614974565b94506149e483614988565b925060208a019950506001810190506149c0565b50829750879550505050505092915050565b60006020820190508181036000830152614a248184614995565b905092915050565b600080600060608486031215614a4557614a44613fd5565b5b6000614a5386828701614249565b9350506020614a6486828701614000565b9250506040614a7586828701614000565b9150509250925092565b60048110614a8c57600080fd5b50565b600081359050614a9e81614a7f565b92915050565b600080600060608486031215614abd57614abc613fd5565b5b600084013567ffffffffffffffff811115614adb57614ada613fda565b5b614ae78682870161446c565b9350506020614af886828701614a8f565b9250506040614b0986828701614249565b9150509250925092565b600081519050919050565b600082825260208201905092915050565b6000819050602082019050919050565b6000606083016000830151614b57600086018261428b565b5060208301518482036020860152614b6f82826142ab565b9150506040830151614b8460408601826142e4565b508091505092915050565b6000614b9b8383614b3f565b905092915050565b6000602082019050919050565b6000614bbb82614b13565b614bc58185614b1e565b935083602082028501614bd785614b2f565b8060005b85811015614c135784840389528151614bf48582614b8f565b9450614bff83614ba3565b925060208a01995050600181019050614bdb565b50829750879550505050505092915050565b60006020820190508181036000830152614c3f8184614bb0565b905092915050565b6000608082019050614c5c6000830187614208565b8181036020830152614c6e81866140da565b9050614c7d6040830185614208565b614c8a6060830184614074565b95945050505050565b60008060408385031215614caa57614ca9613fd5565b5b6000614cb885828601614249565b9250506020614cc985828601614000565b9150509250929050565b60c082016000820151614ce96000850182614509565b506020820151614cfc602085018261428b565b506040820151614d0f604085018261428b565b506060820151614d226060850182614509565b506080820151614d356080850182614509565b5060a0820151614d4860a0850182614509565b50505050565b600060c082019050614d636000830184614cd3565b92915050565b7f4e487b7100000000000000000000000000000000000000000000000000000000600052602260045260246000fd5b60006002820490506001821680614db057607f821691505b602082108103614dc357614dc2614d69565b5b50919050565b7f4e487b7100000000000000000000000000000000000000000000000000000000600052603260045260246000fd5b7f50726f6475637420646f6573206e6f7420657869737421000000000000000000600082015250565b6000614e2e60178361408e565b9150614e3982614df8565b602082019050919050565b60006020820190508181036000830152614e5d81614e21565b9050919050565b7f4e487b7100000000000000000000000000000000000000000000000000000000600052601160045260246000fd5b6000614e9e82613fdf565b9150614ea983613fdf565b9250828203905081811115614ec157614ec0614e64565b5b92915050565b600081549050614ed681614d98565b9050919050565b60008190508160005260206000209050919050565b60006020601f8301049050919050565b600082821b905092915050565b600060088302614f3f7fffffffffffffffffffffffffffffffffffffffffffffffffffffffffffffffff82614f02565b614f498683614f02565b95508019841693508086168417925050509392505050565b6000819050919050565b6000614f86614f81614f7c84613fdf565b614f61565b613fdf565b9050919050565b6000819050919050565b614fa083614f6b565b614fb4614fac82614f8d565b848454614f0f565b825550505050565b600090565b614fc9614fbc565b614fd4818484614f97565b505050565b5b81811015614ff857614fed600082614fc1565b600181019050614fda565b5050565b601f82111561503d5761500e81614edd565b61501784614ef2565b81016020851015615026578190505b61503a61503285614ef2565b830182614fd9565b50505b505050565b600082821c905092915050565b600061506060001984600802615042565b1980831691505092915050565b6000615079838361504f565b9150826002028217905092915050565b81810361509757505061516f565b6150a082614ec7565b67ffffffffffffffff8111156150b9576150b861436f565b5b6150c38254614d98565b6150ce828285614ffc565b6000601f8311600181146150fd57600084156150eb578287015490505b6150f5858261506d565b865550615168565b601f19841661510b87614edd565b965061511686614edd565b60005b8281101561513e57848901548255600182019150600185019450602081019050615119565b8683101561515b5784890154615157601f89168261504f565b8355505b6001600288020188555050505b5050505050505b565b7f4e487b7100000000000000000000000000000000000000000000000000000000600052603160045260246000fd5b7f4e6f7420617574686f72697a6564000000000000000000000000000000000000600082015250565b60006151d6600e8361408e565b91506151e1826151a0565b602082019050919050565b60006020820190508181036000830152615205816151c9565b9050919050565b7f456e7469747920646f6573206e6f742065786973742100000000000000000000600082015250565b600061524260168361408e565b915061524d8261520c565b602082019050919050565b6000602082019050818103600083015261527181615235565b9050919050565b600060208201905061528d6000830184614074565b92915050565b7f43616e6e6f74206372656174652070726f64756374206265636175736520456e60008201527f7469747920646f6573206e6f7420657869737421000000000000000000000000602082015250565b60006152ef60348361408e565b91506152fa82615293565b604082019050919050565b6000602082019050818103600083015261531e816152e2565b9050919050565b7f43616e6e6f74206372656174652070726f64756374206265636175736520456e60008201527f74697479206973206e6f74206120537570706c69657221000000000000000000602082015250565b600061538160378361408e565b915061538c82615325565b604082019050919050565b600060208201905081810360008301526153b081615374565b9050919050565b60006153c282613fdf565b91507fffffffffffffffffffffffffffffffffffffffffffffffffffffffffffffffff82036153f4576153f3614e64565b5b600182019050919050565b61540882614083565b67ffffffffffffffff8111156154215761542061436f565b5b61542b8254614d98565b615436828285614ffc565b600060209050601f8311600181146154695760008415615457578287015190505b615461858261506d565b8655506154c9565b601f19841661547786614edd565b60005b8281101561549f5784890151825560018201915060208501945060208101905061547a565b868310156154bc57848901516154b8601f89168261504f565b8355505b6001600288020188555050505b505050505050565b7f50726f6475637420646f6573206e6f742062656c6f6e6720746f20746865207560008201527f7365720000000000000000000000000000000000000000000000000000000000602082015250565b600061552d60238361408e565b9150615538826154d1565b604082019050919050565b6000602082019050818103600083015261555c81615520565b9050919050565b7f5573657220646f6573206e6f7420657869737421000000000000000000000000600082015250565b600061559960148361408e565b91506155a482615563565b602082019050919050565b600060208201905081810360008301526155c88161558c565b9050919050565b7f41646d696e2063616e27742072656d6f76652068696d73656c66210000000000600082015250565b6000615605601b8361408e565b9150615610826155cf565b602082019050919050565b60006020820190508181036000830152615634816155f8565b9050919050565b7f456e7469747920616c7265616479206578697374732100000000000000000000600082015250565b600061567160168361408e565b915061567c8261563b565b602082019050919050565b600060208201905081810360008301526156a081615664565b9050919050565b7f45787065637465642064617465206f66206172726976616c2073686f756c642060008201527f62652061667465722064617465206f6620646570617274757265210000000000602082015250565b6000615703603b8361408e565b915061570e826156a7565b604082019050919050565b60006020820190508181036000830152615732816156f6565b9050919050565b7f57726f6e672064657374696e6174696f6e210000000000000000000000000000600082015250565b600061576f60128361408e565b915061577a82615739565b602082019050919050565b6000602082019050818103600083015261579e81615762565b9050919050565b7f5573657220616c72656164792065786973747300000000000000000000000000600082015250565b60006157db60138361408e565b91506157e6826157a5565b602082019050919050565b6000602082019050818103600083015261580a816157ce565b9050919050565b7f536869706d656e7420646f6573206e6f74206578697374210000000000000000600082015250565b600061584760188361408e565b915061585282615811565b602082019050919050565b600060208201905081810360008301526158768161583a565b9050919050565b6000602082019050818103600083015261589781846140da565b905092915050565b7f4e487b7100000000000000000000000000000000000000000000000000000000600052605160045260246000fdfea26469706673582212204b8eb641d779d6e0d2827ad0c94419d7314db4792f5f05695f6fcad18d6ebbad64736f6c63430008180033",
  "linkReferences": {},
  "deployedLinkReferences": {}
}