{
  "_format": "hh-sol-artifact-1",
  "contractName": "Pharmacy",
  "sourceName": "contracts/Pharmacy.sol",
  "abi": [
    {
      "inputs": [],
      "stateMutability": "nonpayable",
      "type": "constructor"
    },
    {
      "anonymous": false,
      "inputs": [
        {
          "indexed": false,
          "internalType": "uint256",
          "name": "id",
          "type": "uint256"
        },
        {
          "indexed": false,
          "internalType": "string",
          "name": "name",
          "type": "string"
        },
        {
          "indexed": false,
          "internalType": "uint256",
          "name": "quantity",
          "type": "uint256"
        },
        {
          "indexed": false,
          "internalType": "address",
          "name": "currentScEntity",
          "type": "address"
        }
      ],
      "name": "ProductCreated",
      "type": "event"
    },
    {
      "anonymous": false,
      "inputs": [
        {
          "indexed": false,
          "internalType": "uint256",
          "name": "id",
          "type": "uint256"
        }
      ],
      "name": "ProductRemoved",
      "type": "event"
    },
    {
      "anonymous": false,
      "inputs": [
        {
          "indexed": false,
          "internalType": "address",
          "name": "entity_address",
          "type": "address"
        },
        {
          "indexed": false,
          "internalType": "string",
          "name": "name",
          "type": "string"
        },
        {
          "indexed": false,
          "internalType": "enum Pharmacy.EntityType",
          "name": "entity_type",
          "type": "uint8"
        }
      ],
      "name": "ScEntityCreated",
      "type": "event"
    },
    {
      "anonymous": false,
      "inputs": [
        {
          "indexed": false,
          "internalType": "address",
          "name": "entity_address",
          "type": "address"
        }
      ],
      "name": "ScEntityRemoved",
      "type": "event"
    },
    {
      "anonymous": false,
      "inputs": [
        {
          "indexed": false,
          "internalType": "uint256",
          "name": "shipment_id",
          "type": "uint256"
        },
        {
          "indexed": false,
          "internalType": "address",
          "name": "origin",
          "type": "address"
        },
        {
          "indexed": false,
          "internalType": "address",
          "name": "destination",
          "type": "address"
        },
        {
          "indexed": false,
          "internalType": "uint256",
          "name": "date_of_departure",
          "type": "uint256"
        },
        {
          "indexed": false,
          "internalType": "uint256",
          "name": "expected_date_of_arrival",
          "type": "uint256"
        },
        {
          "indexed": false,
          "internalType": "uint256",
          "name": "product_id",
          "type": "uint256"
        }
      ],
      "name": "ShipmentCreated",
      "type": "event"
    },
    {
      "anonymous": false,
      "inputs": [
        {
          "indexed": false,
          "internalType": "address",
          "name": "user_address",
          "type": "address"
        },
        {
          "indexed": false,
          "internalType": "string",
          "name": "name",
          "type": "string"
        },
        {
          "indexed": false,
          "internalType": "enum Pharmacy.Role",
          "name": "role",
          "type": "uint8"
        }
      ],
      "name": "UserCreated",
      "type": "event"
    },
    {
      "anonymous": false,
      "inputs": [
        {
          "indexed": false,
          "internalType": "address",
          "name": "user_address",
          "type": "address"
        }
      ],
      "name": "UserRemoved",
      "type": "event"
    },
    {
      "inputs": [
        {
          "internalType": "address",
          "name": "entity_address",
          "type": "address"
        },
        {
          "internalType": "string",
          "name": "name",
          "type": "string"
        },
        {
          "internalType": "enum Pharmacy.EntityType",
          "name": "entity_type",
          "type": "uint8"
        }
      ],
      "name": "create_ScEntity",
      "outputs": [],
      "stateMutability": "nonpayable",
      "type": "function"
    },
    {
      "inputs": [
        {
          "internalType": "string",
          "name": "name",
          "type": "string"
        },
        {
          "internalType": "uint256",
          "name": "quantity",
          "type": "uint256"
        },
        {
          "internalType": "address",
          "name": "currentScEntity",
          "type": "address"
        }
      ],
      "name": "create_product",
      "outputs": [],
      "stateMutability": "nonpayable",
      "type": "function"
    },
    {
      "inputs": [
        {
          "internalType": "address",
          "name": "destination",
          "type": "address"
        },
        {
          "internalType": "uint256",
          "name": "product_id",
          "type": "uint256"
        },
        {
          "internalType": "uint256",
          "name": "expected_date_of_arrival",
          "type": "uint256"
        }
      ],
      "name": "create_shipment",
      "outputs": [],
      "stateMutability": "nonpayable",
      "type": "function"
    },
    {
      "inputs": [
        {
          "internalType": "string",
          "name": "name",
          "type": "string"
        },
        {
          "internalType": "enum Pharmacy.Role",
          "name": "role",
          "type": "uint8"
        },
        {
          "internalType": "address",
          "name": "user_address",
          "type": "address"
        }
      ],
      "name": "create_user",
      "outputs": [],
      "stateMutability": "nonpayable",
      "type": "function"
    },
    {
      "inputs": [
        {
          "internalType": "address",
          "name": "",
          "type": "address"
        },
        {
          "internalType": "uint256",
          "name": "",
          "type": "uint256"
        }
      ],
      "name": "entities_products",
      "outputs": [
        {
          "internalType": "uint256",
          "name": "",
          "type": "uint256"
        }
      ],
      "stateMutability": "view",
      "type": "function"
    },
    {
      "inputs": [],
      "name": "get_ScEntities",
      "outputs": [
        {
          "components": [
            {
              "internalType": "address",
              "name": "entity_address",
              "type": "address"
            },
            {
              "internalType": "string",
              "name": "name",
              "type": "string"
            },
            {
              "internalType": "enum Pharmacy.EntityType",
              "name": "entity_type",
              "type": "uint8"
            }
          ],
          "internalType": "struct Pharmacy.ScEntity[]",
          "name": "",
          "type": "tuple[]"
        }
      ],
      "stateMutability": "view",
      "type": "function"
    },
    {
      "inputs": [
        {
          "internalType": "address",
          "name": "entity_address",
          "type": "address"
        }
      ],
      "name": "get_ScEntity",
      "outputs": [
        {
          "components": [
            {
              "internalType": "address",
              "name": "entity_address",
              "type": "address"
            },
            {
              "internalType": "string",
              "name": "name",
              "type": "string"
            },
            {
              "internalType": "enum Pharmacy.EntityType",
              "name": "entity_type",
              "type": "uint8"
            }
          ],
          "internalType": "struct Pharmacy.ScEntity",
          "name": "",
          "type": "tuple"
        }
      ],
      "stateMutability": "view",
      "type": "function"
    },
    {
      "inputs": [
        {
          "internalType": "uint256",
          "name": "id",
          "type": "uint256"
        }
      ],
      "name": "get_product",
      "outputs": [
        {
          "components": [
            {
              "internalType": "uint256",
              "name": "id",
              "type": "uint256"
            },
            {
              "internalType": "string",
              "name": "name",
              "type": "string"
            },
            {
              "internalType": "uint256",
              "name": "quantity",
              "type": "uint256"
            },
            {
              "internalType": "address",
              "name": "currentScEntity",
              "type": "address"
            }
          ],
          "internalType": "struct Pharmacy.Product",
          "name": "",
          "type": "tuple"
        }
      ],
      "stateMutability": "view",
      "type": "function"
    },
    {
      "inputs": [
        {
          "internalType": "uint256",
          "name": "id",
          "type": "uint256"
        }
      ],
      "name": "get_product_entity",
      "outputs": [
        {
          "components": [
            {
              "internalType": "address",
              "name": "entity_address",
              "type": "address"
            },
            {
              "internalType": "string",
              "name": "name",
              "type": "string"
            },
            {
              "internalType": "enum Pharmacy.EntityType",
              "name": "entity_type",
              "type": "uint8"
            }
          ],
          "internalType": "struct Pharmacy.ScEntity",
          "name": "",
          "type": "tuple"
        }
      ],
      "stateMutability": "view",
      "type": "function"
    },
    {
      "inputs": [
        {
          "internalType": "uint256",
          "name": "product_id",
          "type": "uint256"
        }
      ],
      "name": "get_product_shipments",
      "outputs": [
        {
          "components": [
            {
              "internalType": "uint256",
              "name": "shipment_id",
              "type": "uint256"
            },
            {
              "internalType": "address",
              "name": "origin",
              "type": "address"
            },
            {
              "internalType": "address",
              "name": "destination",
              "type": "address"
            },
            {
              "internalType": "uint256",
              "name": "date_of_departure",
              "type": "uint256"
            },
            {
              "internalType": "uint256",
              "name": "expected_date_of_arrival",
              "type": "uint256"
            },
            {
              "internalType": "uint256",
              "name": "product_id",
              "type": "uint256"
            }
          ],
          "internalType": "struct Pharmacy.Shipment[]",
          "name": "",
          "type": "tuple[]"
        }
      ],
      "stateMutability": "view",
      "type": "function"
    },
    {
      "inputs": [],
      "name": "get_products",
      "outputs": [
        {
          "components": [
            {
              "internalType": "uint256",
              "name": "id",
              "type": "uint256"
            },
            {
              "internalType": "string",
              "name": "name",
              "type": "string"
            },
            {
              "internalType": "uint256",
              "name": "quantity",
              "type": "uint256"
            },
            {
              "internalType": "address",
              "name": "currentScEntity",
              "type": "address"
            }
          ],
          "internalType": "struct Pharmacy.Product[]",
          "name": "",
          "type": "tuple[]"
        }
      ],
      "stateMutability": "view",
      "type": "function"
    },
    {
      "inputs": [
        {
          "internalType": "uint256",
          "name": "shipment_id",
          "type": "uint256"
        }
      ],
      "name": "get_shipment",
      "outputs": [
        {
          "components": [
            {
              "internalType": "uint256",
              "name": "shipment_id",
              "type": "uint256"
            },
            {
              "internalType": "address",
              "name": "origin",
              "type": "address"
            },
            {
              "internalType": "address",
              "name": "destination",
              "type": "address"
            },
            {
              "internalType": "uint256",
              "name": "date_of_departure",
              "type": "uint256"
            },
            {
              "internalType": "uint256",
              "name": "expected_date_of_arrival",
              "type": "uint256"
            },
            {
              "internalType": "uint256",
              "name": "product_id",
              "type": "uint256"
            }
          ],
          "internalType": "struct Pharmacy.Shipment",
          "name": "",
          "type": "tuple"
        }
      ],
      "stateMutability": "view",
      "type": "function"
    },
    {
      "inputs": [],
      "name": "get_shipments",
      "outputs": [
        {
          "components": [
            {
              "internalType": "uint256",
              "name": "shipment_id",
              "type": "uint256"
            },
            {
              "internalType": "address",
              "name": "origin",
              "type": "address"
            },
            {
              "internalType": "address",
              "name": "destination",
              "type": "address"
            },
            {
              "internalType": "uint256",
              "name": "date_of_departure",
              "type": "uint256"
            },
            {
              "internalType": "uint256",
              "name": "expected_date_of_arrival",
              "type": "uint256"
            },
            {
              "internalType": "uint256",
              "name": "product_id",
              "type": "uint256"
            }
          ],
          "internalType": "struct Pharmacy.Shipment[]",
          "name": "",
          "type": "tuple[]"
        }
      ],
      "stateMutability": "view",
      "type": "function"
    },
    {
      "inputs": [
        {
          "internalType": "uint256",
          "name": "",
          "type": "uint256"
        }
      ],
      "name": "products_index",
      "outputs": [
        {
          "internalType": "uint256",
          "name": "",
          "type": "uint256"
        }
      ],
      "stateMutability": "view",
      "type": "function"
    },
    {
      "inputs": [
        {
          "internalType": "uint256",
          "name": "",
          "type": "uint256"
        }
      ],
      "name": "products_list",
      "outputs": [
        {
          "internalType": "uint256",
          "name": "id",
          "type": "uint256"
        },
        {
          "internalType": "string",
          "name": "name",
          "type": "string"
        },
        {
          "internalType": "uint256",
          "name": "quantity",
          "type": "uint256"
        },
        {
          "internalType": "address",
          "name": "currentScEntity",
          "type": "address"
        }
      ],
      "stateMutability": "view",
      "type": "function"
    },
    {
      "inputs": [
        {
          "internalType": "uint256",
          "name": "",
          "type": "uint256"
        },
        {
          "internalType": "uint256",
          "name": "",
          "type": "uint256"
        }
      ],
      "name": "products_shipments",
      "outputs": [
        {
          "internalType": "uint256",
          "name": "",
          "type": "uint256"
        }
      ],
      "stateMutability": "view",
      "type": "function"
    },
    {
      "inputs": [
        {
          "internalType": "address",
          "name": "entity_address",
          "type": "address"
        }
      ],
      "name": "remove_ScEntity",
      "outputs": [],
      "stateMutability": "nonpayable",
      "type": "function"
    },
    {
      "inputs": [
        {
          "internalType": "uint256",
          "name": "id",
          "type": "uint256"
        }
      ],
      "name": "remove_product",
      "outputs": [],
      "stateMutability": "nonpayable",
      "type": "function"
    },
    {
      "inputs": [
        {
          "internalType": "address",
          "name": "user_address",
          "type": "address"
        }
      ],
      "name": "remove_user",
      "outputs": [],
      "stateMutability": "nonpayable",
      "type": "function"
    },
    {
      "inputs": [
        {
          "internalType": "address",
          "name": "",
          "type": "address"
        }
      ],
      "name": "scEntities_index",
      "outputs": [
        {
          "internalType": "uint256",
          "name": "",
          "type": "uint256"
        }
      ],
      "stateMutability": "view",
      "type": "function"
    },
    {
      "inputs": [
        {
          "internalType": "uint256",
          "name": "",
          "type": "uint256"
        }
      ],
      "name": "scEntities_list",
      "outputs": [
        {
          "internalType": "address",
          "name": "entity_address",
          "type": "address"
        },
        {
          "internalType": "string",
          "name": "name",
          "type": "string"
        },
        {
          "internalType": "enum Pharmacy.EntityType",
          "name": "entity_type",
          "type": "uint8"
        }
      ],
      "stateMutability": "view",
      "type": "function"
    },
    {
      "inputs": [
        {
          "internalType": "uint256",
          "name": "",
          "type": "uint256"
        }
      ],
      "name": "shipments_list",
      "outputs": [
        {
          "internalType": "uint256",
          "name": "shipment_id",
          "type": "uint256"
        },
        {
          "internalType": "address",
          "name": "origin",
          "type": "address"
        },
        {
          "internalType": "address",
          "name": "destination",
          "type": "address"
        },
        {
          "internalType": "uint256",
          "name": "date_of_departure",
          "type": "uint256"
        },
        {
          "internalType": "uint256",
          "name": "expected_date_of_arrival",
          "type": "uint256"
        },
        {
          "internalType": "uint256",
          "name": "product_id",
          "type": "uint256"
        }
      ],
      "stateMutability": "view",
      "type": "function"
    },
    {
      "inputs": [
        {
          "internalType": "address",
          "name": "",
          "type": "address"
        }
      ],
      "name": "users",
      "outputs": [
        {
          "internalType": "address",
          "name": "user_address",
          "type": "address"
        },
        {
          "internalType": "string",
          "name": "name",
          "type": "string"
        },
        {
          "internalType": "enum Pharmacy.Role",
          "name": "role",
          "type": "uint8"
        }
      ],
      "stateMutability": "view",
      "type": "function"
    },
    {
      "inputs": [
        {
          "internalType": "address",
          "name": "user_address",
          "type": "address"
        }
      ],
      "name": "view_user",
      "outputs": [
        {
          "components": [
            {
              "internalType": "address",
              "name": "user_address",
              "type": "address"
            },
            {
              "internalType": "string",
              "name": "name",
              "type": "string"
            },
            {
              "internalType": "enum Pharmacy.Role",
              "name": "role",
              "type": "uint8"
            }
          ],
          "internalType": "struct Pharmacy.User",
          "name": "",
          "type": "tuple"
        }
      ],
      "stateMutability": "view",
      "type": "function"
    }
  ],
  "bytecode": "0x608060405260016005553480156200001657600080fd5b50600060405180606001604052803373ffffffffffffffffffffffffffffffffffffffff1681526020016040518060400160405280600581526020017f41646d696e00000000000000000000000000000000000000000000000000000081525081526020016000600381111562000092576200009162000172565b5b8152509050806000803373ffffffffffffffffffffffffffffffffffffffff1673ffffffffffffffffffffffffffffffffffffffff16815260200190815260200160002060008201518160000160006101000a81548173ffffffffffffffffffffffffffffffffffffffff021916908373ffffffffffffffffffffffffffffffffffffffff16021790555060208201518160010190816200013491906200041b565b5060408201518160020160006101000a81548160ff0219169083600381111562000163576200016262000172565b5b02179055509050505062000502565b7f4e487b7100000000000000000000000000000000000000000000000000000000600052602160045260246000fd5b600081519050919050565b7f4e487b7100000000000000000000000000000000000000000000000000000000600052604160045260246000fd5b7f4e487b7100000000000000000000000000000000000000000000000000000000600052602260045260246000fd5b600060028204905060018216806200022357607f821691505b602082108103620002395762000238620001db565b5b50919050565b60008190508160005260206000209050919050565b60006020601f8301049050919050565b600082821b905092915050565b600060088302620002a37fffffffffffffffffffffffffffffffffffffffffffffffffffffffffffffffff8262000264565b620002af868362000264565b95508019841693508086168417925050509392505050565b6000819050919050565b6000819050919050565b6000620002fc620002f6620002f084620002c7565b620002d1565b620002c7565b9050919050565b6000819050919050565b6200031883620002db565b62000330620003278262000303565b84845462000271565b825550505050565b600090565b6200034762000338565b620003548184846200030d565b505050565b5b818110156200037c57620003706000826200033d565b6001810190506200035a565b5050565b601f821115620003cb5762000395816200023f565b620003a08462000254565b81016020851015620003b0578190505b620003c8620003bf8562000254565b83018262000359565b50505b505050565b600082821c905092915050565b6000620003f060001984600802620003d0565b1980831691505092915050565b60006200040b8383620003dd565b9150826002028217905092915050565b6200042682620001a1565b67ffffffffffffffff811115620004425762000441620001ac565b5b6200044e82546200020a565b6200045b82828562000380565b600060209050601f8311600181146200049357600084156200047e578287015190505b6200048a8582620003fd565b865550620004fa565b601f198416620004a3866200023f565b60005b82811015620004cd57848901518255600182019150602085019450602081019050620004a6565b86831015620004ed5784890151620004e9601f891682620003dd565b8355505b6001600288020188555050505b505050505050565b615fd080620005126000396000f3fe608060405234801561001057600080fd5b50600436106101575760003560e01c8063b07048d9116100c3578063de63918a1161007c578063de63918a14610429578063eb54eb0514610445578063efccd4aa14610475578063f7aed77314610493578063f80e6fe1146104c6578063faecc246146104f657610157565b8063b07048d914610364578063b08806a214610380578063b7bdecc9146103b5578063c041fa27146103d1578063c17644a8146103ef578063cb40f9d51461040d57610157565b80633490228f116101155780633490228f146102565780636f11432d14610272578063777138bb146102a25780637bc195bf146102d2578063871bb69514610302578063a87430ba1461033257610157565b8062709d391461015c5780630e3262211461018e57806316248fd1146101aa5780632120a03b146101da57806323033fe0146101f65780632fca0bf714610226575b600080fd5b610176600480360381019061017191906143ec565b610526565b60405161018593929190614561565b60405180910390f35b6101a860048036038101906101a391906143ec565b610615565b005b6101c460048036038101906101bf919061459f565b61089d565b6040516101d191906145ee565b60405180910390f35b6101f460048036038101906101ef9190614635565b6108ce565b005b610210600480360381019061020b9190614635565b610d33565b60405161021d919061471a565b60405180910390f35b610240600480360381019061023b91906143ec565b610f9a565b60405161024d91906145ee565b60405180910390f35b610270600480360381019061026b9190614871565b610fb2565b005b61028c600480360381019061028791906143ec565b611321565b6040516102999190614952565b60405180910390f35b6102bc60048036038101906102b791906143ec565b6114f3565b6040516102c9919061471a565b60405180910390f35b6102ec60048036038101906102e791906143ec565b6115ea565b6040516102f99190614a9e565b60405180910390f35b61031c60048036038101906103179190614635565b611dd3565b6040516103299190614b58565b60405180910390f35b61034c60048036038101906103479190614635565b61201d565b60405161035b93929190614b89565b60405180910390f35b61037e60048036038101906103799190614635565b6120fc565b005b61039a600480360381019061039591906143ec565b6123b6565b6040516103ac96959493929190614bc7565b60405180910390f35b6103cf60048036038101906103ca9190614c4d565b612442565b005b6103d9612a90565b6040516103e69190614a9e565b60405180910390f35b6103f7612bc3565b6040516104049190614de1565b60405180910390f35b61042760048036038101906104229190614e03565b6130ca565b005b610443600480360381019061043e9190614e7b565b61384e565b005b61045f600480360381019061045a9190614635565b613e09565b60405161046c91906145ee565b60405180910390f35b61047d613e21565b60405161048a9190614ffc565b60405180910390f35b6104ad60048036038101906104a891906143ec565b613fa3565b6040516104bd949392919061501e565b60405180910390f35b6104e060048036038101906104db919061506a565b61408b565b6040516104ed91906145ee565b60405180910390f35b610510600480360381019061050b91906143ec565b6140bc565b60405161051d9190615125565b60405180910390f35b6008818154811061053657600080fd5b90600052602060002090600302016000915090508060000160009054906101000a900473ffffffffffffffffffffffffffffffffffffffff169080600101805461057f9061516f565b80601f01602080910402602001604051908101604052809291908181526020018280546105ab9061516f565b80156105f85780601f106105cd576101008083540402835291602001916105f8565b820191906000526020600020905b8154815290600101906020018083116105db57829003601f168201915b5050505050908060020160009054906101000a900460ff16905083565b6000600260008381526020019081526020016000205414158061065d5750806006600081548110610649576106486151a0565b5b906000526020600020906004020160000154145b61069c576040517f08c379a00000000000000000000000000000000000000000000000000000000081526004016106939061521b565b60405180910390fd5b600060026000838152602001908152602001600020549050600660016006805490506106c8919061526a565b815481106106d9576106d86151a0565b5b9060005260206000209060040201600682815481106106fb576106fa6151a0565b5b906000526020600020906004020160008201548160000155600182018160010190816107279190615460565b50600282015481600201556003820160009054906101000a900473ffffffffffffffffffffffffffffffffffffffff168160030160006101000a81548173ffffffffffffffffffffffffffffffffffffffff021916908373ffffffffffffffffffffffffffffffffffffffff1602179055509050508060026000600684815481106107b5576107b46151a0565b5b9060005260206000209060040201600001548152602001908152602001600020819055506002600083815260200190815260200160002060009055600680548061080257610801615548565b5b600190038181906000526020600020906004020160008082016000905560018201600061082f9190614213565b60028201600090556003820160006101000a81549073ffffffffffffffffffffffffffffffffffffffff0219169055505090557f07015631cff457b5b13492c2045e70c6305a0a4aa773e432e79abbe2cf52c1eb8260405161089191906145ee565b60405180910390a15050565b600460205281600052604060002081815481106108b957600080fd5b90600052602060002001600091509150505481565b60008060038111156108e3576108e26144ea565b5b6000803373ffffffffffffffffffffffffffffffffffffffff1673ffffffffffffffffffffffffffffffffffffffff16815260200190815260200160002060020160009054906101000a900460ff166003811115610944576109436144ea565b5b14610984576040517f08c379a000000000000000000000000000000000000000000000000000000000815260040161097b906155c3565b60405180910390fd5b6000600160008473ffffffffffffffffffffffffffffffffffffffff1673ffffffffffffffffffffffffffffffffffffffff16815260200190815260200160002054905060088054905081108015610a4c57508273ffffffffffffffffffffffffffffffffffffffff1660088281548110610a0257610a016151a0565b5b906000526020600020906003020160000160009054906101000a900473ffffffffffffffffffffffffffffffffffffffff1673ffffffffffffffffffffffffffffffffffffffff16145b610a8b576040517f08c379a0000000000000000000000000000000000000000000000000000000008152600401610a829061562f565b60405180910390fd5b6001600880549050610a9d919061526a565b8114610c3e5760086001600880549050610ab7919061526a565b81548110610ac857610ac76151a0565b5b906000526020600020906003020160088281548110610aea57610ae96151a0565b5b90600052602060002090600302016000820160009054906101000a900473ffffffffffffffffffffffffffffffffffffffff168160000160006101000a81548173ffffffffffffffffffffffffffffffffffffffff021916908373ffffffffffffffffffffffffffffffffffffffff16021790555060018201816001019081610b739190615460565b506002820160009054906101000a900460ff168160020160006101000a81548160ff02191690836005811115610bac57610bab6144ea565b5b0217905550905050806001600060088481548110610bcd57610bcc6151a0565b5b906000526020600020906003020160000160009054906101000a900473ffffffffffffffffffffffffffffffffffffffff1673ffffffffffffffffffffffffffffffffffffffff1673ffffffffffffffffffffffffffffffffffffffff168152602001908152602001600020819055505b6008805480610c5057610c4f615548565b5b6001900381819060005260206000209060030201600080820160006101000a81549073ffffffffffffffffffffffffffffffffffffffff0219169055600182016000610c9c9190614213565b6002820160006101000a81549060ff021916905550509055600160008473ffffffffffffffffffffffffffffffffffffffff1673ffffffffffffffffffffffffffffffffffffffff168152602001908152602001600020600090557f5d3e2f6091ad4a3a365ae9a6a381688e8e80b4ebb902a5217c76ca91fdff95af83604051610d26919061564f565b60405180910390a1505050565b610d3b614253565b6000600160008473ffffffffffffffffffffffffffffffffffffffff1673ffffffffffffffffffffffffffffffffffffffff16815260200190815260200160002054905060088054905081108015610e0357508273ffffffffffffffffffffffffffffffffffffffff1660088281548110610db957610db86151a0565b5b906000526020600020906003020160000160009054906101000a900473ffffffffffffffffffffffffffffffffffffffff1673ffffffffffffffffffffffffffffffffffffffff16145b610e42576040517f08c379a0000000000000000000000000000000000000000000000000000000008152600401610e399061562f565b60405180910390fd5b60088181548110610e5657610e556151a0565b5b90600052602060002090600302016040518060600160405290816000820160009054906101000a900473ffffffffffffffffffffffffffffffffffffffff1673ffffffffffffffffffffffffffffffffffffffff1673ffffffffffffffffffffffffffffffffffffffff168152602001600182018054610ed59061516f565b80601f0160208091040260200160405190810160405280929190818152602001828054610f019061516f565b8015610f4e5780601f10610f2357610100808354040283529160200191610f4e565b820191906000526020600020905b815481529060010190602001808311610f3157829003601f168201915b505050505081526020016002820160009054906101000a900460ff166005811115610f7c57610f7b6144ea565b5b6005811115610f8e57610f8d6144ea565b5b81525050915050919050565b60026020528060005260406000206000915090505481565b6000600160008373ffffffffffffffffffffffffffffffffffffffff1673ffffffffffffffffffffffffffffffffffffffff1681526020019081526020016000205490506008805490508110801561107a57508173ffffffffffffffffffffffffffffffffffffffff16600882815481106110305761102f6151a0565b5b906000526020600020906003020160000160009054906101000a900473ffffffffffffffffffffffffffffffffffffffff1673ffffffffffffffffffffffffffffffffffffffff16145b6110b9576040517f08c379a00000000000000000000000000000000000000000000000000000000081526004016110b0906156dc565b60405180910390fd5b600060058111156110cd576110cc6144ea565b5b600882815481106110e1576110e06151a0565b5b906000526020600020906003020160020160009054906101000a900460ff166005811115611112576111116144ea565b5b14611152576040517f08c379a00000000000000000000000000000000000000000000000000000000081526004016111499061576e565b60405180910390fd5b60006040518060800160405280600560008154809291906111729061578e565b9190505581526020018681526020018581526020018473ffffffffffffffffffffffffffffffffffffffff168152509050600680549050600260008360000151815260200190815260200160002081905550600681908060018154018082558091505060019003906000526020600020906004020160009091909190915060008201518160000155602082015181600101908161120f91906157d6565b506040820151816002015560608201518160030160006101000a81548173ffffffffffffffffffffffffffffffffffffffff021916908373ffffffffffffffffffffffffffffffffffffffff1602179055505050600360008473ffffffffffffffffffffffffffffffffffffffff1673ffffffffffffffffffffffffffffffffffffffff168152602001908152602001600020816000015190806001815401808255809150506001900390600052602060002001600090919091909150557f2e87df3c8f53fb06266ed52023929f5fab9f24130224ef6538b665d9cac825308160000151826020015183604001518460600151604051611312949392919061501e565b60405180910390a15050505050565b61132961429c565b60006002600084815260200190815260200160002054141580611371575081600660008154811061135d5761135c6151a0565b5b906000526020600020906004020160000154145b6113b0576040517f08c379a00000000000000000000000000000000000000000000000000000000081526004016113a79061521b565b60405180910390fd5b60066002600084815260200190815260200160002054815481106113d7576113d66151a0565b5b90600052602060002090600402016040518060800160405290816000820154815260200160018201805461140a9061516f565b80601f01602080910402602001604051908101604052809291908181526020018280546114369061516f565b80156114835780601f1061145857610100808354040283529160200191611483565b820191906000526020600020905b81548152906001019060200180831161146657829003601f168201915b50505050508152602001600282015481526020016003820160009054906101000a900473ffffffffffffffffffffffffffffffffffffffff1673ffffffffffffffffffffffffffffffffffffffff1673ffffffffffffffffffffffffffffffffffffffff16815250509050919050565b6114fb614253565b60006002600084815260200190815260200160002054141580611543575081600660008154811061152f5761152e6151a0565b5b906000526020600020906004020160000154145b611582576040517f08c379a00000000000000000000000000000000000000000000000000000000081526004016115799061521b565b60405180910390fd5b6115e360066002600085815260200190815260200160002054815481106115ac576115ab6151a0565b5b906000526020600020906004020160030160009054906101000a900473ffffffffffffffffffffffffffffffffffffffff16610d33565b9050919050565b6060600060068054905011611634576040517f08c379a000000000000000000000000000000000000000000000000000000000815260040161162b9061521b565b60405180910390fd5b6000600260008481526020019081526020016000205414158061167c5750816006600081548110611668576116676151a0565b5b906000526020600020906004020160000154145b6116bb576040517f08c379a00000000000000000000000000000000000000000000000000000000081526004016116b29061521b565b60405180910390fd5b60008060003373ffffffffffffffffffffffffffffffffffffffff1673ffffffffffffffffffffffffffffffffffffffff1681526020019081526020016000206040518060600160405290816000820160009054906101000a900473ffffffffffffffffffffffffffffffffffffffff1673ffffffffffffffffffffffffffffffffffffffff1673ffffffffffffffffffffffffffffffffffffffff16815260200160018201805461176c9061516f565b80601f01602080910402602001604051908101604052809291908181526020018280546117989061516f565b80156117e55780601f106117ba576101008083540402835291602001916117e5565b820191906000526020600020905b8154815290600101906020018083116117c857829003601f168201915b505050505081526020016002820160009054906101000a900460ff166003811115611813576118126144ea565b5b6003811115611825576118246144ea565b5b81525050905060006004600085815260200190815260200160002080548060200260200160405190810160405280929190818152602001828054801561188a57602002820191906000526020600020905b815481526020019060010190808311611876575b50505050509050600160038111156118a5576118a46144ea565b5b826040015160038111156118bc576118bb6144ea565b5b14806118f05750600260038111156118d7576118d66144ea565b5b826040015160038111156118ee576118ed6144ea565b5b145b15611c1b57600080600360003373ffffffffffffffffffffffffffffffffffffffff1673ffffffffffffffffffffffffffffffffffffffff16815260200190815260200160002080548060200260200160405190810160405280929190818152602001828054801561198157602002820191906000526020600020905b81548152602001906001019080831161196d575b5050505050905060005b81518110156119cb57868282815181106119a8576119a76151a0565b5b6020026020010151036119be57600192506119cb565b808060010191505061198b565b5081611a0c576040517f08c379a0000000000000000000000000000000000000000000000000000000008152600401611a039061591a565b60405180910390fd5b600060016003811115611a2257611a216144ea565b5b85604001516003811115611a3957611a386144ea565b5b14611a45576003611a48565b60025b60ff169050600081855110611a5d5781611a60565b84515b905060008167ffffffffffffffff811115611a7e57611a7d614746565b5b604051908082528060200260200182016040528015611ab757816020015b611aa46142da565b815260200190600190039081611a9c5790505b50905060005b82811015611c0b576007878281518110611ada57611ad96151a0565b5b602002602001015181548110611af357611af26151a0565b5b90600052602060002090600602016040518060c0016040529081600082015481526020016001820160009054906101000a900473ffffffffffffffffffffffffffffffffffffffff1673ffffffffffffffffffffffffffffffffffffffff1673ffffffffffffffffffffffffffffffffffffffff1681526020016002820160009054906101000a900473ffffffffffffffffffffffffffffffffffffffff1673ffffffffffffffffffffffffffffffffffffffff1673ffffffffffffffffffffffffffffffffffffffff1681526020016003820154815260200160048201548152602001600582015481525050828281518110611bf357611bf26151a0565b5b60200260200101819052508080600101915050611abd565b5080975050505050505050611dce565b6000815167ffffffffffffffff811115611c3857611c37614746565b5b604051908082528060200260200182016040528015611c7157816020015b611c5e6142da565b815260200190600190039081611c565790505b50905060005b8251811015611dc6576007838281518110611c9557611c946151a0565b5b602002602001015181548110611cae57611cad6151a0565b5b90600052602060002090600602016040518060c0016040529081600082015481526020016001820160009054906101000a900473ffffffffffffffffffffffffffffffffffffffff1673ffffffffffffffffffffffffffffffffffffffff1673ffffffffffffffffffffffffffffffffffffffff1681526020016002820160009054906101000a900473ffffffffffffffffffffffffffffffffffffffff1673ffffffffffffffffffffffffffffffffffffffff1673ffffffffffffffffffffffffffffffffffffffff1681526020016003820154815260200160048201548152602001600582015481525050828281518110611dae57611dad6151a0565b5b60200260200101819052508080600101915050611c77565b508093505050505b919050565b611ddb61433c565b8173ffffffffffffffffffffffffffffffffffffffff166000808473ffffffffffffffffffffffffffffffffffffffff1673ffffffffffffffffffffffffffffffffffffffff16815260200190815260200160002060000160009054906101000a900473ffffffffffffffffffffffffffffffffffffffff1673ffffffffffffffffffffffffffffffffffffffff1614611eaa576040517f08c379a0000000000000000000000000000000000000000000000000000000008152600401611ea190615986565b60405180910390fd5b6000808373ffffffffffffffffffffffffffffffffffffffff1673ffffffffffffffffffffffffffffffffffffffff1681526020019081526020016000206040518060600160405290816000820160009054906101000a900473ffffffffffffffffffffffffffffffffffffffff1673ffffffffffffffffffffffffffffffffffffffff1673ffffffffffffffffffffffffffffffffffffffff168152602001600182018054611f599061516f565b80601f0160208091040260200160405190810160405280929190818152602001828054611f859061516f565b8015611fd25780601f10611fa757610100808354040283529160200191611fd2565b820191906000526020600020905b815481529060010190602001808311611fb557829003601f168201915b505050505081526020016002820160009054906101000a900460ff16600381111561200057611fff6144ea565b5b6003811115612012576120116144ea565b5b815250509050919050565b60006020528060005260406000206000915090508060000160009054906101000a900473ffffffffffffffffffffffffffffffffffffffff16908060010180546120669061516f565b80601f01602080910402602001604051908101604052809291908181526020018280546120929061516f565b80156120df5780601f106120b4576101008083540402835291602001916120df565b820191906000526020600020905b8154815290600101906020018083116120c257829003601f168201915b5050505050908060020160009054906101000a900460ff16905083565b6000806003811115612111576121106144ea565b5b6000803373ffffffffffffffffffffffffffffffffffffffff1673ffffffffffffffffffffffffffffffffffffffff16815260200190815260200160002060020160009054906101000a900460ff166003811115612172576121716144ea565b5b146121b2576040517f08c379a00000000000000000000000000000000000000000000000000000000081526004016121a9906155c3565b60405180910390fd5b8173ffffffffffffffffffffffffffffffffffffffff166000808473ffffffffffffffffffffffffffffffffffffffff1673ffffffffffffffffffffffffffffffffffffffff16815260200190815260200160002060000160009054906101000a900473ffffffffffffffffffffffffffffffffffffffff1673ffffffffffffffffffffffffffffffffffffffff1614612281576040517f08c379a000000000000000000000000000000000000000000000000000000000815260040161227890615986565b60405180910390fd5b8173ffffffffffffffffffffffffffffffffffffffff163373ffffffffffffffffffffffffffffffffffffffff16036122ef576040517f08c379a00000000000000000000000000000000000000000000000000000000081526004016122e6906159f2565b60405180910390fd5b6000808373ffffffffffffffffffffffffffffffffffffffff1673ffffffffffffffffffffffffffffffffffffffff168152602001908152602001600020600080820160006101000a81549073ffffffffffffffffffffffffffffffffffffffff02191690556001820160006123659190614213565b6002820160006101000a81549060ff021916905550507fe9dce8c992623ce791725b21e857e33248d1f190a25b5168313420eebdaae99d826040516123aa919061564f565b60405180910390a15050565b600781815481106123c657600080fd5b90600052602060002090600602016000915090508060000154908060010160009054906101000a900473ffffffffffffffffffffffffffffffffffffffff16908060020160009054906101000a900473ffffffffffffffffffffffffffffffffffffffff16908060030154908060040154908060050154905086565b6000806003811115612457576124566144ea565b5b6000803373ffffffffffffffffffffffffffffffffffffffff1673ffffffffffffffffffffffffffffffffffffffff16815260200190815260200160002060020160009054906101000a900460ff1660038111156124b8576124b76144ea565b5b146124f8576040517f08c379a00000000000000000000000000000000000000000000000000000000081526004016124ef906155c3565b60405180910390fd5b6000600160008673ffffffffffffffffffffffffffffffffffffffff1673ffffffffffffffffffffffffffffffffffffffff1681526020019081526020016000205414801561260757506000600880549050148061260657508373ffffffffffffffffffffffffffffffffffffffff166008600160008773ffffffffffffffffffffffffffffffffffffffff1673ffffffffffffffffffffffffffffffffffffffff16815260200190815260200160002054815481106125bb576125ba6151a0565b5b906000526020600020906003020160000160009054906101000a900473ffffffffffffffffffffffffffffffffffffffff1673ffffffffffffffffffffffffffffffffffffffff1614155b5b612646576040517f08c379a000000000000000000000000000000000000000000000000000000000815260040161263d90615a5e565b60405180910390fd5b8373ffffffffffffffffffffffffffffffffffffffff166000808673ffffffffffffffffffffffffffffffffffffffff1673ffffffffffffffffffffffffffffffffffffffff16815260200190815260200160002060000160009054906101000a900473ffffffffffffffffffffffffffffffffffffffff1673ffffffffffffffffffffffffffffffffffffffff16036128f75760008060008673ffffffffffffffffffffffffffffffffffffffff1673ffffffffffffffffffffffffffffffffffffffff16815260200190815260200160002060020160009054906101000a900460ff16905060016003811115612741576127406144ea565b5b816003811115612754576127536144ea565b5b036127c5576000600581111561276d5761276c6144ea565b5b8360058111156127805761277f6144ea565b5b146127c0576040517f08c379a00000000000000000000000000000000000000000000000000000000081526004016127b790615af0565b60405180910390fd5b6128f5565b600260038111156127d9576127d86144ea565b5b8160038111156127ec576127eb6144ea565b5b0361285d5760036005811115612805576128046144ea565b5b836005811115612818576128176144ea565b5b14612858576040517f08c379a000000000000000000000000000000000000000000000000000000000815260040161284f90615b82565b60405180910390fd5b6128f4565b60006003811115612871576128706144ea565b5b816003811115612884576128836144ea565b5b14806128b3575060038081111561289e5761289d6144ea565b5b8160038111156128b1576128b06144ea565b5b145b156128f3576040517f08c379a00000000000000000000000000000000000000000000000000000000081526004016128ea90615c14565b60405180910390fd5b5b5b505b600060405180606001604052808673ffffffffffffffffffffffffffffffffffffffff168152602001858152602001846005811115612939576129386144ea565b5b8152509050600880549050600160008773ffffffffffffffffffffffffffffffffffffffff1673ffffffffffffffffffffffffffffffffffffffff16815260200190815260200160002081905550600881908060018154018082558091505060019003906000526020600020906003020160009091909190915060008201518160000160006101000a81548173ffffffffffffffffffffffffffffffffffffffff021916908373ffffffffffffffffffffffffffffffffffffffff1602179055506020820151816001019081612a0f91906157d6565b5060408201518160020160006101000a81548160ff02191690836005811115612a3b57612a3a6144ea565b5b021790555050507f5e1452cfc728689895f5ea99ed4bb90292b01d5fd117e480c94cddb4e1f5d5ef816000015182602001518360400151604051612a8193929190614561565b60405180910390a15050505050565b60606007805480602002602001604051908101604052809291908181526020016000905b82821015612bba57838290600052602060002090600602016040518060c0016040529081600082015481526020016001820160009054906101000a900473ffffffffffffffffffffffffffffffffffffffff1673ffffffffffffffffffffffffffffffffffffffff1673ffffffffffffffffffffffffffffffffffffffff1681526020016002820160009054906101000a900473ffffffffffffffffffffffffffffffffffffffff1673ffffffffffffffffffffffffffffffffffffffff1673ffffffffffffffffffffffffffffffffffffffff168152602001600382015481526020016004820154815260200160058201548152505081526020019060010190612ab4565b50505050905090565b606060016003811115612bd957612bd86144ea565b5b6000803373ffffffffffffffffffffffffffffffffffffffff1673ffffffffffffffffffffffffffffffffffffffff16815260200190815260200160002060020160009054906101000a900460ff166003811115612c3a57612c396144ea565b5b1480612cb8575060026003811115612c5557612c546144ea565b5b6000803373ffffffffffffffffffffffffffffffffffffffff1673ffffffffffffffffffffffffffffffffffffffff16815260200190815260200160002060020160009054906101000a900460ff166003811115612cb657612cb56144ea565b5b145b15612f70576000600360003373ffffffffffffffffffffffffffffffffffffffff1673ffffffffffffffffffffffffffffffffffffffff1681526020019081526020016000208054905067ffffffffffffffff811115612d1b57612d1a614746565b5b604051908082528060200260200182016040528015612d5457816020015b612d4161429c565b815260200190600190039081612d395790505b50905060005b600360003373ffffffffffffffffffffffffffffffffffffffff1673ffffffffffffffffffffffffffffffffffffffff16815260200190815260200160002080549050811015612f6657600660026000600360003373ffffffffffffffffffffffffffffffffffffffff1673ffffffffffffffffffffffffffffffffffffffff1681526020019081526020016000208481548110612dfb57612dfa6151a0565b5b906000526020600020015481526020019081526020016000205481548110612e2657612e256151a0565b5b906000526020600020906004020160405180608001604052908160008201548152602001600182018054612e599061516f565b80601f0160208091040260200160405190810160405280929190818152602001828054612e859061516f565b8015612ed25780601f10612ea757610100808354040283529160200191612ed2565b820191906000526020600020905b815481529060010190602001808311612eb557829003601f168201915b50505050508152602001600282015481526020016003820160009054906101000a900473ffffffffffffffffffffffffffffffffffffffff1673ffffffffffffffffffffffffffffffffffffffff1673ffffffffffffffffffffffffffffffffffffffff1681525050828281518110612f4e57612f4d6151a0565b5b60200260200101819052508080600101915050612d5a565b50809150506130c7565b6006805480602002602001604051908101604052809291908181526020016000905b828210156130c0578382906000526020600020906004020160405180608001604052908160008201548152602001600182018054612fcf9061516f565b80601f0160208091040260200160405190810160405280929190818152602001828054612ffb9061516f565b80156130485780601f1061301d57610100808354040283529160200191613048565b820191906000526020600020905b81548152906001019060200180831161302b57829003601f168201915b50505050508152602001600282015481526020016003820160009054906101000a900473ffffffffffffffffffffffffffffffffffffffff1673ffffffffffffffffffffffffffffffffffffffff1673ffffffffffffffffffffffffffffffffffffffff168152505081526020019060010190612f92565b5050505090505b90565b80421061310c576040517f08c379a000000000000000000000000000000000000000000000000000000000815260040161310390615ca6565b60405180910390fd5b6000600260008481526020019081526020016000205490506000811415806131595750826006600081548110613145576131446151a0565b5b906000526020600020906004020160000154145b613198576040517f08c379a000000000000000000000000000000000000000000000000000000000815260040161318f9061521b565b60405180910390fd5b6000600160008673ffffffffffffffffffffffffffffffffffffffff1673ffffffffffffffffffffffffffffffffffffffff1681526020019081526020016000205490506008805490508110801561326057508473ffffffffffffffffffffffffffffffffffffffff1660088281548110613216576132156151a0565b5b906000526020600020906003020160000160009054906101000a900473ffffffffffffffffffffffffffffffffffffffff1673ffffffffffffffffffffffffffffffffffffffff16145b61329f576040517f08c379a00000000000000000000000000000000000000000000000000000000081526004016132969061562f565b60405180910390fd5b6000600683815481106132b5576132b46151a0565b5b9060005260206000209060040201604051806080016040529081600082015481526020016001820180546132e89061516f565b80601f01602080910402602001604051908101604052809291908181526020018280546133149061516f565b80156133615780601f1061333657610100808354040283529160200191613361565b820191906000526020600020905b81548152906001019060200180831161334457829003601f168201915b50505050508152602001600282015481526020016003820160009054906101000a900473ffffffffffffffffffffffffffffffffffffffff1673ffffffffffffffffffffffffffffffffffffffff1673ffffffffffffffffffffffffffffffffffffffff16815250509050600060016000836060015173ffffffffffffffffffffffffffffffffffffffff1673ffffffffffffffffffffffffffffffffffffffff16815260200190815260200160002054905060006008848154811061342a576134296151a0565b5b906000526020600020906003020160020160009054906101000a900460ff16600581111561345b5761345a6144ea565b5b1180156134fb5750600160088481548110613479576134786151a0565b5b906000526020600020906003020160020160009054906101000a900460ff1660058111156134aa576134a96144ea565b5b6134b4919061526a565b600882815481106134c8576134c76151a0565b5b906000526020600020906003020160020160009054906101000a900460ff1660058111156134f9576134f86144ea565b5b145b61353a576040517f08c379a000000000000000000000000000000000000000000000000000000000815260040161353190615d12565b60405180910390fd5b60006040518060c001604052806007805490508152602001846060015173ffffffffffffffffffffffffffffffffffffffff1681526020018973ffffffffffffffffffffffffffffffffffffffff1681526020014281526020018781526020018881525090506004600088815260200190815260200160002081600001519080600181540180825580915050600190039060005260206000200160009091909190915055600360058111156135f2576135f16144ea565b5b60088581548110613606576136056151a0565b5b906000526020600020906003020160020160009054906101000a900460ff166005811115613637576136366144ea565b5b036136a357600360008973ffffffffffffffffffffffffffffffffffffffff1673ffffffffffffffffffffffffffffffffffffffff1681526020019081526020016000208790806001815401808255809150506001900390600052602060002001600090919091909150555b87600686815481106136b8576136b76151a0565b5b906000526020600020906004020160030160006101000a81548173ffffffffffffffffffffffffffffffffffffffff021916908373ffffffffffffffffffffffffffffffffffffffff16021790555060078190806001815401808255809150506001900390600052602060002090600602016000909190919091506000820151816000015560208201518160010160006101000a81548173ffffffffffffffffffffffffffffffffffffffff021916908373ffffffffffffffffffffffffffffffffffffffff16021790555060408201518160020160006101000a81548173ffffffffffffffffffffffffffffffffffffffff021916908373ffffffffffffffffffffffffffffffffffffffff160217905550606082015181600301556080820151816004015560a0820151816005015550507f876644f605c09f137e642a100ea79c3ff90507acc401482bbca37fd22ba292cc816000015182602001518360400151846060015185608001518660a0015160405161383c96959493929190614bc7565b60405180910390a15050505050505050565b6000806003811115613863576138626144ea565b5b6000803373ffffffffffffffffffffffffffffffffffffffff1673ffffffffffffffffffffffffffffffffffffffff16815260200190815260200160002060020160009054906101000a900460ff1660038111156138c4576138c36144ea565b5b14613904576040517f08c379a00000000000000000000000000000000000000000000000000000000081526004016138fb906155c3565b60405180910390fd5b8173ffffffffffffffffffffffffffffffffffffffff166000808473ffffffffffffffffffffffffffffffffffffffff1673ffffffffffffffffffffffffffffffffffffffff16815260200190815260200160002060000160009054906101000a900473ffffffffffffffffffffffffffffffffffffffff1673ffffffffffffffffffffffffffffffffffffffff16036139d3576040517f08c379a00000000000000000000000000000000000000000000000000000000081526004016139ca90615d7e565b60405180910390fd5b6000600160008473ffffffffffffffffffffffffffffffffffffffff1673ffffffffffffffffffffffffffffffffffffffff16815260200190815260200160002054905060088054905081108015613a9b57508273ffffffffffffffffffffffffffffffffffffffff1660088281548110613a5157613a506151a0565b5b906000526020600020906003020160000160009054906101000a900473ffffffffffffffffffffffffffffffffffffffff1673ffffffffffffffffffffffffffffffffffffffff16145b15613ca457600060088281548110613ab657613ab56151a0565b5b906000526020600020906003020160020160009054906101000a900460ff16905060006005811115613aeb57613aea6144ea565b5b816005811115613afe57613afd6144ea565b5b03613b6f5760016003811115613b1757613b166144ea565b5b856003811115613b2a57613b296144ea565b5b14613b6a576040517f08c379a0000000000000000000000000000000000000000000000000000000008152600401613b6190615e10565b60405180910390fd5b613ca2565b60036005811115613b8357613b826144ea565b5b816005811115613b9657613b956144ea565b5b03613c075760026003811115613baf57613bae6144ea565b5b856003811115613bc257613bc16144ea565b5b14613c02576040517f08c379a0000000000000000000000000000000000000000000000000000000008152600401613bf990615ea2565b60405180910390fd5b613ca1565b60016003811115613c1b57613c1a6144ea565b5b856003811115613c2e57613c2d6144ea565b5b14158015613c61575060026003811115613c4b57613c4a6144ea565b5b856003811115613c5e57613c5d6144ea565b5b14155b613ca0576040517f08c379a0000000000000000000000000000000000000000000000000000000008152600401613c9790615f0e565b60405180910390fd5b5b5b505b600060405180606001604052808573ffffffffffffffffffffffffffffffffffffffff168152602001878152602001866003811115613ce657613ce56144ea565b5b8152509050806000808673ffffffffffffffffffffffffffffffffffffffff1673ffffffffffffffffffffffffffffffffffffffff16815260200190815260200160002060008201518160000160006101000a81548173ffffffffffffffffffffffffffffffffffffffff021916908373ffffffffffffffffffffffffffffffffffffffff1602179055506020820151816001019081613d8691906157d6565b5060408201518160020160006101000a81548160ff02191690836003811115613db257613db16144ea565b5b02179055509050507f4734c94d88f62c0881093b87207fd9c5d0cbcab7ea0cf7f07370a2952c2f8d60816000015182602001518360400151604051613df993929190614b89565b60405180910390a1505050505050565b60016020528060005260406000206000915090505481565b60606008805480602002602001604051908101604052809291908181526020016000905b82821015613f9a57838290600052602060002090600302016040518060600160405290816000820160009054906101000a900473ffffffffffffffffffffffffffffffffffffffff1673ffffffffffffffffffffffffffffffffffffffff1673ffffffffffffffffffffffffffffffffffffffff168152602001600182018054613ece9061516f565b80601f0160208091040260200160405190810160405280929190818152602001828054613efa9061516f565b8015613f475780601f10613f1c57610100808354040283529160200191613f47565b820191906000526020600020905b815481529060010190602001808311613f2a57829003601f168201915b505050505081526020016002820160009054906101000a900460ff166005811115613f7557613f746144ea565b5b6005811115613f8757613f866144ea565b5b8152505081526020019060010190613e45565b50505050905090565b60068181548110613fb357600080fd5b9060005260206000209060040201600091509050806000015490806001018054613fdc9061516f565b80601f01602080910402602001604051908101604052809291908181526020018280546140089061516f565b80156140555780601f1061402a57610100808354040283529160200191614055565b820191906000526020600020905b81548152906001019060200180831161403857829003601f168201915b5050505050908060020154908060030160009054906101000a900473ffffffffffffffffffffffffffffffffffffffff16905084565b600360205281600052604060002081815481106140a757600080fd5b90600052602060002001600091509150505481565b6140c46142da565b600780549050821061410b576040517f08c379a000000000000000000000000000000000000000000000000000000000815260040161410290615f7a565b60405180910390fd5b6007828154811061411f5761411e6151a0565b5b90600052602060002090600602016040518060c0016040529081600082015481526020016001820160009054906101000a900473ffffffffffffffffffffffffffffffffffffffff1673ffffffffffffffffffffffffffffffffffffffff1673ffffffffffffffffffffffffffffffffffffffff1681526020016002820160009054906101000a900473ffffffffffffffffffffffffffffffffffffffff1673ffffffffffffffffffffffffffffffffffffffff1673ffffffffffffffffffffffffffffffffffffffff16815260200160038201548152602001600482015481526020016005820154815250509050919050565b50805461421f9061516f565b6000825580601f106142315750614250565b601f01602090049060005260206000209081019061424f9190614385565b5b50565b6040518060600160405280600073ffffffffffffffffffffffffffffffffffffffff1681526020016060815260200160006005811115614296576142956144ea565b5b81525090565b6040518060800160405280600081526020016060815260200160008152602001600073ffffffffffffffffffffffffffffffffffffffff1681525090565b6040518060c0016040528060008152602001600073ffffffffffffffffffffffffffffffffffffffff168152602001600073ffffffffffffffffffffffffffffffffffffffff1681526020016000815260200160008152602001600081525090565b6040518060600160405280600073ffffffffffffffffffffffffffffffffffffffff168152602001606081526020016000600381111561437f5761437e6144ea565b5b81525090565b5b8082111561439e576000816000905550600101614386565b5090565b6000604051905090565b600080fd5b600080fd5b6000819050919050565b6143c9816143b6565b81146143d457600080fd5b50565b6000813590506143e6816143c0565b92915050565b600060208284031215614402576144016143ac565b5b6000614410848285016143d7565b91505092915050565b600073ffffffffffffffffffffffffffffffffffffffff82169050919050565b600061444482614419565b9050919050565b61445481614439565b82525050565b600081519050919050565b600082825260208201905092915050565b60005b83811015614494578082015181840152602081019050614479565b60008484015250505050565b6000601f19601f8301169050919050565b60006144bc8261445a565b6144c68185614465565b93506144d6818560208601614476565b6144df816144a0565b840191505092915050565b7f4e487b7100000000000000000000000000000000000000000000000000000000600052602160045260246000fd5b6006811061452a576145296144ea565b5b50565b600081905061453b82614519565b919050565b600061454b8261452d565b9050919050565b61455b81614540565b82525050565b6000606082019050614576600083018661444b565b818103602083015261458881856144b1565b90506145976040830184614552565b949350505050565b600080604083850312156145b6576145b56143ac565b5b60006145c4858286016143d7565b92505060206145d5858286016143d7565b9150509250929050565b6145e8816143b6565b82525050565b600060208201905061460360008301846145df565b92915050565b61461281614439565b811461461d57600080fd5b50565b60008135905061462f81614609565b92915050565b60006020828403121561464b5761464a6143ac565b5b600061465984828501614620565b91505092915050565b61466b81614439565b82525050565b600082825260208201905092915050565b600061468d8261445a565b6146978185614671565b93506146a7818560208601614476565b6146b0816144a0565b840191505092915050565b6146c481614540565b82525050565b60006060830160008301516146e26000860182614662565b50602083015184820360208601526146fa8282614682565b915050604083015161470f60408601826146bb565b508091505092915050565b6000602082019050818103600083015261473481846146ca565b905092915050565b600080fd5b600080fd5b7f4e487b7100000000000000000000000000000000000000000000000000000000600052604160045260246000fd5b61477e826144a0565b810181811067ffffffffffffffff8211171561479d5761479c614746565b5b80604052505050565b60006147b06143a2565b90506147bc8282614775565b919050565b600067ffffffffffffffff8211156147dc576147db614746565b5b6147e5826144a0565b9050602081019050919050565b82818337600083830152505050565b600061481461480f846147c1565b6147a6565b9050828152602081018484840111156148305761482f614741565b5b61483b8482856147f2565b509392505050565b600082601f8301126148585761485761473c565b5b8135614868848260208601614801565b91505092915050565b60008060006060848603121561488a576148896143ac565b5b600084013567ffffffffffffffff8111156148a8576148a76143b1565b5b6148b486828701614843565b93505060206148c5868287016143d7565b92505060406148d686828701614620565b9150509250925092565b6148e9816143b6565b82525050565b600060808301600083015161490760008601826148e0565b506020830151848203602086015261491f8282614682565b915050604083015161493460408601826148e0565b5060608301516149476060860182614662565b508091505092915050565b6000602082019050818103600083015261496c81846148ef565b905092915050565b600081519050919050565b600082825260208201905092915050565b6000819050602082019050919050565b60c0820160008201516149b660008501826148e0565b5060208201516149c96020850182614662565b5060408201516149dc6040850182614662565b5060608201516149ef60608501826148e0565b506080820151614a0260808501826148e0565b5060a0820151614a1560a08501826148e0565b50505050565b6000614a2783836149a0565b60c08301905092915050565b6000602082019050919050565b6000614a4b82614974565b614a55818561497f565b9350614a6083614990565b8060005b83811015614a91578151614a788882614a1b565b9750614a8383614a33565b925050600181019050614a64565b5085935050505092915050565b60006020820190508181036000830152614ab88184614a40565b905092915050565b60048110614ad157614ad06144ea565b5b50565b6000819050614ae282614ac0565b919050565b6000614af282614ad4565b9050919050565b614b0281614ae7565b82525050565b6000606083016000830151614b206000860182614662565b5060208301518482036020860152614b388282614682565b9150506040830151614b4d6040860182614af9565b508091505092915050565b60006020820190508181036000830152614b728184614b08565b905092915050565b614b8381614ae7565b82525050565b6000606082019050614b9e600083018661444b565b8181036020830152614bb081856144b1565b9050614bbf6040830184614b7a565b949350505050565b600060c082019050614bdc60008301896145df565b614be9602083018861444b565b614bf6604083018761444b565b614c0360608301866145df565b614c1060808301856145df565b614c1d60a08301846145df565b979650505050505050565b60068110614c3557600080fd5b50565b600081359050614c4781614c28565b92915050565b600080600060608486031215614c6657614c656143ac565b5b6000614c7486828701614620565b935050602084013567ffffffffffffffff811115614c9557614c946143b1565b5b614ca186828701614843565b9250506040614cb286828701614c38565b9150509250925092565b600081519050919050565b600082825260208201905092915050565b6000819050602082019050919050565b6000608083016000830151614d0060008601826148e0565b5060208301518482036020860152614d188282614682565b9150506040830151614d2d60408601826148e0565b506060830151614d406060860182614662565b508091505092915050565b6000614d578383614ce8565b905092915050565b6000602082019050919050565b6000614d7782614cbc565b614d818185614cc7565b935083602082028501614d9385614cd8565b8060005b85811015614dcf5784840389528151614db08582614d4b565b9450614dbb83614d5f565b925060208a01995050600181019050614d97565b50829750879550505050505092915050565b60006020820190508181036000830152614dfb8184614d6c565b905092915050565b600080600060608486031215614e1c57614e1b6143ac565b5b6000614e2a86828701614620565b9350506020614e3b868287016143d7565b9250506040614e4c868287016143d7565b9150509250925092565b60048110614e6357600080fd5b50565b600081359050614e7581614e56565b92915050565b600080600060608486031215614e9457614e936143ac565b5b600084013567ffffffffffffffff811115614eb257614eb16143b1565b5b614ebe86828701614843565b9350506020614ecf86828701614e66565b9250506040614ee086828701614620565b9150509250925092565b600081519050919050565b600082825260208201905092915050565b6000819050602082019050919050565b6000606083016000830151614f2e6000860182614662565b5060208301518482036020860152614f468282614682565b9150506040830151614f5b60408601826146bb565b508091505092915050565b6000614f728383614f16565b905092915050565b6000602082019050919050565b6000614f9282614eea565b614f9c8185614ef5565b935083602082028501614fae85614f06565b8060005b85811015614fea5784840389528151614fcb8582614f66565b9450614fd683614f7a565b925060208a01995050600181019050614fb2565b50829750879550505050505092915050565b600060208201905081810360008301526150168184614f87565b905092915050565b600060808201905061503360008301876145df565b818103602083015261504581866144b1565b905061505460408301856145df565b615061606083018461444b565b95945050505050565b60008060408385031215615081576150806143ac565b5b600061508f85828601614620565b92505060206150a0858286016143d7565b9150509250929050565b60c0820160008201516150c060008501826148e0565b5060208201516150d36020850182614662565b5060408201516150e66040850182614662565b5060608201516150f960608501826148e0565b50608082015161510c60808501826148e0565b5060a082015161511f60a08501826148e0565b50505050565b600060c08201905061513a60008301846150aa565b92915050565b7f4e487b7100000000000000000000000000000000000000000000000000000000600052602260045260246000fd5b6000600282049050600182168061518757607f821691505b60208210810361519a57615199615140565b5b50919050565b7f4e487b7100000000000000000000000000000000000000000000000000000000600052603260045260246000fd5b7f50726f6475637420646f6573206e6f7420657869737421000000000000000000600082015250565b6000615205601783614465565b9150615210826151cf565b602082019050919050565b60006020820190508181036000830152615234816151f8565b9050919050565b7f4e487b7100000000000000000000000000000000000000000000000000000000600052601160045260246000fd5b6000615275826143b6565b9150615280836143b6565b92508282039050818111156152985761529761523b565b5b92915050565b6000815490506152ad8161516f565b9050919050565b60008190508160005260206000209050919050565b60006020601f8301049050919050565b600082821b905092915050565b6000600883026153167fffffffffffffffffffffffffffffffffffffffffffffffffffffffffffffffff826152d9565b61532086836152d9565b95508019841693508086168417925050509392505050565b6000819050919050565b600061535d615358615353846143b6565b615338565b6143b6565b9050919050565b6000819050919050565b61537783615342565b61538b61538382615364565b8484546152e6565b825550505050565b600090565b6153a0615393565b6153ab81848461536e565b505050565b5b818110156153cf576153c4600082615398565b6001810190506153b1565b5050565b601f821115615414576153e5816152b4565b6153ee846152c9565b810160208510156153fd578190505b615411615409856152c9565b8301826153b0565b50505b505050565b600082821c905092915050565b600061543760001984600802615419565b1980831691505092915050565b60006154508383615426565b9150826002028217905092915050565b81810361546e575050615546565b6154778261529e565b67ffffffffffffffff8111156154905761548f614746565b5b61549a825461516f565b6154a58282856153d3565b6000601f8311600181146154d457600084156154c2578287015490505b6154cc8582615444565b86555061553f565b601f1984166154e2876152b4565b96506154ed866152b4565b60005b82811015615515578489015482556001820191506001850194506020810190506154f0565b86831015615532578489015461552e601f891682615426565b8355505b6001600288020188555050505b5050505050505b565b7f4e487b7100000000000000000000000000000000000000000000000000000000600052603160045260246000fd5b7f4e6f7420617574686f72697a6564000000000000000000000000000000000000600082015250565b60006155ad600e83614465565b91506155b882615577565b602082019050919050565b600060208201905081810360008301526155dc816155a0565b9050919050565b7f456e7469747920646f6573206e6f742065786973742100000000000000000000600082015250565b6000615619601683614465565b9150615624826155e3565b602082019050919050565b600060208201905081810360008301526156488161560c565b9050919050565b6000602082019050615664600083018461444b565b92915050565b7f43616e6e6f74206372656174652070726f64756374206265636175736520456e60008201527f7469747920646f6573206e6f7420657869737421000000000000000000000000602082015250565b60006156c6603483614465565b91506156d18261566a565b604082019050919050565b600060208201905081810360008301526156f5816156b9565b9050919050565b7f43616e6e6f74206372656174652070726f64756374206265636175736520456e60008201527f74697479206973206e6f74206120537570706c69657221000000000000000000602082015250565b6000615758603783614465565b9150615763826156fc565b604082019050919050565b600060208201905081810360008301526157878161574b565b9050919050565b6000615799826143b6565b91507fffffffffffffffffffffffffffffffffffffffffffffffffffffffffffffffff82036157cb576157ca61523b565b5b600182019050919050565b6157df8261445a565b67ffffffffffffffff8111156157f8576157f7614746565b5b615802825461516f565b61580d8282856153d3565b600060209050601f831160018114615840576000841561582e578287015190505b6158388582615444565b8655506158a0565b601f19841661584e866152b4565b60005b8281101561587657848901518255600182019150602085019450602081019050615851565b86831015615893578489015161588f601f891682615426565b8355505b6001600288020188555050505b505050505050565b7f50726f6475637420646f6573206e6f742062656c6f6e6720746f20746865207560008201527f7365720000000000000000000000000000000000000000000000000000000000602082015250565b6000615904602383614465565b915061590f826158a8565b604082019050919050565b60006020820190508181036000830152615933816158f7565b9050919050565b7f5573657220646f6573206e6f7420657869737421000000000000000000000000600082015250565b6000615970601483614465565b915061597b8261593a565b602082019050919050565b6000602082019050818103600083015261599f81615963565b9050919050565b7f41646d696e2063616e27742072656d6f76652068696d73656c66210000000000600082015250565b60006159dc601b83614465565b91506159e7826159a6565b602082019050919050565b60006020820190508181036000830152615a0b816159cf565b9050919050565b7f456e7469747920616c7265616479206578697374732100000000000000000000600082015250565b6000615a48601683614465565b9150615a5382615a12565b602082019050919050565b60006020820190508181036000830152615a7781615a3b565b9050919050565b7f456e746974792074797065206d75737420626520537570706c69657220666f7260008201527f20537570706c69657220726f6c65000000000000000000000000000000000000602082015250565b6000615ada602e83614465565b9150615ae582615a7e565b604082019050919050565b60006020820190508181036000830152615b0981615acd565b9050919050565b7f456e746974792074797065206d7573742062652057617265686f757365204c6f60008201527f67697374696320666f72204c6f67697374696320726f6c650000000000000000602082015250565b6000615b6c603883614465565b9150615b7782615b10565b604082019050919050565b60006020820190508181036000830152615b9b81615b5f565b9050919050565b7f43616e6e6f742063726561746520656e7469747920776974682041646d696e2060008201527f6f722041756469746f7220726f6c652061646472657373000000000000000000602082015250565b6000615bfe603783614465565b9150615c0982615ba2565b604082019050919050565b60006020820190508181036000830152615c2d81615bf1565b9050919050565b7f45787065637465642064617465206f66206172726976616c2073686f756c642060008201527f62652061667465722064617465206f6620646570617274757265210000000000602082015250565b6000615c90603b83614465565b9150615c9b82615c34565b604082019050919050565b60006020820190508181036000830152615cbf81615c83565b9050919050565b7f57726f6e672064657374696e6174696f6e210000000000000000000000000000600082015250565b6000615cfc601283614465565b9150615d0782615cc6565b602082019050919050565b60006020820190508181036000830152615d2b81615cef565b9050919050565b7f5573657220616c72656164792065786973747300000000000000000000000000600082015250565b6000615d68601383614465565b9150615d7382615d32565b602082019050919050565b60006020820190508181036000830152615d9781615d5b565b9050919050565b7f5573657220726f6c65206d75737420626520537570706c69657220666f72205360008201527f7570706c69657220656e74697479000000000000000000000000000000000000602082015250565b6000615dfa602e83614465565b9150615e0582615d9e565b604082019050919050565b60006020820190508181036000830152615e2981615ded565b9050919050565b7f5573657220726f6c65206d757374206265204c6f67697374696320666f72205760008201527f617265686f757365204c6f67697374696320656e746974790000000000000000602082015250565b6000615e8c603883614465565b9150615e9782615e30565b604082019050919050565b60006020820190508181036000830152615ebb81615e7f565b9050919050565b7f496e76616c696420726f6c6520666f72207468697320656e7469747900000000600082015250565b6000615ef8601c83614465565b9150615f0382615ec2565b602082019050919050565b60006020820190508181036000830152615f2781615eeb565b9050919050565b7f536869706d656e7420646f6573206e6f74206578697374210000000000000000600082015250565b6000615f64601883614465565b9150615f6f82615f2e565b602082019050919050565b60006020820190508181036000830152615f9381615f57565b905091905056fea2646970667358221220b84d9e69441ccbf17498ace49e49cc42c6db5201340f269c90661eb08e0a23d364736f6c63430008180033",
  "linkReferences": {},
  "deployedLinkReferences": {}
}