{
  "_format": "hh-sol-artifact-1",
  "contractName": "Pharmacy",
  "sourceName": "contracts/Pharmacy.sol",
  "abi": [
    {
      "inputs": [],
      "stateMutability": "nonpayable",
      "type": "constructor"
    },
    {
      "anonymous": false,
      "inputs": [
        {
          "indexed": false,
          "internalType": "uint256",
          "name": "id",
          "type": "uint256"
        },
        {
          "indexed": false,
          "internalType": "string",
          "name": "name",
          "type": "string"
        },
        {
          "indexed": false,
          "internalType": "uint256",
          "name": "quantity",
          "type": "uint256"
        },
        {
          "indexed": false,
          "internalType": "address",
          "name": "currentScEntity",
          "type": "address"
        }
      ],
      "name": "ProductCreated",
      "type": "event"
    },
    {
      "anonymous": false,
      "inputs": [
        {
          "indexed": false,
          "internalType": "uint256",
          "name": "id",
          "type": "uint256"
        }
      ],
      "name": "ProductRemoved",
      "type": "event"
    },
    {
      "anonymous": false,
      "inputs": [
        {
          "indexed": false,
          "internalType": "address",
          "name": "entity_address",
          "type": "address"
        },
        {
          "indexed": false,
          "internalType": "string",
          "name": "name",
          "type": "string"
        },
        {
          "indexed": false,
          "internalType": "enum Pharmacy.EntityType",
          "name": "entity_type",
          "type": "uint8"
        }
      ],
      "name": "ScEntityCreated",
      "type": "event"
    },
    {
      "anonymous": false,
      "inputs": [
        {
          "indexed": false,
          "internalType": "address",
          "name": "entity_address",
          "type": "address"
        }
      ],
      "name": "ScEntityRemoved",
      "type": "event"
    },
    {
      "anonymous": false,
      "inputs": [
        {
          "indexed": false,
          "internalType": "uint256",
          "name": "shipment_id",
          "type": "uint256"
        },
        {
          "indexed": false,
          "internalType": "address",
          "name": "origin",
          "type": "address"
        },
        {
          "indexed": false,
          "internalType": "address",
          "name": "destination",
          "type": "address"
        },
        {
          "indexed": false,
          "internalType": "uint256",
          "name": "date_of_departure",
          "type": "uint256"
        },
        {
          "indexed": false,
          "internalType": "uint256",
          "name": "expected_date_of_arrival",
          "type": "uint256"
        },
        {
          "indexed": false,
          "internalType": "uint256",
          "name": "product_id",
          "type": "uint256"
        }
      ],
      "name": "ShipmentCreated",
      "type": "event"
    },
    {
      "anonymous": false,
      "inputs": [
        {
          "indexed": false,
          "internalType": "address",
          "name": "user_address",
          "type": "address"
        },
        {
          "indexed": false,
          "internalType": "string",
          "name": "name",
          "type": "string"
        },
        {
          "indexed": false,
          "internalType": "enum Pharmacy.Role",
          "name": "role",
          "type": "uint8"
        }
      ],
      "name": "UserCreated",
      "type": "event"
    },
    {
      "anonymous": false,
      "inputs": [
        {
          "indexed": false,
          "internalType": "address",
          "name": "user_address",
          "type": "address"
        }
      ],
      "name": "UserRemoved",
      "type": "event"
    },
    {
      "inputs": [
        {
          "internalType": "address",
          "name": "entity_address",
          "type": "address"
        },
        {
          "internalType": "string",
          "name": "name",
          "type": "string"
        },
        {
          "internalType": "enum Pharmacy.EntityType",
          "name": "entity_type",
          "type": "uint8"
        }
      ],
      "name": "create_ScEntity",
      "outputs": [],
      "stateMutability": "nonpayable",
      "type": "function"
    },
    {
      "inputs": [
        {
          "internalType": "string",
          "name": "name",
          "type": "string"
        },
        {
          "internalType": "uint256",
          "name": "quantity",
          "type": "uint256"
        },
        {
          "internalType": "address",
          "name": "currentScEntity",
          "type": "address"
        }
      ],
      "name": "create_product",
      "outputs": [],
      "stateMutability": "nonpayable",
      "type": "function"
    },
    {
      "inputs": [
        {
          "internalType": "address",
          "name": "destination",
          "type": "address"
        },
        {
          "internalType": "uint256",
          "name": "product_id",
          "type": "uint256"
        },
        {
          "internalType": "uint256",
          "name": "expected_date_of_arrival",
          "type": "uint256"
        }
      ],
      "name": "create_shipment",
      "outputs": [],
      "stateMutability": "nonpayable",
      "type": "function"
    },
    {
      "inputs": [
        {
          "internalType": "string",
          "name": "name",
          "type": "string"
        },
        {
          "internalType": "enum Pharmacy.Role",
          "name": "role",
          "type": "uint8"
        },
        {
          "internalType": "address",
          "name": "user_address",
          "type": "address"
        }
      ],
      "name": "create_user",
      "outputs": [],
      "stateMutability": "nonpayable",
      "type": "function"
    },
    {
      "inputs": [
        {
          "internalType": "address",
          "name": "",
          "type": "address"
        },
        {
          "internalType": "uint256",
          "name": "",
          "type": "uint256"
        }
      ],
      "name": "entities_products",
      "outputs": [
        {
          "internalType": "uint256",
          "name": "",
          "type": "uint256"
        }
      ],
      "stateMutability": "view",
      "type": "function"
    },
    {
      "inputs": [],
      "name": "get_ScEntities",
      "outputs": [
        {
          "components": [
            {
              "internalType": "address",
              "name": "entity_address",
              "type": "address"
            },
            {
              "internalType": "string",
              "name": "name",
              "type": "string"
            },
            {
              "internalType": "enum Pharmacy.EntityType",
              "name": "entity_type",
              "type": "uint8"
            }
          ],
          "internalType": "struct Pharmacy.ScEntity[]",
          "name": "",
          "type": "tuple[]"
        }
      ],
      "stateMutability": "view",
      "type": "function"
    },
    {
      "inputs": [
        {
          "internalType": "address",
          "name": "entity_address",
          "type": "address"
        }
      ],
      "name": "get_ScEntity",
      "outputs": [
        {
          "components": [
            {
              "internalType": "address",
              "name": "entity_address",
              "type": "address"
            },
            {
              "internalType": "string",
              "name": "name",
              "type": "string"
            },
            {
              "internalType": "enum Pharmacy.EntityType",
              "name": "entity_type",
              "type": "uint8"
            }
          ],
          "internalType": "struct Pharmacy.ScEntity",
          "name": "",
          "type": "tuple"
        }
      ],
      "stateMutability": "view",
      "type": "function"
    },
    {
      "inputs": [
        {
          "internalType": "uint256",
          "name": "id",
          "type": "uint256"
        }
      ],
      "name": "get_product",
      "outputs": [
        {
          "components": [
            {
              "internalType": "uint256",
              "name": "id",
              "type": "uint256"
            },
            {
              "internalType": "string",
              "name": "name",
              "type": "string"
            },
            {
              "internalType": "uint256",
              "name": "quantity",
              "type": "uint256"
            },
            {
              "internalType": "address",
              "name": "currentScEntity",
              "type": "address"
            }
          ],
          "internalType": "struct Pharmacy.Product",
          "name": "",
          "type": "tuple"
        }
      ],
      "stateMutability": "view",
      "type": "function"
    },
    {
      "inputs": [
        {
          "internalType": "uint256",
          "name": "id",
          "type": "uint256"
        }
      ],
      "name": "get_product_entity",
      "outputs": [
        {
          "components": [
            {
              "internalType": "address",
              "name": "entity_address",
              "type": "address"
            },
            {
              "internalType": "string",
              "name": "name",
              "type": "string"
            },
            {
              "internalType": "enum Pharmacy.EntityType",
              "name": "entity_type",
              "type": "uint8"
            }
          ],
          "internalType": "struct Pharmacy.ScEntity",
          "name": "",
          "type": "tuple"
        }
      ],
      "stateMutability": "view",
      "type": "function"
    },
    {
      "inputs": [
        {
          "internalType": "uint256",
          "name": "product_id",
          "type": "uint256"
        }
      ],
      "name": "get_product_shipments",
      "outputs": [
        {
          "components": [
            {
              "internalType": "uint256",
              "name": "shipment_id",
              "type": "uint256"
            },
            {
              "internalType": "address",
              "name": "origin",
              "type": "address"
            },
            {
              "internalType": "address",
              "name": "destination",
              "type": "address"
            },
            {
              "internalType": "uint256",
              "name": "date_of_departure",
              "type": "uint256"
            },
            {
              "internalType": "uint256",
              "name": "expected_date_of_arrival",
              "type": "uint256"
            },
            {
              "internalType": "uint256",
              "name": "product_id",
              "type": "uint256"
            }
          ],
          "internalType": "struct Pharmacy.Shipment[]",
          "name": "",
          "type": "tuple[]"
        }
      ],
      "stateMutability": "view",
      "type": "function"
    },
    {
      "inputs": [],
      "name": "get_products",
      "outputs": [
        {
          "components": [
            {
              "internalType": "uint256",
              "name": "id",
              "type": "uint256"
            },
            {
              "internalType": "string",
              "name": "name",
              "type": "string"
            },
            {
              "internalType": "uint256",
              "name": "quantity",
              "type": "uint256"
            },
            {
              "internalType": "address",
              "name": "currentScEntity",
              "type": "address"
            }
          ],
          "internalType": "struct Pharmacy.Product[]",
          "name": "",
          "type": "tuple[]"
        }
      ],
      "stateMutability": "view",
      "type": "function"
    },
    {
      "inputs": [
        {
          "internalType": "uint256",
          "name": "shipment_id",
          "type": "uint256"
        }
      ],
      "name": "get_shipment",
      "outputs": [
        {
          "components": [
            {
              "internalType": "uint256",
              "name": "shipment_id",
              "type": "uint256"
            },
            {
              "internalType": "address",
              "name": "origin",
              "type": "address"
            },
            {
              "internalType": "address",
              "name": "destination",
              "type": "address"
            },
            {
              "internalType": "uint256",
              "name": "date_of_departure",
              "type": "uint256"
            },
            {
              "internalType": "uint256",
              "name": "expected_date_of_arrival",
              "type": "uint256"
            },
            {
              "internalType": "uint256",
              "name": "product_id",
              "type": "uint256"
            }
          ],
          "internalType": "struct Pharmacy.Shipment",
          "name": "",
          "type": "tuple"
        }
      ],
      "stateMutability": "view",
      "type": "function"
    },
    {
      "inputs": [],
      "name": "get_shipments",
      "outputs": [
        {
          "components": [
            {
              "internalType": "uint256",
              "name": "shipment_id",
              "type": "uint256"
            },
            {
              "internalType": "address",
              "name": "origin",
              "type": "address"
            },
            {
              "internalType": "address",
              "name": "destination",
              "type": "address"
            },
            {
              "internalType": "uint256",
              "name": "date_of_departure",
              "type": "uint256"
            },
            {
              "internalType": "uint256",
              "name": "expected_date_of_arrival",
              "type": "uint256"
            },
            {
              "internalType": "uint256",
              "name": "product_id",
              "type": "uint256"
            }
          ],
          "internalType": "struct Pharmacy.Shipment[]",
          "name": "",
          "type": "tuple[]"
        }
      ],
      "stateMutability": "view",
      "type": "function"
    },
    {
      "inputs": [
        {
          "internalType": "uint256",
          "name": "",
          "type": "uint256"
        }
      ],
      "name": "products_index",
      "outputs": [
        {
          "internalType": "uint256",
          "name": "",
          "type": "uint256"
        }
      ],
      "stateMutability": "view",
      "type": "function"
    },
    {
      "inputs": [
        {
          "internalType": "uint256",
          "name": "",
          "type": "uint256"
        }
      ],
      "name": "products_list",
      "outputs": [
        {
          "internalType": "uint256",
          "name": "id",
          "type": "uint256"
        },
        {
          "internalType": "string",
          "name": "name",
          "type": "string"
        },
        {
          "internalType": "uint256",
          "name": "quantity",
          "type": "uint256"
        },
        {
          "internalType": "address",
          "name": "currentScEntity",
          "type": "address"
        }
      ],
      "stateMutability": "view",
      "type": "function"
    },
    {
      "inputs": [
        {
          "internalType": "uint256",
          "name": "",
          "type": "uint256"
        },
        {
          "internalType": "uint256",
          "name": "",
          "type": "uint256"
        }
      ],
      "name": "products_shipments",
      "outputs": [
        {
          "internalType": "uint256",
          "name": "",
          "type": "uint256"
        }
      ],
      "stateMutability": "view",
      "type": "function"
    },
    {
      "inputs": [
        {
          "internalType": "address",
          "name": "entity_address",
          "type": "address"
        }
      ],
      "name": "remove_ScEntity",
      "outputs": [],
      "stateMutability": "nonpayable",
      "type": "function"
    },
    {
      "inputs": [
        {
          "internalType": "uint256",
          "name": "id",
          "type": "uint256"
        }
      ],
      "name": "remove_product",
      "outputs": [],
      "stateMutability": "nonpayable",
      "type": "function"
    },
    {
      "inputs": [
        {
          "internalType": "address",
          "name": "user_address",
          "type": "address"
        }
      ],
      "name": "remove_user",
      "outputs": [],
      "stateMutability": "nonpayable",
      "type": "function"
    },
    {
      "inputs": [
        {
          "internalType": "address",
          "name": "",
          "type": "address"
        }
      ],
      "name": "scEntities_index",
      "outputs": [
        {
          "internalType": "uint256",
          "name": "",
          "type": "uint256"
        }
      ],
      "stateMutability": "view",
      "type": "function"
    },
    {
      "inputs": [
        {
          "internalType": "uint256",
          "name": "",
          "type": "uint256"
        }
      ],
      "name": "scEntities_list",
      "outputs": [
        {
          "internalType": "address",
          "name": "entity_address",
          "type": "address"
        },
        {
          "internalType": "string",
          "name": "name",
          "type": "string"
        },
        {
          "internalType": "enum Pharmacy.EntityType",
          "name": "entity_type",
          "type": "uint8"
        }
      ],
      "stateMutability": "view",
      "type": "function"
    },
    {
      "inputs": [
        {
          "internalType": "uint256",
          "name": "",
          "type": "uint256"
        }
      ],
      "name": "shipments_list",
      "outputs": [
        {
          "internalType": "uint256",
          "name": "shipment_id",
          "type": "uint256"
        },
        {
          "internalType": "address",
          "name": "origin",
          "type": "address"
        },
        {
          "internalType": "address",
          "name": "destination",
          "type": "address"
        },
        {
          "internalType": "uint256",
          "name": "date_of_departure",
          "type": "uint256"
        },
        {
          "internalType": "uint256",
          "name": "expected_date_of_arrival",
          "type": "uint256"
        },
        {
          "internalType": "uint256",
          "name": "product_id",
          "type": "uint256"
        }
      ],
      "stateMutability": "view",
      "type": "function"
    },
    {
      "inputs": [
        {
          "internalType": "address",
          "name": "",
          "type": "address"
        }
      ],
      "name": "users",
      "outputs": [
        {
          "internalType": "address",
          "name": "user_address",
          "type": "address"
        },
        {
          "internalType": "string",
          "name": "name",
          "type": "string"
        },
        {
          "internalType": "enum Pharmacy.Role",
          "name": "role",
          "type": "uint8"
        }
      ],
      "stateMutability": "view",
      "type": "function"
    },
    {
      "inputs": [
        {
          "internalType": "address",
          "name": "user_address",
          "type": "address"
        }
      ],
      "name": "view_user",
      "outputs": [
        {
          "components": [
            {
              "internalType": "address",
              "name": "user_address",
              "type": "address"
            },
            {
              "internalType": "string",
              "name": "name",
              "type": "string"
            },
            {
              "internalType": "enum Pharmacy.Role",
              "name": "role",
              "type": "uint8"
            }
          ],
          "internalType": "struct Pharmacy.User",
          "name": "",
          "type": "tuple"
        }
      ],
      "stateMutability": "view",
      "type": "function"
    }
  ],
  "bytecode": "0x608060405260016005553480156200001657600080fd5b50604080516060810182523380825282518084018452600581526420b236b4b760d91b6020808301919091528084019182526000848601819052928352829052929020815181546001600160a01b0319166001600160a01b0390911617815591519091829160018201906200008c90826200017f565b50604082015160028201805460ff19166001836003811115620000b357620000b3620000c2565b0217905550905050506200024b565b634e487b7160e01b600052602160045260246000fd5b634e487b7160e01b600052604160045260246000fd5b600181811c908216806200010357607f821691505b6020821081036200012457634e487b7160e01b600052602260045260246000fd5b50919050565b601f8211156200017a576000816000526020600020601f850160051c81016020861015620001555750805b601f850160051c820191505b81811015620001765782815560010162000161565b5050505b505050565b81516001600160401b038111156200019b576200019b620000d8565b620001b381620001ac8454620000ee565b846200012a565b602080601f831160018114620001eb5760008415620001d25750858301515b600019600386901b1c1916600185901b17855562000176565b600085815260208120601f198616915b828110156200021c57888601518255948401946001909101908401620001fb565b50858210156200023b5787850151600019600388901b60f8161c191681555b5050505050600190811b01905550565b613a9d806200025b6000396000f3fe608060405234801561001057600080fd5b50600436106101575760003560e01c8063b07048d9116100c3578063de63918a1161007c578063de63918a1461035a578063eb54eb051461036d578063efccd4aa1461038d578063f7aed773146103a2578063f80e6fe1146103c5578063faecc246146103d857600080fd5b8063b07048d9146102b8578063b08806a2146102cb578063b7bdecc914610317578063c041fa271461032a578063c17644a814610332578063cb40f9d51461034757600080fd5b80633490228f116101155780633490228f146102105780636f11432d14610223578063777138bb146102435780637bc195bf14610256578063871bb69514610276578063a87430ba1461029657600080fd5b8062709d391461015c5780630e3262211461018757806316248fd11461019c5780632120a03b146101bd57806323033fe0146101d05780632fca0bf7146101f0575b600080fd5b61016f61016a366004613140565b6103f8565b60405161017e939291906131c9565b60405180910390f35b61019a610195366004613140565b6104c3565b005b6101af6101aa366004613204565b6106b1565b60405190815260200161017e565b61019a6101cb366004613242565b6106e2565b6101e36101de366004613242565b610953565b60405161017e91906132a7565b6101af6101fe366004613140565b60026020526000908152604090205481565b61019a61021e36600461335d565b610ae3565b610236610231366004613140565b610dc5565b60405161017e91906133fb565b6101e3610251366004613140565b611155565b610269610264366004613140565b611207565b60405161017e9190613456565b610289610284366004613242565b611799565b60405161017e91906134b4565b6102a96102a4366004613242565b6118fd565b60405161017e939291906134f6565b61019a6102c6366004613242565b611929565b6102de6102d9366004613140565b611aa2565b604080519687526001600160a01b03958616602088015293909416928501929092526060840152608083015260a082015260c00161017e565b61019a610325366004613529565b611af5565b610269611f54565b61033a611ff5565b60405161017e919061358f565b61019a6103553660046135f3565b612367565b61019a610368366004613626565b612961565b6101af61037b366004613242565b60016020526000908152604090205481565b610395612d43565b60405161017e9190613681565b6103b56103b0366004613140565b612e74565b60405161017e94939291906136d8565b6101af6103d3366004613712565b612f42565b6103eb6103e6366004613140565b612f5e565b60405161017e919061373c565b6008818154811061040857600080fd5b6000918252602090912060039091020180546001820180546001600160a01b039092169350906104379061374a565b80601f01602080910402602001604051908101604052809291908181526020018280546104639061374a565b80156104b05780601f10610485576101008083540402835291602001916104b0565b820191906000526020600020905b81548152906001019060200180831161049357829003601f168201915b5050506002909301549192505060ff1683565b60008181526002602052604090205415158061050357508060066000815481106104ef576104ef61377e565b906000526020600020906004020160000154145b6105285760405162461bcd60e51b815260040161051f90613794565b60405180910390fd5b60008181526002602052604090205460068054610547906001906137e1565b815481106105575761055761377e565b9060005260206000209060040201600682815481106105785761057861377e565b60009182526020909120825460049092020190815560018082019061059f90840182613845565b50600282810154828201556003928301549290910180546001600160a01b0319166001600160a01b039093169290921790915560068054839291600091849081106105ec576105ec61377e565b9060005260206000209060040201600001548152602001908152602001600020819055506002600083815260200190815260200160002060009055600680548061063857610638613926565b6000828152602081206004600019909301928302018181559061065e6001830182613033565b506000600282015560030180546001600160a01b031916905590556040518281527f07015631cff457b5b13492c2045e70c6305a0a4aa773e432e79abbe2cf52c1eb906020015b60405180910390a15050565b600460205281600052604060002081815481106106cd57600080fd5b90600052602060002001600091509150505481565b6000803360009081526020819052604090206002015460ff16600381111561070c5761070c61319f565b146107295760405162461bcd60e51b815260040161051f9061393c565b6001600160a01b038216600090815260016020526040902054600854811080156107875750826001600160a01b03166008828154811061076b5761076b61377e565b60009182526020909120600390910201546001600160a01b0316145b6107a35760405162461bcd60e51b815260040161051f90613964565b6008546107b2906001906137e1565b81146108af57600880546107c8906001906137e1565b815481106107d8576107d861377e565b9060005260206000209060030201600882815481106107f9576107f961377e565b60009182526020909120825460039092020180546001600160a01b0319166001600160a01b0390921691909117815560018082019061083a90840182613845565b50600282810154908201805460ff9092169160ff191660018360058111156108645761086461319f565b02179055509050508060016000600884815481106108845761088461377e565b600091825260208083206003909202909101546001600160a01b031683528201929092526040019020555b60088054806108c0576108c0613926565b60008281526020812060036000199093019283020180546001600160a01b0319168155906108f16001830182613033565b50600201805460ff1916905590556001600160a01b03831660008181526001602090815260408083209290925590519182527f5d3e2f6091ad4a3a365ae9a6a381688e8e80b4ebb902a5217c76ca91fdff95af910160405180910390a1505050565b61095b613070565b6001600160a01b038216600090815260016020526040902054600854811080156109b95750826001600160a01b03166008828154811061099d5761099d61377e565b60009182526020909120600390910201546001600160a01b0316145b6109d55760405162461bcd60e51b815260040161051f90613964565b600881815481106109e8576109e861377e565b6000918252602091829020604080516060810190915260039092020180546001600160a01b031682526001810180549293919291840191610a289061374a565b80601f0160208091040260200160405190810160405280929190818152602001828054610a549061374a565b8015610aa15780601f10610a7657610100808354040283529160200191610aa1565b820191906000526020600020905b815481529060010190602001808311610a8457829003601f168201915b5050509183525050600282015460209091019060ff166005811115610ac857610ac861319f565b6005811115610ad957610ad961319f565b9052509392505050565b6001600160a01b03811660009081526001602052604090205460085481108015610b415750816001600160a01b031660088281548110610b2557610b2561377e565b60009182526020909120600390910201546001600160a01b0316145b610baa5760405162461bcd60e51b815260206004820152603460248201527f43616e6e6f74206372656174652070726f64756374206265636175736520456e6044820152737469747920646f6573206e6f742065786973742160601b606482015260840161051f565b600060088281548110610bbf57610bbf61377e565b600091825260209091206002600390920201015460ff166005811115610be757610be761319f565b14610c5a5760405162461bcd60e51b815260206004820152603760248201527f43616e6e6f74206372656174652070726f64756374206265636175736520456e60448201527f74697479206973206e6f74206120537570706c69657221000000000000000000606482015260840161051f565b6000604051806080016040528060056000815480929190610c7a90613994565b909155508152602080820188905260408083018890526001600160a01b0387166060909301929092526006805484516000908152600284529384208190556001810182559252825160049092027ff652222313e28459528d920b65115c16c04f3efc82aaedc97be59f3f377c0d3f81019283559083015192935083927ff652222313e28459528d920b65115c16c04f3efc82aaedc97be59f3f377c0d4090910190610d2590826139ad565b506040828101516002830155606092830151600392830180546001600160a01b0319166001600160a01b0392831617905586166000908152602092835281812085518154600181018355918352918490200155835191840151848201519385015191517f2e87df3c8f53fb06266ed52023929f5fab9f24130224ef6538b665d9cac8253094610db6949390916136d8565b60405180910390a15050505050565b610df9604051806080016040528060008152602001606081526020016000815260200160006001600160a01b031681525090565b600082815260026020526040902054151580610e395750816006600081548110610e2557610e2561377e565b906000526020600020906004020160000154145b610e555760405162461bcd60e51b815260040161051f90613794565b60013360009081526020819052604090206002015460ff166003811115610e7e57610e7e61319f565b1480610eb0575060023360009081526020819052604090206002015460ff166003811115610eae57610eae61319f565b145b156110585760005b3360009081526003602052604090205481101561103f573360009081526003602052604081208054859260069260029286908110610ef857610ef861377e565b906000526020600020015481526020019081526020016000205481548110610f2257610f2261377e565b9060005260206000209060040201600001540361103757600083815260026020526040902054600680549091908110610f5d57610f5d61377e565b906000526020600020906004020160405180608001604052908160008201548152602001600182018054610f909061374a565b80601f0160208091040260200160405190810160405280929190818152602001828054610fbc9061374a565b80156110095780601f10610fde57610100808354040283529160200191611009565b820191906000526020600020905b815481529060010190602001808311610fec57829003601f168201915b5050509183525050600282015460208201526003909101546001600160a01b03166040909101529392505050565b600101610eb8565b5060405162461bcd60e51b815260040161051f90613794565b60008281526002602052604090205460068054909190811061107c5761107c61377e565b9060005260206000209060040201604051806080016040529081600082015481526020016001820180546110af9061374a565b80601f01602080910402602001604051908101604052809291908181526020018280546110db9061374a565b80156111285780601f106110fd57610100808354040283529160200191611128565b820191906000526020600020905b81548152906001019060200180831161110b57829003601f168201915b5050509183525050600282015460208201526003909101546001600160a01b031660409091015292915050565b61115d613070565b60008281526002602052604090205415158061119d57508160066000815481106111895761118961377e565b906000526020600020906004020160000154145b6111b95760405162461bcd60e51b815260040161051f90613794565b60008281526002602052604090205460068054611201929081106111df576111df61377e565b60009182526020909120600360049092020101546001600160a01b0316610953565b92915050565b6006546060906112295760405162461bcd60e51b815260040161051f90613794565b60008281526002602052604090205415158061126957508160066000815481106112555761125561377e565b906000526020600020906004020160000154145b6112855760405162461bcd60e51b815260040161051f90613794565b3360009081526020818152604080832081516060810190925280546001600160a01b0316825260018101805492939192918401916112c29061374a565b80601f01602080910402602001604051908101604052809291908181526020018280546112ee9061374a565b801561133b5780601f106113105761010080835404028352916020019161133b565b820191906000526020600020905b81548152906001019060200180831161131e57829003601f168201915b5050509183525050600282015460209091019060ff1660038111156113625761136261319f565b60038111156113735761137361319f565b9052506000848152600460209081526040808320805482518185028101850190935280835294955092939092918301828280156113cf57602002820191906000526020600020905b8154815260200190600101908083116113bb575b50939450600193506113e092505050565b826040015160038111156113f6576113f661319f565b148061141757506002826040015160038111156114155761141561319f565b145b15611676573360009081526003602090815260408083208054825181850281018501909352808352849383018282801561147057602002820191906000526020600020905b81548152602001906001019080831161145c575b5050505050905060005b81518110156114b457868282815181106114965761149661377e565b6020026020010151036114ac57600192506114b4565b60010161147a565b508161150e5760405162461bcd60e51b815260206004820152602360248201527f50726f6475637420646f6573206e6f742062656c6f6e6720746f20746865207560448201526239b2b960e91b606482015260840161051f565b60006001856040015160038111156115285761152861319f565b14611534576003611537565b60025b60ff16905060008185511061154c578161154f565b84515b905060008167ffffffffffffffff81111561156c5761156c6132ba565b6040519080825280602002602001820160405280156115a557816020015b6115926130aa565b81526020019060019003908161158a5790505b50905060005b828110156116695760078782815181106115c7576115c761377e565b6020026020010151815481106115df576115df61377e565b60009182526020918290206040805160c08101825260069093029091018054835260018101546001600160a01b0390811694840194909452600281015490931690820152600382015460608201526004820154608082015260059091015460a082015282518390839081106116565761165661377e565b60209081029190910101526001016115ab565b5098975050505050505050565b6000815167ffffffffffffffff811115611692576116926132ba565b6040519080825280602002602001820160405280156116cb57816020015b6116b86130aa565b8152602001906001900390816116b05790505b50905060005b82518110156117905760078382815181106116ee576116ee61377e565b6020026020010151815481106117065761170661377e565b60009182526020918290206040805160c08101825260069093029091018054835260018101546001600160a01b0390811694840194909452600281015490931690820152600382015460608201526004820154608082015260059091015460a0820152825183908390811061177d5761177d61377e565b60209081029190910101526001016116d1565b50949350505050565b6117a16130f2565b6001600160a01b03808316600081815260208190526040902054909116146118025760405162461bcd60e51b81526020600482015260146024820152735573657220646f6573206e6f742065786973742160601b604482015260640161051f565b6001600160a01b038083166000908152602081815260409182902082516060810190935280549093168252600183018054929392918401916118439061374a565b80601f016020809104026020016040519081016040528092919081815260200182805461186f9061374a565b80156118bc5780601f10611891576101008083540402835291602001916118bc565b820191906000526020600020905b81548152906001019060200180831161189f57829003601f168201915b5050509183525050600282015460209091019060ff1660038111156118e3576118e361319f565b60038111156118f4576118f461319f565b90525092915050565b600060208190529081526040902080546001820180546001600160a01b0390921692916104379061374a565b6000803360009081526020819052604090206002015460ff1660038111156119535761195361319f565b146119705760405162461bcd60e51b815260040161051f9061393c565b6001600160a01b03808316600081815260208190526040902054909116146119d15760405162461bcd60e51b81526020600482015260146024820152735573657220646f6573206e6f742065786973742160601b604482015260640161051f565b6001600160a01b0382163303611a295760405162461bcd60e51b815260206004820152601b60248201527f41646d696e2063616e27742072656d6f76652068696d73656c66210000000000604482015260640161051f565b6001600160a01b038216600090815260208190526040812080546001600160a01b031916815590611a5d6001830182613033565b50600201805460ff191690556040516001600160a01b03831681527fe9dce8c992623ce791725b21e857e33248d1f190a25b5168313420eebdaae99d906020016106a5565b60078181548110611ab257600080fd5b60009182526020909120600690910201805460018201546002830154600384015460048501546005909501549395506001600160a01b0392831694919092169286565b6000803360009081526020819052604090206002015460ff166003811115611b1f57611b1f61319f565b14611b3c5760405162461bcd60e51b815260040161051f9061393c565b6001600160a01b038416600090815260016020526040902054158015611bb257506008541580611bb257506001600160a01b038416600081815260016020526040902054600880549091908110611b9557611b9561377e565b60009182526020909120600390910201546001600160a01b031614155b611bf75760405162461bcd60e51b8152602060048201526016602482015275456e7469747920616c7265616479206578697374732160501b604482015260640161051f565b6001600160a01b0380851660008181526020819052604090205490911603611e14576001600160a01b03841660009081526020819052604090206002015460ff166001816003811115611c4c57611c4c61319f565b03611cce576000836005811115611c6557611c6561319f565b14611cc95760405162461bcd60e51b815260206004820152602e60248201527f456e746974792074797065206d75737420626520537570706c69657220666f7260448201526d20537570706c69657220726f6c6560901b606482015260840161051f565b611e12565b6002816003811115611ce257611ce261319f565b03611d6e576003836005811115611cfb57611cfb61319f565b14611cc95760405162461bcd60e51b815260206004820152603860248201527f456e746974792074797065206d7573742062652057617265686f757365204c6f60448201527f67697374696320666f72204c6f67697374696320726f6c650000000000000000606482015260840161051f565b6000816003811115611d8257611d8261319f565b1480611d9f57506003816003811115611d9d57611d9d61319f565b145b15611e125760405162461bcd60e51b815260206004820152603760248201527f43616e6e6f742063726561746520656e7469747920776974682041646d696e2060448201527f6f722041756469746f7220726f6c652061646472657373000000000000000000606482015260840161051f565b505b60006040518060600160405280866001600160a01b03168152602001858152602001846005811115611e4857611e4861319f565b9052600880546001600160a01b0388811660009081526001602081815260408320859055908401855593905283517ff3f7a9fe364faab93b216da50a3214154f22a0a2b415b23a84c8169e8b636ee3600390930292830180546001600160a01b031916919092161781559183015192935083927ff3f7a9fe364faab93b216da50a3214154f22a0a2b415b23a84c8169e8b636ee490910190611eea90826139ad565b50604082015160028201805460ff19166001836005811115611f0e57611f0e61319f565b021790555050507f5e1452cfc728689895f5ea99ed4bb90292b01d5fd117e480c94cddb4e1f5d5ef816000015182602001518360400151604051610db6939291906131c9565b60606007805480602002602001604051908101604052809291908181526020016000905b82821015611fec5760008481526020908190206040805160c08101825260068602909201805483526001808201546001600160a01b03908116858701526002830154169284019290925260038101546060840152600481015460808401526005015460a08301529083529092019101611f78565b50505050905090565b606060013360009081526020819052604090206002015460ff1660038111156120205761202061319f565b1480612052575060023360009081526020819052604090206002015460ff1660038111156120505761205061319f565b145b15612254573360009081526003602052604081205467ffffffffffffffff81111561207f5761207f6132ba565b6040519080825280602002602001820160405280156120e457816020015b6120d1604051806080016040528060008152602001606081526020016000815260200160006001600160a01b031681525090565b81526020019060019003908161209d5790505b50905060005b3360009081526003602052604090205481101561224e57336000908152600360205260408120805460069260029290918590811061212a5761212a61377e565b9060005260206000200154815260200190815260200160002054815481106121545761215461377e565b9060005260206000209060040201604051806080016040529081600082015481526020016001820180546121879061374a565b80601f01602080910402602001604051908101604052809291908181526020018280546121b39061374a565b80156122005780601f106121d557610100808354040283529160200191612200565b820191906000526020600020905b8154815290600101906020018083116121e357829003601f168201915b5050509183525050600282015460208201526003909101546001600160a01b0316604090910152825183908390811061223b5761223b61377e565b60209081029190910101526001016120ea565b50919050565b6006805480602002602001604051908101604052809291908181526020016000905b82821015611fec5783829060005260206000209060040201604051806080016040529081600082015481526020016001820180546122b39061374a565b80601f01602080910402602001604051908101604052809291908181526020018280546122df9061374a565b801561232c5780601f106123015761010080835404028352916020019161232c565b820191906000526020600020905b81548152906001019060200180831161230f57829003601f168201915b505050918352505060028201546020808301919091526003909201546001600160a01b03166040909101529082526001929092019101612276565b8042106123dc5760405162461bcd60e51b815260206004820152603b60248201527f45787065637465642064617465206f66206172726976616c2073686f756c642060448201527f62652061667465722064617465206f6620646570617274757265210000000000606482015260840161051f565b6000828152600260205260409020548015158061241d57508260066000815481106124095761240961377e565b906000526020600020906004020160000154145b6124395760405162461bcd60e51b815260040161051f90613794565b6001600160a01b038416600090815260016020526040902054600854811080156124975750846001600160a01b03166008828154811061247b5761247b61377e565b60009182526020909120600390910201546001600160a01b0316145b6124b35760405162461bcd60e51b815260040161051f90613964565b6000600683815481106124c8576124c861377e565b9060005260206000209060040201604051806080016040529081600082015481526020016001820180546124fb9061374a565b80601f01602080910402602001604051908101604052809291908181526020018280546125279061374a565b80156125745780601f1061254957610100808354040283529160200191612574565b820191906000526020600020905b81548152906001019060200180831161255757829003601f168201915b505050918352505060028201546020808301919091526003909201546001600160a01b0390811660409283015260608401511660009081526001909252812054600880549394509092859081106125cd576125cd61377e565b600091825260209091206002600390920201015460ff1660058111156125f5576125f561319f565b11801561268157506001600884815481106126125761261261377e565b600091825260209091206002600390920201015460ff16600581111561263a5761263a61319f565b61264491906137e1565b600882815481106126575761265761377e565b600091825260209091206002600390920201015460ff16600581111561267f5761267f61319f565b145b6126c25760405162461bcd60e51b815260206004820152601260248201527157726f6e672064657374696e6174696f6e2160701b604482015260640161051f565b6040805160c08101825260075481526060808501516001600160a01b03908116602080850191909152908b168385015242918301919091526080820188905260a082018990526000898152600482529283208251815460018101835591855291909320909201919091556003600885815481106127415761274161377e565b600091825260209091206002600390920201015460ff1660058111156127695761276961319f565b0361279a576001600160a01b0388166000908152600360209081526040822080546001810182559083529120018790555b87600686815481106127ae576127ae61377e565b600091825260208083206003600493909302019190910180546001600160a01b039485166001600160a01b031991821617909155600780546001810182559352845160069093027fa66cc928b5edb82af9bd49922954155ab7b0942694bea4ce44661d9a8736c6888101849055858301517fa66cc928b5edb82af9bd49922954155ab7b0942694bea4ce44661d9a8736c68982018054918716918416821790556040808801517fa66cc928b5edb82af9bd49922954155ab7b0942694bea4ce44661d9a8736c68a8401805491909816941684179096556060808801517fa66cc928b5edb82af9bd49922954155ab7b0942694bea4ce44661d9a8736c68b84018190556080808a01517fa66cc928b5edb82af9bd49922954155ab7b0942694bea4ce44661d9a8736c68c860181905560a0808c01517fa66cc928b5edb82af9bd49922954155ab7b0942694bea4ce44661d9a8736c68d9097018790558a51998a52978901949094528789019590955290860152918401919091529082015290517f876644f605c09f137e642a100ea79c3ff90507acc401482bbca37fd22ba292cc9181900360c00190a15050505050505050565b6000803360009081526020819052604090206002015460ff16600381111561298b5761298b61319f565b146129a85760405162461bcd60e51b815260040161051f9061393c565b6001600160a01b0380831660008181526020819052604090205490911603612a085760405162461bcd60e51b81526020600482015260136024820152725573657220616c72656164792065786973747360681b604482015260640161051f565b6001600160a01b03821660009081526001602052604090205460085481108015612a665750826001600160a01b031660088281548110612a4a57612a4a61377e565b60009182526020909120600390910201546001600160a01b0316145b15612c4e57600060088281548110612a8057612a8061377e565b6000918252602082206002600390920201015460ff169150816005811115612aaa57612aaa61319f565b03612b2c576001856003811115612ac357612ac361319f565b14612b275760405162461bcd60e51b815260206004820152602e60248201527f5573657220726f6c65206d75737420626520537570706c69657220666f72205360448201526d7570706c69657220656e7469747960901b606482015260840161051f565b612c4c565b6003816005811115612b4057612b4061319f565b03612bcc576002856003811115612b5957612b5961319f565b14612b275760405162461bcd60e51b815260206004820152603860248201527f5573657220726f6c65206d757374206265204c6f67697374696320666f72205760448201527f617265686f757365204c6f67697374696320656e746974790000000000000000606482015260840161051f565b6001856003811115612be057612be061319f565b14158015612c0057506002856003811115612bfd57612bfd61319f565b14155b612c4c5760405162461bcd60e51b815260206004820152601c60248201527f496e76616c696420726f6c6520666f72207468697320656e7469747900000000604482015260640161051f565b505b60006040518060600160405280856001600160a01b03168152602001878152602001866003811115612c8257612c8261319f565b90526001600160a01b03858116600090815260208181526040909120835181546001600160a01b031916931692909217825582015191925082916001820190612ccb90826139ad565b50604082015160028201805460ff19166001836003811115612cef57612cef61319f565b0217905550508151602083015160408085015190517f4734c94d88f62c0881093b87207fd9c5d0cbcab7ea0cf7f07370a2952c2f8d609450612d33939291906134f6565b60405180910390a1505050505050565b60606008805480602002602001604051908101604052809291908181526020016000905b82821015611fec57600084815260209081902060408051606081019091526003850290910180546001600160a01b031682526001810180549293919291840191612db09061374a565b80601f0160208091040260200160405190810160405280929190818152602001828054612ddc9061374a565b8015612e295780601f10612dfe57610100808354040283529160200191612e29565b820191906000526020600020905b815481529060010190602001808311612e0c57829003601f168201915b5050509183525050600282015460209091019060ff166005811115612e5057612e5061319f565b6005811115612e6157612e6161319f565b8152505081526020019060010190612d67565b60068181548110612e8457600080fd5b60009182526020909120600490910201805460018201805491935090612ea99061374a565b80601f0160208091040260200160405190810160405280929190818152602001828054612ed59061374a565b8015612f225780601f10612ef757610100808354040283529160200191612f22565b820191906000526020600020905b815481529060010190602001808311612f0557829003601f168201915b5050505060028301546003909301549192916001600160a01b0316905084565b600360205281600052604060002081815481106106cd57600080fd5b612f666130aa565b6007548210612fb75760405162461bcd60e51b815260206004820152601860248201527f536869706d656e7420646f6573206e6f74206578697374210000000000000000604482015260640161051f565b60078281548110612fca57612fca61377e565b60009182526020918290206040805160c08101825260069093029091018054835260018101546001600160a01b0390811694840194909452600281015490931690820152600382015460608201526004820154608082015260059091015460a082015292915050565b50805461303f9061374a565b6000825580601f1061304f575050565b601f01602090049060005260206000209081019061306d9190613127565b50565b604051806060016040528060006001600160a01b0316815260200160608152602001600060058111156130a5576130a561319f565b905290565b6040518060c001604052806000815260200160006001600160a01b0316815260200160006001600160a01b031681526020016000815260200160008152602001600081525090565b604051806060016040528060006001600160a01b0316815260200160608152602001600060038111156130a5576130a561319f565b5b8082111561313c5760008155600101613128565b5090565b60006020828403121561315257600080fd5b5035919050565b6000815180845260005b8181101561317f57602081850181015186830182015201613163565b506000602082860101526020601f19601f83011685010191505092915050565b634e487b7160e01b600052602160045260246000fd5b600681106131c5576131c561319f565b9052565b6001600160a01b03841681526060602082018190526000906131ed90830185613159565b90506131fc60408301846131b5565b949350505050565b6000806040838503121561321757600080fd5b50508035926020909101359150565b80356001600160a01b038116811461323d57600080fd5b919050565b60006020828403121561325457600080fd5b61325d82613226565b9392505050565b60018060a01b038151168252600060208201516060602085015261328b6060850182613159565b9050604083015161329f60408601826131b5565b509392505050565b60208152600061325d6020830184613264565b634e487b7160e01b600052604160045260246000fd5b600082601f8301126132e157600080fd5b813567ffffffffffffffff808211156132fc576132fc6132ba565b604051601f8301601f19908116603f01168101908282118183101715613324576133246132ba565b8160405283815286602085880101111561333d57600080fd5b836020870160208301376000602085830101528094505050505092915050565b60008060006060848603121561337257600080fd5b833567ffffffffffffffff81111561338957600080fd5b613395868287016132d0565b935050602084013591506133ab60408501613226565b90509250925092565b8051825260006020820151608060208501526133d36080850182613159565b604084810151908601526060938401516001600160a01b031693909401929092525090919050565b60208152600061325d60208301846133b4565b80518252602081015160018060a01b0380821660208501528060408401511660408501525050606081015160608301526080810151608083015260a081015160a08301525050565b6020808252825182820181905260009190848201906040850190845b818110156134985761348583855161340e565b9284019260c09290920191600101613472565b50909695505050505050565b600481106131c5576131c561319f565b602080825282516001600160a01b031682820152820151606060408301526000906134e26080840182613159565b9050604084015161329f60608501826134a4565b6001600160a01b038416815260606020820181905260009061351a90830185613159565b90506131fc60408301846134a4565b60008060006060848603121561353e57600080fd5b61354784613226565b9250602084013567ffffffffffffffff81111561356357600080fd5b61356f868287016132d0565b92505060408401356006811061358457600080fd5b809150509250925092565b600060208083016020845280855180835260408601915060408160051b87010192506020870160005b828110156135e657603f198886030184526135d48583516133b4565b945092850192908501906001016135b8565b5092979650505050505050565b60008060006060848603121561360857600080fd5b61361184613226565b95602085013595506040909401359392505050565b60008060006060848603121561363b57600080fd5b833567ffffffffffffffff81111561365257600080fd5b61365e868287016132d0565b93505060208401356004811061367357600080fd5b91506133ab60408501613226565b600060208083016020845280855180835260408601915060408160051b87010192506020870160005b828110156135e657603f198886030184526136c6858351613264565b945092850192908501906001016136aa565b8481526080602082015260006136f16080830186613159565b6040830194909452506001600160a01b039190911660609091015292915050565b6000806040838503121561372557600080fd5b61372e83613226565b946020939093013593505050565b60c08101611201828461340e565b600181811c9082168061375e57607f821691505b60208210810361224e57634e487b7160e01b600052602260045260246000fd5b634e487b7160e01b600052603260045260246000fd5b60208082526017908201527f50726f6475637420646f6573206e6f7420657869737421000000000000000000604082015260600190565b634e487b7160e01b600052601160045260246000fd5b81810381811115611201576112016137cb565b601f821115613840576000816000526020600020601f850160051c8101602086101561381d5750805b601f850160051c820191505b8181101561383c57828155600101613829565b5050505b505050565b818103613850575050565b61385a825461374a565b67ffffffffffffffff811115613872576138726132ba565b61388681613880845461374a565b846137f4565b6000601f8211600181146138ba57600083156138a25750848201545b600019600385901b1c1916600184901b17845561391f565b600085815260209020601f19841690600086815260209020845b838110156138f457828601548255600195860195909101906020016138d4565b50858310156139125781850154600019600388901b60f8161c191681555b50505060018360011b0184555b5050505050565b634e487b7160e01b600052603160045260246000fd5b6020808252600e908201526d139bdd08185d5d1a1bdc9a5e995960921b604082015260600190565b602080825260169082015275456e7469747920646f6573206e6f742065786973742160501b604082015260600190565b6000600182016139a6576139a66137cb565b5060010190565b815167ffffffffffffffff8111156139c7576139c76132ba565b6139d581613880845461374a565b602080601f831160018114613a0a57600084156139f25750858301515b600019600386901b1c1916600185901b17855561383c565b600085815260208120601f198616915b82811015613a3957888601518255948401946001909101908401613a1a565b5085821015613a575787850151600019600388901b60f8161c191681555b5050505050600190811b0190555056fea2646970667358221220bc6692ef4bf7e6ff84222d1ebdf68396cc0c5d78f584f3bd785830b3cc85af5664736f6c63430008180033",
  "linkReferences": {},
  "deployedLinkReferences": {}
}