{
  "_format": "hh-sol-artifact-1",
  "contractName": "Pharmacy",
  "sourceName": "contracts/Pharmacy.sol",
  "abi": [
    {
      "inputs": [],
      "stateMutability": "nonpayable",
      "type": "constructor"
    },
    {
      "anonymous": false,
      "inputs": [
        {
          "indexed": false,
          "internalType": "uint256",
          "name": "id",
          "type": "uint256"
        },
        {
          "indexed": false,
          "internalType": "string",
          "name": "name",
          "type": "string"
        },
        {
          "indexed": false,
          "internalType": "uint256",
          "name": "quantity",
          "type": "uint256"
        },
        {
          "indexed": false,
          "internalType": "address",
          "name": "currentScEntity",
          "type": "address"
        }
      ],
      "name": "ProductCreated",
      "type": "event"
    },
    {
      "anonymous": false,
      "inputs": [
        {
          "indexed": false,
          "internalType": "uint256",
          "name": "id",
          "type": "uint256"
        }
      ],
      "name": "ProductRemoved",
      "type": "event"
    },
    {
      "anonymous": false,
      "inputs": [
        {
          "indexed": false,
          "internalType": "address",
          "name": "entity_address",
          "type": "address"
        },
        {
          "indexed": false,
          "internalType": "string",
          "name": "name",
          "type": "string"
        },
        {
          "indexed": false,
          "internalType": "enum Pharmacy.EntityType",
          "name": "entity_type",
          "type": "uint8"
        }
      ],
      "name": "ScEntityCreated",
      "type": "event"
    },
    {
      "anonymous": false,
      "inputs": [
        {
          "indexed": false,
          "internalType": "address",
          "name": "entity_address",
          "type": "address"
        }
      ],
      "name": "ScEntityRemoved",
      "type": "event"
    },
    {
      "anonymous": false,
      "inputs": [
        {
          "indexed": false,
          "internalType": "uint256",
          "name": "shipment_id",
          "type": "uint256"
        },
        {
          "indexed": false,
          "internalType": "address",
          "name": "origin",
          "type": "address"
        },
        {
          "indexed": false,
          "internalType": "address",
          "name": "destination",
          "type": "address"
        },
        {
          "indexed": false,
          "internalType": "uint256",
          "name": "date_of_departure",
          "type": "uint256"
        },
        {
          "indexed": false,
          "internalType": "uint256",
          "name": "expected_date_of_arrival",
          "type": "uint256"
        },
        {
          "indexed": false,
          "internalType": "uint256",
          "name": "product_id",
          "type": "uint256"
        }
      ],
      "name": "ShipmentCreated",
      "type": "event"
    },
    {
      "anonymous": false,
      "inputs": [
        {
          "indexed": false,
          "internalType": "address",
          "name": "user_address",
          "type": "address"
        },
        {
          "indexed": false,
          "internalType": "string",
          "name": "name",
          "type": "string"
        },
        {
          "indexed": false,
          "internalType": "enum Pharmacy.Role",
          "name": "role",
          "type": "uint8"
        }
      ],
      "name": "UserCreated",
      "type": "event"
    },
    {
      "anonymous": false,
      "inputs": [
        {
          "indexed": false,
          "internalType": "address",
          "name": "user_address",
          "type": "address"
        }
      ],
      "name": "UserRemoved",
      "type": "event"
    },
    {
      "inputs": [
        {
          "internalType": "address",
          "name": "entity_address",
          "type": "address"
        },
        {
          "internalType": "string",
          "name": "name",
          "type": "string"
        },
        {
          "internalType": "enum Pharmacy.EntityType",
          "name": "entity_type",
          "type": "uint8"
        }
      ],
      "name": "create_ScEntity",
      "outputs": [],
      "stateMutability": "nonpayable",
      "type": "function"
    },
    {
      "inputs": [
        {
          "internalType": "string",
          "name": "name",
          "type": "string"
        },
        {
          "internalType": "uint256",
          "name": "quantity",
          "type": "uint256"
        },
        {
          "internalType": "address",
          "name": "currentScEntity",
          "type": "address"
        }
      ],
      "name": "create_product",
      "outputs": [],
      "stateMutability": "nonpayable",
      "type": "function"
    },
    {
      "inputs": [
        {
          "internalType": "address",
          "name": "destination",
          "type": "address"
        },
        {
          "internalType": "uint256",
          "name": "product_id",
          "type": "uint256"
        },
        {
          "internalType": "uint256",
          "name": "expected_date_of_arrival",
          "type": "uint256"
        }
      ],
      "name": "create_shipment",
      "outputs": [],
      "stateMutability": "nonpayable",
      "type": "function"
    },
    {
      "inputs": [
        {
          "internalType": "string",
          "name": "name",
          "type": "string"
        },
        {
          "internalType": "enum Pharmacy.Role",
          "name": "role",
          "type": "uint8"
        },
        {
          "internalType": "address",
          "name": "user_address",
          "type": "address"
        }
      ],
      "name": "create_user",
      "outputs": [],
      "stateMutability": "nonpayable",
      "type": "function"
    },
    {
      "inputs": [
        {
          "internalType": "address",
          "name": "",
          "type": "address"
        },
        {
          "internalType": "uint256",
          "name": "",
          "type": "uint256"
        }
      ],
      "name": "entities_products",
      "outputs": [
        {
          "internalType": "uint256",
          "name": "",
          "type": "uint256"
        }
      ],
      "stateMutability": "view",
      "type": "function"
    },
    {
      "inputs": [],
      "name": "get_ScEntities",
      "outputs": [
        {
          "components": [
            {
              "internalType": "address",
              "name": "entity_address",
              "type": "address"
            },
            {
              "internalType": "string",
              "name": "name",
              "type": "string"
            },
            {
              "internalType": "enum Pharmacy.EntityType",
              "name": "entity_type",
              "type": "uint8"
            }
          ],
          "internalType": "struct Pharmacy.ScEntity[]",
          "name": "",
          "type": "tuple[]"
        }
      ],
      "stateMutability": "view",
      "type": "function"
    },
    {
      "inputs": [
        {
          "internalType": "address",
          "name": "entity_address",
          "type": "address"
        }
      ],
      "name": "get_ScEntity",
      "outputs": [
        {
          "components": [
            {
              "internalType": "address",
              "name": "entity_address",
              "type": "address"
            },
            {
              "internalType": "string",
              "name": "name",
              "type": "string"
            },
            {
              "internalType": "enum Pharmacy.EntityType",
              "name": "entity_type",
              "type": "uint8"
            }
          ],
          "internalType": "struct Pharmacy.ScEntity",
          "name": "",
          "type": "tuple"
        }
      ],
      "stateMutability": "view",
      "type": "function"
    },
    {
      "inputs": [
        {
          "internalType": "uint256",
          "name": "id",
          "type": "uint256"
        }
      ],
      "name": "get_product",
      "outputs": [
        {
          "components": [
            {
              "internalType": "uint256",
              "name": "id",
              "type": "uint256"
            },
            {
              "internalType": "string",
              "name": "name",
              "type": "string"
            },
            {
              "internalType": "uint256",
              "name": "quantity",
              "type": "uint256"
            },
            {
              "internalType": "address",
              "name": "currentScEntity",
              "type": "address"
            }
          ],
          "internalType": "struct Pharmacy.Product",
          "name": "",
          "type": "tuple"
        }
      ],
      "stateMutability": "view",
      "type": "function"
    },
    {
      "inputs": [
        {
          "internalType": "uint256",
          "name": "id",
          "type": "uint256"
        }
      ],
      "name": "get_product_entity",
      "outputs": [
        {
          "components": [
            {
              "internalType": "address",
              "name": "entity_address",
              "type": "address"
            },
            {
              "internalType": "string",
              "name": "name",
              "type": "string"
            },
            {
              "internalType": "enum Pharmacy.EntityType",
              "name": "entity_type",
              "type": "uint8"
            }
          ],
          "internalType": "struct Pharmacy.ScEntity",
          "name": "",
          "type": "tuple"
        }
      ],
      "stateMutability": "view",
      "type": "function"
    },
    {
      "inputs": [
        {
          "internalType": "uint256",
          "name": "product_id",
          "type": "uint256"
        }
      ],
      "name": "get_product_shipments",
      "outputs": [
        {
          "components": [
            {
              "internalType": "uint256",
              "name": "shipment_id",
              "type": "uint256"
            },
            {
              "internalType": "address",
              "name": "origin",
              "type": "address"
            },
            {
              "internalType": "address",
              "name": "destination",
              "type": "address"
            },
            {
              "internalType": "uint256",
              "name": "date_of_departure",
              "type": "uint256"
            },
            {
              "internalType": "uint256",
              "name": "expected_date_of_arrival",
              "type": "uint256"
            },
            {
              "internalType": "uint256",
              "name": "product_id",
              "type": "uint256"
            }
          ],
          "internalType": "struct Pharmacy.Shipment[]",
          "name": "",
          "type": "tuple[]"
        }
      ],
      "stateMutability": "view",
      "type": "function"
    },
    {
      "inputs": [],
      "name": "get_products",
      "outputs": [
        {
          "components": [
            {
              "internalType": "uint256",
              "name": "id",
              "type": "uint256"
            },
            {
              "internalType": "string",
              "name": "name",
              "type": "string"
            },
            {
              "internalType": "uint256",
              "name": "quantity",
              "type": "uint256"
            },
            {
              "internalType": "address",
              "name": "currentScEntity",
              "type": "address"
            }
          ],
          "internalType": "struct Pharmacy.Product[]",
          "name": "",
          "type": "tuple[]"
        }
      ],
      "stateMutability": "view",
      "type": "function"
    },
    {
      "inputs": [
        {
          "internalType": "uint256",
          "name": "shipment_id",
          "type": "uint256"
        }
      ],
      "name": "get_shipment",
      "outputs": [
        {
          "components": [
            {
              "internalType": "uint256",
              "name": "shipment_id",
              "type": "uint256"
            },
            {
              "internalType": "address",
              "name": "origin",
              "type": "address"
            },
            {
              "internalType": "address",
              "name": "destination",
              "type": "address"
            },
            {
              "internalType": "uint256",
              "name": "date_of_departure",
              "type": "uint256"
            },
            {
              "internalType": "uint256",
              "name": "expected_date_of_arrival",
              "type": "uint256"
            },
            {
              "internalType": "uint256",
              "name": "product_id",
              "type": "uint256"
            }
          ],
          "internalType": "struct Pharmacy.Shipment",
          "name": "",
          "type": "tuple"
        }
      ],
      "stateMutability": "view",
      "type": "function"
    },
    {
      "inputs": [],
      "name": "get_shipments",
      "outputs": [
        {
          "components": [
            {
              "internalType": "uint256",
              "name": "shipment_id",
              "type": "uint256"
            },
            {
              "internalType": "address",
              "name": "origin",
              "type": "address"
            },
            {
              "internalType": "address",
              "name": "destination",
              "type": "address"
            },
            {
              "internalType": "uint256",
              "name": "date_of_departure",
              "type": "uint256"
            },
            {
              "internalType": "uint256",
              "name": "expected_date_of_arrival",
              "type": "uint256"
            },
            {
              "internalType": "uint256",
              "name": "product_id",
              "type": "uint256"
            }
          ],
          "internalType": "struct Pharmacy.Shipment[]",
          "name": "",
          "type": "tuple[]"
        }
      ],
      "stateMutability": "view",
      "type": "function"
    },
    {
      "inputs": [
        {
          "internalType": "uint256",
          "name": "",
          "type": "uint256"
        }
      ],
      "name": "products_index",
      "outputs": [
        {
          "internalType": "uint256",
          "name": "",
          "type": "uint256"
        }
      ],
      "stateMutability": "view",
      "type": "function"
    },
    {
      "inputs": [
        {
          "internalType": "uint256",
          "name": "",
          "type": "uint256"
        }
      ],
      "name": "products_list",
      "outputs": [
        {
          "internalType": "uint256",
          "name": "id",
          "type": "uint256"
        },
        {
          "internalType": "string",
          "name": "name",
          "type": "string"
        },
        {
          "internalType": "uint256",
          "name": "quantity",
          "type": "uint256"
        },
        {
          "internalType": "address",
          "name": "currentScEntity",
          "type": "address"
        }
      ],
      "stateMutability": "view",
      "type": "function"
    },
    {
      "inputs": [
        {
          "internalType": "uint256",
          "name": "",
          "type": "uint256"
        },
        {
          "internalType": "uint256",
          "name": "",
          "type": "uint256"
        }
      ],
      "name": "products_shipments",
      "outputs": [
        {
          "internalType": "uint256",
          "name": "",
          "type": "uint256"
        }
      ],
      "stateMutability": "view",
      "type": "function"
    },
    {
      "inputs": [
        {
          "internalType": "address",
          "name": "entity_address",
          "type": "address"
        }
      ],
      "name": "remove_ScEntity",
      "outputs": [],
      "stateMutability": "nonpayable",
      "type": "function"
    },
    {
      "inputs": [
        {
          "internalType": "uint256",
          "name": "id",
          "type": "uint256"
        }
      ],
      "name": "remove_product",
      "outputs": [],
      "stateMutability": "nonpayable",
      "type": "function"
    },
    {
      "inputs": [
        {
          "internalType": "address",
          "name": "user_address",
          "type": "address"
        }
      ],
      "name": "remove_user",
      "outputs": [],
      "stateMutability": "nonpayable",
      "type": "function"
    },
    {
      "inputs": [
        {
          "internalType": "address",
          "name": "",
          "type": "address"
        }
      ],
      "name": "scEntities_index",
      "outputs": [
        {
          "internalType": "uint256",
          "name": "",
          "type": "uint256"
        }
      ],
      "stateMutability": "view",
      "type": "function"
    },
    {
      "inputs": [
        {
          "internalType": "uint256",
          "name": "",
          "type": "uint256"
        }
      ],
      "name": "scEntities_list",
      "outputs": [
        {
          "internalType": "address",
          "name": "entity_address",
          "type": "address"
        },
        {
          "internalType": "string",
          "name": "name",
          "type": "string"
        },
        {
          "internalType": "enum Pharmacy.EntityType",
          "name": "entity_type",
          "type": "uint8"
        }
      ],
      "stateMutability": "view",
      "type": "function"
    },
    {
      "inputs": [
        {
          "internalType": "uint256",
          "name": "shipment_id",
          "type": "uint256"
        }
      ],
      "name": "set_expected_date_of_arrival",
      "outputs": [],
      "stateMutability": "nonpayable",
      "type": "function"
    },
    {
      "inputs": [
        {
          "internalType": "uint256",
          "name": "",
          "type": "uint256"
        }
      ],
      "name": "shipments_list",
      "outputs": [
        {
          "internalType": "uint256",
          "name": "shipment_id",
          "type": "uint256"
        },
        {
          "internalType": "address",
          "name": "origin",
          "type": "address"
        },
        {
          "internalType": "address",
          "name": "destination",
          "type": "address"
        },
        {
          "internalType": "uint256",
          "name": "date_of_departure",
          "type": "uint256"
        },
        {
          "internalType": "uint256",
          "name": "expected_date_of_arrival",
          "type": "uint256"
        },
        {
          "internalType": "uint256",
          "name": "product_id",
          "type": "uint256"
        }
      ],
      "stateMutability": "view",
      "type": "function"
    },
    {
      "inputs": [
        {
          "internalType": "address",
          "name": "",
          "type": "address"
        }
      ],
      "name": "users",
      "outputs": [
        {
          "internalType": "address",
          "name": "user_address",
          "type": "address"
        },
        {
          "internalType": "string",
          "name": "name",
          "type": "string"
        },
        {
          "internalType": "enum Pharmacy.Role",
          "name": "role",
          "type": "uint8"
        }
      ],
      "stateMutability": "view",
      "type": "function"
    },
    {
      "inputs": [
        {
          "internalType": "address",
          "name": "user_address",
          "type": "address"
        }
      ],
      "name": "view_user",
      "outputs": [
        {
          "components": [
            {
              "internalType": "address",
              "name": "user_address",
              "type": "address"
            },
            {
              "internalType": "string",
              "name": "name",
              "type": "string"
            },
            {
              "internalType": "enum Pharmacy.Role",
              "name": "role",
              "type": "uint8"
            }
          ],
          "internalType": "struct Pharmacy.User",
          "name": "",
          "type": "tuple"
        }
      ],
      "stateMutability": "view",
      "type": "function"
    }
  ],
  "bytecode": "0x608060405260016005553480156200001657600080fd5b50600060405180606001604052803373ffffffffffffffffffffffffffffffffffffffff1681526020016040518060400160405280600581526020017f41646d696e00000000000000000000000000000000000000000000000000000081525081526020016000600381111562000092576200009162000172565b5b8152509050806000803373ffffffffffffffffffffffffffffffffffffffff1673ffffffffffffffffffffffffffffffffffffffff16815260200190815260200160002060008201518160000160006101000a81548173ffffffffffffffffffffffffffffffffffffffff021916908373ffffffffffffffffffffffffffffffffffffffff16021790555060208201518160010190816200013491906200041b565b5060408201518160020160006101000a81548160ff0219169083600381111562000163576200016262000172565b5b02179055509050505062000502565b7f4e487b7100000000000000000000000000000000000000000000000000000000600052602160045260246000fd5b600081519050919050565b7f4e487b7100000000000000000000000000000000000000000000000000000000600052604160045260246000fd5b7f4e487b7100000000000000000000000000000000000000000000000000000000600052602260045260246000fd5b600060028204905060018216806200022357607f821691505b602082108103620002395762000238620001db565b5b50919050565b60008190508160005260206000209050919050565b60006020601f8301049050919050565b600082821b905092915050565b600060088302620002a37fffffffffffffffffffffffffffffffffffffffffffffffffffffffffffffffff8262000264565b620002af868362000264565b95508019841693508086168417925050509392505050565b6000819050919050565b6000819050919050565b6000620002fc620002f6620002f084620002c7565b620002d1565b620002c7565b9050919050565b6000819050919050565b6200031883620002db565b62000330620003278262000303565b84845462000271565b825550505050565b600090565b6200034762000338565b620003548184846200030d565b505050565b5b818110156200037c57620003706000826200033d565b6001810190506200035a565b5050565b601f821115620003cb5762000395816200023f565b620003a08462000254565b81016020851015620003b0578190505b620003c8620003bf8562000254565b83018262000359565b50505b505050565b600082821c905092915050565b6000620003f060001984600802620003d0565b1980831691505092915050565b60006200040b8383620003dd565b9150826002028217905092915050565b6200042682620001a1565b67ffffffffffffffff811115620004425762000441620001ac565b5b6200044e82546200020a565b6200045b82828562000380565b600060209050601f8311600181146200049357600084156200047e578287015190505b6200048a8582620003fd565b865550620004fa565b601f198416620004a3866200023f565b60005b82811015620004cd57848901518255600182019150602085019450602081019050620004a6565b86831015620004ed5784890151620004e9601f891682620003dd565b8355505b6001600288020188555050505b505050505050565b61599380620005126000396000f3fe608060405234801561001057600080fd5b50600436106101725760003560e01c8063a87430ba116100de578063cb40f9d511610097578063efccd4aa11610071578063efccd4aa146104ac578063f7aed773146104ca578063f80e6fe1146104fd578063faecc2461461052d57610172565b8063cb40f9d514610444578063de63918a14610460578063eb54eb051461047c57610172565b8063a87430ba14610369578063b07048d91461039b578063b08806a2146103b7578063b7bdecc9146103ec578063c041fa2714610408578063c17644a81461042657610172565b80632fca0bf7116101305780632fca0bf71461025d5780633490228f1461028d5780636f11432d146102a9578063777138bb146102d95780637bc195bf14610309578063871bb6951461033957610172565b8062709d39146101775780630e326221146101a957806316248fd1146101c55780632120a03b146101f557806323033fe01461021157806326b6be7114610241575b600080fd5b610191600480360381019061018c91906140a4565b61055d565b6040516101a093929190614219565b60405180910390f35b6101c360048036038101906101be91906140a4565b61064c565b005b6101df60048036038101906101da9190614257565b6108d4565b6040516101ec91906142a6565b60405180910390f35b61020f600480360381019061020a91906142ed565b610905565b005b61022b600480360381019061022691906142ed565b610d6a565b60405161023891906143d2565b60405180910390f35b61025b600480360381019061025691906140a4565b610fd1565b005b610277600480360381019061027291906140a4565b610ffe565b60405161028491906142a6565b60405180910390f35b6102a760048036038101906102a29190614529565b611016565b005b6102c360048036038101906102be91906140a4565b611385565b6040516102d0919061460a565b60405180910390f35b6102f360048036038101906102ee91906140a4565b611557565b60405161030091906143d2565b60405180910390f35b610323600480360381019061031e91906140a4565b61164e565b6040516103309190614756565b60405180910390f35b610353600480360381019061034e91906142ed565b611ea9565b6040516103609190614810565b60405180910390f35b610383600480360381019061037e91906142ed565b612131565b60405161039293929190614841565b60405180910390f35b6103b560048036038101906103b091906142ed565b612210565b005b6103d160048036038101906103cc91906140a4565b6124ca565b6040516103e39695949392919061487f565b60405180910390f35b61040660048036038101906104019190614905565b612556565b005b6104106128f3565b60405161041d9190614756565b60405180910390f35b61042e612a26565b60405161043b9190614a99565b60405180910390f35b61045e60048036038101906104599190614abb565b612f2d565b005b61047a60048036038101906104759190614b33565b6136b1565b005b610496600480360381019061049191906142ed565b61399a565b6040516104a391906142a6565b60405180910390f35b6104b46139b2565b6040516104c19190614cb4565b60405180910390f35b6104e460048036038101906104df91906140a4565b613b72565b6040516104f49493929190614cd6565b60405180910390f35b61051760048036038101906105129190614d22565b613c5a565b60405161052491906142a6565b60405180910390f35b610547600480360381019061054291906140a4565b613c8b565b6040516105549190614ddd565b60405180910390f35b6008818154811061056d57600080fd5b90600052602060002090600302016000915090508060000160009054906101000a900473ffffffffffffffffffffffffffffffffffffffff16908060010180546105b690614e27565b80601f01602080910402602001604051908101604052809291908181526020018280546105e290614e27565b801561062f5780601f106106045761010080835404028352916020019161062f565b820191906000526020600020905b81548152906001019060200180831161061257829003601f168201915b5050505050908060020160009054906101000a900460ff16905083565b6000600260008381526020019081526020016000205414158061069457508060066000815481106106805761067f614e58565b5b906000526020600020906004020160000154145b6106d3576040517f08c379a00000000000000000000000000000000000000000000000000000000081526004016106ca90614ed3565b60405180910390fd5b600060026000838152602001908152602001600020549050600660016006805490506106ff9190614f22565b815481106107105761070f614e58565b5b90600052602060002090600402016006828154811061073257610731614e58565b5b9060005260206000209060040201600082015481600001556001820181600101908161075e9190615118565b50600282015481600201556003820160009054906101000a900473ffffffffffffffffffffffffffffffffffffffff168160030160006101000a81548173ffffffffffffffffffffffffffffffffffffffff021916908373ffffffffffffffffffffffffffffffffffffffff1602179055509050508060026000600684815481106107ec576107eb614e58565b5b9060005260206000209060040201600001548152602001908152602001600020819055506002600083815260200190815260200160002060009055600680548061083957610838615200565b5b60019003818190600052602060002090600402016000808201600090556001820160006108669190613ec1565b60028201600090556003820160006101000a81549073ffffffffffffffffffffffffffffffffffffffff0219169055505090557f07015631cff457b5b13492c2045e70c6305a0a4aa773e432e79abbe2cf52c1eb826040516108c891906142a6565b60405180910390a15050565b600460205281600052604060002081815481106108f057600080fd5b90600052602060002001600091509150505481565b600080600381111561091a576109196141a2565b5b6000803373ffffffffffffffffffffffffffffffffffffffff1673ffffffffffffffffffffffffffffffffffffffff16815260200190815260200160002060020160009054906101000a900460ff16600381111561097b5761097a6141a2565b5b146109bb576040517f08c379a00000000000000000000000000000000000000000000000000000000081526004016109b29061527b565b60405180910390fd5b6000600160008473ffffffffffffffffffffffffffffffffffffffff1673ffffffffffffffffffffffffffffffffffffffff16815260200190815260200160002054905060088054905081108015610a8357508273ffffffffffffffffffffffffffffffffffffffff1660088281548110610a3957610a38614e58565b5b906000526020600020906003020160000160009054906101000a900473ffffffffffffffffffffffffffffffffffffffff1673ffffffffffffffffffffffffffffffffffffffff16145b610ac2576040517f08c379a0000000000000000000000000000000000000000000000000000000008152600401610ab9906152e7565b60405180910390fd5b6001600880549050610ad49190614f22565b8114610c755760086001600880549050610aee9190614f22565b81548110610aff57610afe614e58565b5b906000526020600020906003020160088281548110610b2157610b20614e58565b5b90600052602060002090600302016000820160009054906101000a900473ffffffffffffffffffffffffffffffffffffffff168160000160006101000a81548173ffffffffffffffffffffffffffffffffffffffff021916908373ffffffffffffffffffffffffffffffffffffffff16021790555060018201816001019081610baa9190615118565b506002820160009054906101000a900460ff168160020160006101000a81548160ff02191690836005811115610be357610be26141a2565b5b0217905550905050806001600060088481548110610c0457610c03614e58565b5b906000526020600020906003020160000160009054906101000a900473ffffffffffffffffffffffffffffffffffffffff1673ffffffffffffffffffffffffffffffffffffffff1673ffffffffffffffffffffffffffffffffffffffff168152602001908152602001600020819055505b6008805480610c8757610c86615200565b5b6001900381819060005260206000209060030201600080820160006101000a81549073ffffffffffffffffffffffffffffffffffffffff0219169055600182016000610cd39190613ec1565b6002820160006101000a81549060ff021916905550509055600160008473ffffffffffffffffffffffffffffffffffffffff1673ffffffffffffffffffffffffffffffffffffffff168152602001908152602001600020600090557f5d3e2f6091ad4a3a365ae9a6a381688e8e80b4ebb902a5217c76ca91fdff95af83604051610d5d9190615307565b60405180910390a1505050565b610d72613f01565b6000600160008473ffffffffffffffffffffffffffffffffffffffff1673ffffffffffffffffffffffffffffffffffffffff16815260200190815260200160002054905060088054905081108015610e3a57508273ffffffffffffffffffffffffffffffffffffffff1660088281548110610df057610def614e58565b5b906000526020600020906003020160000160009054906101000a900473ffffffffffffffffffffffffffffffffffffffff1673ffffffffffffffffffffffffffffffffffffffff16145b610e79576040517f08c379a0000000000000000000000000000000000000000000000000000000008152600401610e70906152e7565b60405180910390fd5b60088181548110610e8d57610e8c614e58565b5b90600052602060002090600302016040518060600160405290816000820160009054906101000a900473ffffffffffffffffffffffffffffffffffffffff1673ffffffffffffffffffffffffffffffffffffffff1673ffffffffffffffffffffffffffffffffffffffff168152602001600182018054610f0c90614e27565b80601f0160208091040260200160405190810160405280929190818152602001828054610f3890614e27565b8015610f855780601f10610f5a57610100808354040283529160200191610f85565b820191906000526020600020905b815481529060010190602001808311610f6857829003601f168201915b505050505081526020016002820160009054906101000a900460ff166005811115610fb357610fb26141a2565b5b6005811115610fc557610fc46141a2565b5b81525050915050919050565b4260078281548110610fe657610fe5614e58565b5b90600052602060002090600602016004018190555050565b60026020528060005260406000206000915090505481565b6000600160008373ffffffffffffffffffffffffffffffffffffffff1673ffffffffffffffffffffffffffffffffffffffff168152602001908152602001600020549050600880549050811080156110de57508173ffffffffffffffffffffffffffffffffffffffff166008828154811061109457611093614e58565b5b906000526020600020906003020160000160009054906101000a900473ffffffffffffffffffffffffffffffffffffffff1673ffffffffffffffffffffffffffffffffffffffff16145b61111d576040517f08c379a000000000000000000000000000000000000000000000000000000000815260040161111490615394565b60405180910390fd5b60006005811115611131576111306141a2565b5b6008828154811061114557611144614e58565b5b906000526020600020906003020160020160009054906101000a900460ff166005811115611176576111756141a2565b5b146111b6576040517f08c379a00000000000000000000000000000000000000000000000000000000081526004016111ad90615426565b60405180910390fd5b60006040518060800160405280600560008154809291906111d690615446565b9190505581526020018681526020018581526020018473ffffffffffffffffffffffffffffffffffffffff1681525090506006805490506002600083600001518152602001908152602001600020819055506006819080600181540180825580915050600190039060005260206000209060040201600090919091909150600082015181600001556020820151816001019081611273919061548e565b506040820151816002015560608201518160030160006101000a81548173ffffffffffffffffffffffffffffffffffffffff021916908373ffffffffffffffffffffffffffffffffffffffff1602179055505050600360008473ffffffffffffffffffffffffffffffffffffffff1673ffffffffffffffffffffffffffffffffffffffff168152602001908152602001600020816000015190806001815401808255809150506001900390600052602060002001600090919091909150557f2e87df3c8f53fb06266ed52023929f5fab9f24130224ef6538b665d9cac8253081600001518260200151836040015184606001516040516113769493929190614cd6565b60405180910390a15050505050565b61138d613f4a565b600060026000848152602001908152602001600020541415806113d557508160066000815481106113c1576113c0614e58565b5b906000526020600020906004020160000154145b611414576040517f08c379a000000000000000000000000000000000000000000000000000000000815260040161140b90614ed3565b60405180910390fd5b600660026000848152602001908152602001600020548154811061143b5761143a614e58565b5b90600052602060002090600402016040518060800160405290816000820154815260200160018201805461146e90614e27565b80601f016020809104026020016040519081016040528092919081815260200182805461149a90614e27565b80156114e75780601f106114bc576101008083540402835291602001916114e7565b820191906000526020600020905b8154815290600101906020018083116114ca57829003601f168201915b50505050508152602001600282015481526020016003820160009054906101000a900473ffffffffffffffffffffffffffffffffffffffff1673ffffffffffffffffffffffffffffffffffffffff1673ffffffffffffffffffffffffffffffffffffffff16815250509050919050565b61155f613f01565b600060026000848152602001908152602001600020541415806115a7575081600660008154811061159357611592614e58565b5b906000526020600020906004020160000154145b6115e6576040517f08c379a00000000000000000000000000000000000000000000000000000000081526004016115dd90614ed3565b60405180910390fd5b61164760066002600085815260200190815260200160002054815481106116105761160f614e58565b5b906000526020600020906004020160030160009054906101000a900473ffffffffffffffffffffffffffffffffffffffff16610d6a565b9050919050565b6060600060068054905011611698576040517f08c379a000000000000000000000000000000000000000000000000000000000815260040161168f90614ed3565b60405180910390fd5b600060026000848152602001908152602001600020541415806116e057508160066000815481106116cc576116cb614e58565b5b906000526020600020906004020160000154145b61171f576040517f08c379a000000000000000000000000000000000000000000000000000000000815260040161171690614ed3565b60405180910390fd5b60008060003373ffffffffffffffffffffffffffffffffffffffff1673ffffffffffffffffffffffffffffffffffffffff1681526020019081526020016000206040518060600160405290816000820160009054906101000a900473ffffffffffffffffffffffffffffffffffffffff1673ffffffffffffffffffffffffffffffffffffffff1673ffffffffffffffffffffffffffffffffffffffff1681526020016001820180546117d090614e27565b80601f01602080910402602001604051908101604052809291908181526020018280546117fc90614e27565b80156118495780601f1061181e57610100808354040283529160200191611849565b820191906000526020600020905b81548152906001019060200180831161182c57829003601f168201915b505050505081526020016002820160009054906101000a900460ff166003811115611877576118766141a2565b5b6003811115611889576118886141a2565b5b8152505090503373ffffffffffffffffffffffffffffffffffffffff16816000015173ffffffffffffffffffffffffffffffffffffffff1614611901576040517f08c379a00000000000000000000000000000000000000000000000000000000081526004016118f89061527b565b60405180910390fd5b60006004600085815260200190815260200160002080548060200260200160405190810160405280929190818152602001828054801561196057602002820191906000526020600020905b81548152602001906001019080831161194c575b505050505090506001600381111561197b5761197a6141a2565b5b82604001516003811115611992576119916141a2565b5b14806119c65750600260038111156119ad576119ac6141a2565b5b826040015160038111156119c4576119c36141a2565b5b145b15611cf157600080600360003373ffffffffffffffffffffffffffffffffffffffff1673ffffffffffffffffffffffffffffffffffffffff168152602001908152602001600020805480602002602001604051908101604052809291908181526020018280548015611a5757602002820191906000526020600020905b815481526020019060010190808311611a43575b5050505050905060005b8151811015611aa15786828281518110611a7e57611a7d614e58565b5b602002602001015103611a945760019250611aa1565b8080600101915050611a61565b5081611ae2576040517f08c379a0000000000000000000000000000000000000000000000000000000008152600401611ad9906155d2565b60405180910390fd5b600060016003811115611af857611af76141a2565b5b85604001516003811115611b0f57611b0e6141a2565b5b14611b1b576003611b1e565b60025b60ff169050600081855110611b335781611b36565b84515b905060008167ffffffffffffffff811115611b5457611b536143fe565b5b604051908082528060200260200182016040528015611b8d57816020015b611b7a613f88565b815260200190600190039081611b725790505b50905060005b82811015611ce1576007878281518110611bb057611baf614e58565b5b602002602001015181548110611bc957611bc8614e58565b5b90600052602060002090600602016040518060c0016040529081600082015481526020016001820160009054906101000a900473ffffffffffffffffffffffffffffffffffffffff1673ffffffffffffffffffffffffffffffffffffffff1673ffffffffffffffffffffffffffffffffffffffff1681526020016002820160009054906101000a900473ffffffffffffffffffffffffffffffffffffffff1673ffffffffffffffffffffffffffffffffffffffff1673ffffffffffffffffffffffffffffffffffffffff1681526020016003820154815260200160048201548152602001600582015481525050828281518110611cc957611cc8614e58565b5b60200260200101819052508080600101915050611b93565b5080975050505050505050611ea4565b6000815167ffffffffffffffff811115611d0e57611d0d6143fe565b5b604051908082528060200260200182016040528015611d4757816020015b611d34613f88565b815260200190600190039081611d2c5790505b50905060005b8251811015611e9c576007838281518110611d6b57611d6a614e58565b5b602002602001015181548110611d8457611d83614e58565b5b90600052602060002090600602016040518060c0016040529081600082015481526020016001820160009054906101000a900473ffffffffffffffffffffffffffffffffffffffff1673ffffffffffffffffffffffffffffffffffffffff1673ffffffffffffffffffffffffffffffffffffffff1681526020016002820160009054906101000a900473ffffffffffffffffffffffffffffffffffffffff1673ffffffffffffffffffffffffffffffffffffffff1673ffffffffffffffffffffffffffffffffffffffff1681526020016003820154815260200160048201548152602001600582015481525050828281518110611e8457611e83614e58565b5b60200260200101819052508080600101915050611d4d565b508093505050505b919050565b611eb1613fea565b611eef6040518060400160405280601781526020017f766965775f757365722069732072756e6e696e672e2e2e000000000000000000815250613de2565b8173ffffffffffffffffffffffffffffffffffffffff166000808473ffffffffffffffffffffffffffffffffffffffff1673ffffffffffffffffffffffffffffffffffffffff16815260200190815260200160002060000160009054906101000a900473ffffffffffffffffffffffffffffffffffffffff1673ffffffffffffffffffffffffffffffffffffffff1614611fbe576040517f08c379a0000000000000000000000000000000000000000000000000000000008152600401611fb59061563e565b60405180910390fd5b6000808373ffffffffffffffffffffffffffffffffffffffff1673ffffffffffffffffffffffffffffffffffffffff1681526020019081526020016000206040518060600160405290816000820160009054906101000a900473ffffffffffffffffffffffffffffffffffffffff1673ffffffffffffffffffffffffffffffffffffffff1673ffffffffffffffffffffffffffffffffffffffff16815260200160018201805461206d90614e27565b80601f016020809104026020016040519081016040528092919081815260200182805461209990614e27565b80156120e65780601f106120bb576101008083540402835291602001916120e6565b820191906000526020600020905b8154815290600101906020018083116120c957829003601f168201915b505050505081526020016002820160009054906101000a900460ff166003811115612114576121136141a2565b5b6003811115612126576121256141a2565b5b815250509050919050565b60006020528060005260406000206000915090508060000160009054906101000a900473ffffffffffffffffffffffffffffffffffffffff169080600101805461217a90614e27565b80601f01602080910402602001604051908101604052809291908181526020018280546121a690614e27565b80156121f35780601f106121c8576101008083540402835291602001916121f3565b820191906000526020600020905b8154815290600101906020018083116121d657829003601f168201915b5050505050908060020160009054906101000a900460ff16905083565b6000806003811115612225576122246141a2565b5b6000803373ffffffffffffffffffffffffffffffffffffffff1673ffffffffffffffffffffffffffffffffffffffff16815260200190815260200160002060020160009054906101000a900460ff166003811115612286576122856141a2565b5b146122c6576040517f08c379a00000000000000000000000000000000000000000000000000000000081526004016122bd9061527b565b60405180910390fd5b8173ffffffffffffffffffffffffffffffffffffffff166000808473ffffffffffffffffffffffffffffffffffffffff1673ffffffffffffffffffffffffffffffffffffffff16815260200190815260200160002060000160009054906101000a900473ffffffffffffffffffffffffffffffffffffffff1673ffffffffffffffffffffffffffffffffffffffff1614612395576040517f08c379a000000000000000000000000000000000000000000000000000000000815260040161238c9061563e565b60405180910390fd5b8173ffffffffffffffffffffffffffffffffffffffff163373ffffffffffffffffffffffffffffffffffffffff1603612403576040517f08c379a00000000000000000000000000000000000000000000000000000000081526004016123fa906156aa565b60405180910390fd5b6000808373ffffffffffffffffffffffffffffffffffffffff1673ffffffffffffffffffffffffffffffffffffffff168152602001908152602001600020600080820160006101000a81549073ffffffffffffffffffffffffffffffffffffffff02191690556001820160006124799190613ec1565b6002820160006101000a81549060ff021916905550507fe9dce8c992623ce791725b21e857e33248d1f190a25b5168313420eebdaae99d826040516124be9190615307565b60405180910390a15050565b600781815481106124da57600080fd5b90600052602060002090600602016000915090508060000154908060010160009054906101000a900473ffffffffffffffffffffffffffffffffffffffff16908060020160009054906101000a900473ffffffffffffffffffffffffffffffffffffffff16908060030154908060040154908060050154905086565b600080600381111561256b5761256a6141a2565b5b6000803373ffffffffffffffffffffffffffffffffffffffff1673ffffffffffffffffffffffffffffffffffffffff16815260200190815260200160002060020160009054906101000a900460ff1660038111156125cc576125cb6141a2565b5b1461260c576040517f08c379a00000000000000000000000000000000000000000000000000000000081526004016126039061527b565b60405180910390fd5b6000600160008673ffffffffffffffffffffffffffffffffffffffff1673ffffffffffffffffffffffffffffffffffffffff1681526020019081526020016000205414801561271b57506000600880549050148061271a57508373ffffffffffffffffffffffffffffffffffffffff166008600160008773ffffffffffffffffffffffffffffffffffffffff1673ffffffffffffffffffffffffffffffffffffffff16815260200190815260200160002054815481106126cf576126ce614e58565b5b906000526020600020906003020160000160009054906101000a900473ffffffffffffffffffffffffffffffffffffffff1673ffffffffffffffffffffffffffffffffffffffff1614155b5b61275a576040517f08c379a000000000000000000000000000000000000000000000000000000000815260040161275190615716565b60405180910390fd5b600060405180606001604052808673ffffffffffffffffffffffffffffffffffffffff16815260200185815260200184600581111561279c5761279b6141a2565b5b8152509050600880549050600160008773ffffffffffffffffffffffffffffffffffffffff1673ffffffffffffffffffffffffffffffffffffffff16815260200190815260200160002081905550600881908060018154018082558091505060019003906000526020600020906003020160009091909190915060008201518160000160006101000a81548173ffffffffffffffffffffffffffffffffffffffff021916908373ffffffffffffffffffffffffffffffffffffffff1602179055506020820151816001019081612872919061548e565b5060408201518160020160006101000a81548160ff0219169083600581111561289e5761289d6141a2565b5b021790555050507f5e1452cfc728689895f5ea99ed4bb90292b01d5fd117e480c94cddb4e1f5d5ef8160000151826020015183604001516040516128e493929190614219565b60405180910390a15050505050565b60606007805480602002602001604051908101604052809291908181526020016000905b82821015612a1d57838290600052602060002090600602016040518060c0016040529081600082015481526020016001820160009054906101000a900473ffffffffffffffffffffffffffffffffffffffff1673ffffffffffffffffffffffffffffffffffffffff1673ffffffffffffffffffffffffffffffffffffffff1681526020016002820160009054906101000a900473ffffffffffffffffffffffffffffffffffffffff1673ffffffffffffffffffffffffffffffffffffffff1673ffffffffffffffffffffffffffffffffffffffff168152602001600382015481526020016004820154815260200160058201548152505081526020019060010190612917565b50505050905090565b606060016003811115612a3c57612a3b6141a2565b5b6000803373ffffffffffffffffffffffffffffffffffffffff1673ffffffffffffffffffffffffffffffffffffffff16815260200190815260200160002060020160009054906101000a900460ff166003811115612a9d57612a9c6141a2565b5b1480612b1b575060026003811115612ab857612ab76141a2565b5b6000803373ffffffffffffffffffffffffffffffffffffffff1673ffffffffffffffffffffffffffffffffffffffff16815260200190815260200160002060020160009054906101000a900460ff166003811115612b1957612b186141a2565b5b145b15612dd3576000600360003373ffffffffffffffffffffffffffffffffffffffff1673ffffffffffffffffffffffffffffffffffffffff1681526020019081526020016000208054905067ffffffffffffffff811115612b7e57612b7d6143fe565b5b604051908082528060200260200182016040528015612bb757816020015b612ba4613f4a565b815260200190600190039081612b9c5790505b50905060005b600360003373ffffffffffffffffffffffffffffffffffffffff1673ffffffffffffffffffffffffffffffffffffffff16815260200190815260200160002080549050811015612dc957600660026000600360003373ffffffffffffffffffffffffffffffffffffffff1673ffffffffffffffffffffffffffffffffffffffff1681526020019081526020016000208481548110612c5e57612c5d614e58565b5b906000526020600020015481526020019081526020016000205481548110612c8957612c88614e58565b5b906000526020600020906004020160405180608001604052908160008201548152602001600182018054612cbc90614e27565b80601f0160208091040260200160405190810160405280929190818152602001828054612ce890614e27565b8015612d355780601f10612d0a57610100808354040283529160200191612d35565b820191906000526020600020905b815481529060010190602001808311612d1857829003601f168201915b50505050508152602001600282015481526020016003820160009054906101000a900473ffffffffffffffffffffffffffffffffffffffff1673ffffffffffffffffffffffffffffffffffffffff1673ffffffffffffffffffffffffffffffffffffffff1681525050828281518110612db157612db0614e58565b5b60200260200101819052508080600101915050612bbd565b5080915050612f2a565b6006805480602002602001604051908101604052809291908181526020016000905b82821015612f23578382906000526020600020906004020160405180608001604052908160008201548152602001600182018054612e3290614e27565b80601f0160208091040260200160405190810160405280929190818152602001828054612e5e90614e27565b8015612eab5780601f10612e8057610100808354040283529160200191612eab565b820191906000526020600020905b815481529060010190602001808311612e8e57829003601f168201915b50505050508152602001600282015481526020016003820160009054906101000a900473ffffffffffffffffffffffffffffffffffffffff1673ffffffffffffffffffffffffffffffffffffffff1673ffffffffffffffffffffffffffffffffffffffff168152505081526020019060010190612df5565b5050505090505b90565b804210612f6f576040517f08c379a0000000000000000000000000000000000000000000000000000000008152600401612f66906157a8565b60405180910390fd5b600060026000848152602001908152602001600020549050600081141580612fbc5750826006600081548110612fa857612fa7614e58565b5b906000526020600020906004020160000154145b612ffb576040517f08c379a0000000000000000000000000000000000000000000000000000000008152600401612ff290614ed3565b60405180910390fd5b6000600160008673ffffffffffffffffffffffffffffffffffffffff1673ffffffffffffffffffffffffffffffffffffffff168152602001908152602001600020549050600880549050811080156130c357508473ffffffffffffffffffffffffffffffffffffffff166008828154811061307957613078614e58565b5b906000526020600020906003020160000160009054906101000a900473ffffffffffffffffffffffffffffffffffffffff1673ffffffffffffffffffffffffffffffffffffffff16145b613102576040517f08c379a00000000000000000000000000000000000000000000000000000000081526004016130f9906152e7565b60405180910390fd5b60006006838154811061311857613117614e58565b5b90600052602060002090600402016040518060800160405290816000820154815260200160018201805461314b90614e27565b80601f016020809104026020016040519081016040528092919081815260200182805461317790614e27565b80156131c45780601f10613199576101008083540402835291602001916131c4565b820191906000526020600020905b8154815290600101906020018083116131a757829003601f168201915b50505050508152602001600282015481526020016003820160009054906101000a900473ffffffffffffffffffffffffffffffffffffffff1673ffffffffffffffffffffffffffffffffffffffff1673ffffffffffffffffffffffffffffffffffffffff16815250509050600060016000836060015173ffffffffffffffffffffffffffffffffffffffff1673ffffffffffffffffffffffffffffffffffffffff16815260200190815260200160002054905060006008848154811061328d5761328c614e58565b5b906000526020600020906003020160020160009054906101000a900460ff1660058111156132be576132bd6141a2565b5b11801561335e57506001600884815481106132dc576132db614e58565b5b906000526020600020906003020160020160009054906101000a900460ff16600581111561330d5761330c6141a2565b5b6133179190614f22565b6008828154811061332b5761332a614e58565b5b906000526020600020906003020160020160009054906101000a900460ff16600581111561335c5761335b6141a2565b5b145b61339d576040517f08c379a000000000000000000000000000000000000000000000000000000000815260040161339490615814565b60405180910390fd5b60006040518060c001604052806007805490508152602001846060015173ffffffffffffffffffffffffffffffffffffffff1681526020018973ffffffffffffffffffffffffffffffffffffffff168152602001428152602001878152602001888152509050600460008881526020019081526020016000208160000151908060018154018082558091505060019003906000526020600020016000909190919091505560036005811115613455576134546141a2565b5b6008858154811061346957613468614e58565b5b906000526020600020906003020160020160009054906101000a900460ff16600581111561349a576134996141a2565b5b0361350657600360008973ffffffffffffffffffffffffffffffffffffffff1673ffffffffffffffffffffffffffffffffffffffff1681526020019081526020016000208790806001815401808255809150506001900390600052602060002001600090919091909150555b876006868154811061351b5761351a614e58565b5b906000526020600020906004020160030160006101000a81548173ffffffffffffffffffffffffffffffffffffffff021916908373ffffffffffffffffffffffffffffffffffffffff16021790555060078190806001815401808255809150506001900390600052602060002090600602016000909190919091506000820151816000015560208201518160010160006101000a81548173ffffffffffffffffffffffffffffffffffffffff021916908373ffffffffffffffffffffffffffffffffffffffff16021790555060408201518160020160006101000a81548173ffffffffffffffffffffffffffffffffffffffff021916908373ffffffffffffffffffffffffffffffffffffffff160217905550606082015181600301556080820151816004015560a0820151816005015550507f876644f605c09f137e642a100ea79c3ff90507acc401482bbca37fd22ba292cc816000015182602001518360400151846060015185608001518660a0015160405161369f9695949392919061487f565b60405180910390a15050505050505050565b60008060038111156136c6576136c56141a2565b5b6000803373ffffffffffffffffffffffffffffffffffffffff1673ffffffffffffffffffffffffffffffffffffffff16815260200190815260200160002060020160009054906101000a900460ff166003811115613727576137266141a2565b5b14613767576040517f08c379a000000000000000000000000000000000000000000000000000000000815260040161375e9061527b565b60405180910390fd5b8173ffffffffffffffffffffffffffffffffffffffff166000808473ffffffffffffffffffffffffffffffffffffffff1673ffffffffffffffffffffffffffffffffffffffff16815260200190815260200160002060000160009054906101000a900473ffffffffffffffffffffffffffffffffffffffff1673ffffffffffffffffffffffffffffffffffffffff1603613836576040517f08c379a000000000000000000000000000000000000000000000000000000000815260040161382d90615880565b60405180910390fd5b600060405180606001604052808473ffffffffffffffffffffffffffffffffffffffff168152602001868152602001856003811115613878576138776141a2565b5b8152509050806000808573ffffffffffffffffffffffffffffffffffffffff1673ffffffffffffffffffffffffffffffffffffffff16815260200190815260200160002060008201518160000160006101000a81548173ffffffffffffffffffffffffffffffffffffffff021916908373ffffffffffffffffffffffffffffffffffffffff1602179055506020820151816001019081613918919061548e565b5060408201518160020160006101000a81548160ff02191690836003811115613944576139436141a2565b5b02179055509050507f4734c94d88f62c0881093b87207fd9c5d0cbcab7ea0cf7f07370a2952c2f8d6081600001518260200151836040015160405161398b93929190614841565b60405180910390a15050505050565b60016020528060005260406000206000915090505481565b60606139f26040518060400160405280601981526020017f63616c6c696e67206765745f5363456e7469746965732e2e2e00000000000000815250613de2565b6008805480602002602001604051908101604052809291908181526020016000905b82821015613b6957838290600052602060002090600302016040518060600160405290816000820160009054906101000a900473ffffffffffffffffffffffffffffffffffffffff1673ffffffffffffffffffffffffffffffffffffffff1673ffffffffffffffffffffffffffffffffffffffff168152602001600182018054613a9d90614e27565b80601f0160208091040260200160405190810160405280929190818152602001828054613ac990614e27565b8015613b165780601f10613aeb57610100808354040283529160200191613b16565b820191906000526020600020905b815481529060010190602001808311613af957829003601f168201915b505050505081526020016002820160009054906101000a900460ff166005811115613b4457613b436141a2565b5b6005811115613b5657613b556141a2565b5b8152505081526020019060010190613a14565b50505050905090565b60068181548110613b8257600080fd5b9060005260206000209060040201600091509050806000015490806001018054613bab90614e27565b80601f0160208091040260200160405190810160405280929190818152602001828054613bd790614e27565b8015613c245780601f10613bf957610100808354040283529160200191613c24565b820191906000526020600020905b815481529060010190602001808311613c0757829003601f168201915b5050505050908060020154908060030160009054906101000a900473ffffffffffffffffffffffffffffffffffffffff16905084565b60036020528160005260406000208181548110613c7657600080fd5b90600052602060002001600091509150505481565b613c93613f88565b6007805490508210613cda576040517f08c379a0000000000000000000000000000000000000000000000000000000008152600401613cd1906158ec565b60405180910390fd5b60078281548110613cee57613ced614e58565b5b90600052602060002090600602016040518060c0016040529081600082015481526020016001820160009054906101000a900473ffffffffffffffffffffffffffffffffffffffff1673ffffffffffffffffffffffffffffffffffffffff1673ffffffffffffffffffffffffffffffffffffffff1681526020016002820160009054906101000a900473ffffffffffffffffffffffffffffffffffffffff1673ffffffffffffffffffffffffffffffffffffffff1673ffffffffffffffffffffffffffffffffffffffff16815260200160038201548152602001600482015481526020016005820154815250509050919050565b613e7881604051602401613df6919061590c565b6040516020818303038152906040527f41304fac000000000000000000000000000000000000000000000000000000007bffffffffffffffffffffffffffffffffffffffffffffffffffffffff19166020820180517bffffffffffffffffffffffffffffffffffffffffffffffffffffffff8381831617835250505050613e7b565b50565b613e9281613e8a613e95613eb6565b63ffffffff16565b50565b60006a636f6e736f6c652e6c6f679050600080835160208501845afa505050565b614033819050919050565b508054613ecd90614e27565b6000825580601f10613edf5750613efe565b601f016020900490600052602060002090810190613efd919061403d565b5b50565b6040518060600160405280600073ffffffffffffffffffffffffffffffffffffffff1681526020016060815260200160006005811115613f4457613f436141a2565b5b81525090565b6040518060800160405280600081526020016060815260200160008152602001600073ffffffffffffffffffffffffffffffffffffffff1681525090565b6040518060c0016040528060008152602001600073ffffffffffffffffffffffffffffffffffffffff168152602001600073ffffffffffffffffffffffffffffffffffffffff1681526020016000815260200160008152602001600081525090565b6040518060600160405280600073ffffffffffffffffffffffffffffffffffffffff168152602001606081526020016000600381111561402d5761402c6141a2565b5b81525090565b61403b61592e565b565b5b8082111561405657600081600090555060010161403e565b5090565b6000604051905090565b600080fd5b600080fd5b6000819050919050565b6140818161406e565b811461408c57600080fd5b50565b60008135905061409e81614078565b92915050565b6000602082840312156140ba576140b9614064565b5b60006140c88482850161408f565b91505092915050565b600073ffffffffffffffffffffffffffffffffffffffff82169050919050565b60006140fc826140d1565b9050919050565b61410c816140f1565b82525050565b600081519050919050565b600082825260208201905092915050565b60005b8381101561414c578082015181840152602081019050614131565b60008484015250505050565b6000601f19601f8301169050919050565b600061417482614112565b61417e818561411d565b935061418e81856020860161412e565b61419781614158565b840191505092915050565b7f4e487b7100000000000000000000000000000000000000000000000000000000600052602160045260246000fd5b600681106141e2576141e16141a2565b5b50565b60008190506141f3826141d1565b919050565b6000614203826141e5565b9050919050565b614213816141f8565b82525050565b600060608201905061422e6000830186614103565b81810360208301526142408185614169565b905061424f604083018461420a565b949350505050565b6000806040838503121561426e5761426d614064565b5b600061427c8582860161408f565b925050602061428d8582860161408f565b9150509250929050565b6142a08161406e565b82525050565b60006020820190506142bb6000830184614297565b92915050565b6142ca816140f1565b81146142d557600080fd5b50565b6000813590506142e7816142c1565b92915050565b60006020828403121561430357614302614064565b5b6000614311848285016142d8565b91505092915050565b614323816140f1565b82525050565b600082825260208201905092915050565b600061434582614112565b61434f8185614329565b935061435f81856020860161412e565b61436881614158565b840191505092915050565b61437c816141f8565b82525050565b600060608301600083015161439a600086018261431a565b50602083015184820360208601526143b2828261433a565b91505060408301516143c76040860182614373565b508091505092915050565b600060208201905081810360008301526143ec8184614382565b905092915050565b600080fd5b600080fd5b7f4e487b7100000000000000000000000000000000000000000000000000000000600052604160045260246000fd5b61443682614158565b810181811067ffffffffffffffff82111715614455576144546143fe565b5b80604052505050565b600061446861405a565b9050614474828261442d565b919050565b600067ffffffffffffffff821115614494576144936143fe565b5b61449d82614158565b9050602081019050919050565b82818337600083830152505050565b60006144cc6144c784614479565b61445e565b9050828152602081018484840111156144e8576144e76143f9565b5b6144f38482856144aa565b509392505050565b600082601f8301126145105761450f6143f4565b5b81356145208482602086016144b9565b91505092915050565b60008060006060848603121561454257614541614064565b5b600084013567ffffffffffffffff8111156145605761455f614069565b5b61456c868287016144fb565b935050602061457d8682870161408f565b925050604061458e868287016142d8565b9150509250925092565b6145a18161406e565b82525050565b60006080830160008301516145bf6000860182614598565b50602083015184820360208601526145d7828261433a565b91505060408301516145ec6040860182614598565b5060608301516145ff606086018261431a565b508091505092915050565b6000602082019050818103600083015261462481846145a7565b905092915050565b600081519050919050565b600082825260208201905092915050565b6000819050602082019050919050565b60c08201600082015161466e6000850182614598565b506020820151614681602085018261431a565b506040820151614694604085018261431a565b5060608201516146a76060850182614598565b5060808201516146ba6080850182614598565b5060a08201516146cd60a0850182614598565b50505050565b60006146df8383614658565b60c08301905092915050565b6000602082019050919050565b60006147038261462c565b61470d8185614637565b935061471883614648565b8060005b8381101561474957815161473088826146d3565b975061473b836146eb565b92505060018101905061471c565b5085935050505092915050565b6000602082019050818103600083015261477081846146f8565b905092915050565b60048110614789576147886141a2565b5b50565b600081905061479a82614778565b919050565b60006147aa8261478c565b9050919050565b6147ba8161479f565b82525050565b60006060830160008301516147d8600086018261431a565b50602083015184820360208601526147f0828261433a565b915050604083015161480560408601826147b1565b508091505092915050565b6000602082019050818103600083015261482a81846147c0565b905092915050565b61483b8161479f565b82525050565b60006060820190506148566000830186614103565b81810360208301526148688185614169565b90506148776040830184614832565b949350505050565b600060c0820190506148946000830189614297565b6148a16020830188614103565b6148ae6040830187614103565b6148bb6060830186614297565b6148c86080830185614297565b6148d560a0830184614297565b979650505050505050565b600681106148ed57600080fd5b50565b6000813590506148ff816148e0565b92915050565b60008060006060848603121561491e5761491d614064565b5b600061492c868287016142d8565b935050602084013567ffffffffffffffff81111561494d5761494c614069565b5b614959868287016144fb565b925050604061496a868287016148f0565b9150509250925092565b600081519050919050565b600082825260208201905092915050565b6000819050602082019050919050565b60006080830160008301516149b86000860182614598565b50602083015184820360208601526149d0828261433a565b91505060408301516149e56040860182614598565b5060608301516149f8606086018261431a565b508091505092915050565b6000614a0f83836149a0565b905092915050565b6000602082019050919050565b6000614a2f82614974565b614a39818561497f565b935083602082028501614a4b85614990565b8060005b85811015614a875784840389528151614a688582614a03565b9450614a7383614a17565b925060208a01995050600181019050614a4f565b50829750879550505050505092915050565b60006020820190508181036000830152614ab38184614a24565b905092915050565b600080600060608486031215614ad457614ad3614064565b5b6000614ae2868287016142d8565b9350506020614af38682870161408f565b9250506040614b048682870161408f565b9150509250925092565b60048110614b1b57600080fd5b50565b600081359050614b2d81614b0e565b92915050565b600080600060608486031215614b4c57614b4b614064565b5b600084013567ffffffffffffffff811115614b6a57614b69614069565b5b614b76868287016144fb565b9350506020614b8786828701614b1e565b9250506040614b98868287016142d8565b9150509250925092565b600081519050919050565b600082825260208201905092915050565b6000819050602082019050919050565b6000606083016000830151614be6600086018261431a565b5060208301518482036020860152614bfe828261433a565b9150506040830151614c136040860182614373565b508091505092915050565b6000614c2a8383614bce565b905092915050565b6000602082019050919050565b6000614c4a82614ba2565b614c548185614bad565b935083602082028501614c6685614bbe565b8060005b85811015614ca25784840389528151614c838582614c1e565b9450614c8e83614c32565b925060208a01995050600181019050614c6a565b50829750879550505050505092915050565b60006020820190508181036000830152614cce8184614c3f565b905092915050565b6000608082019050614ceb6000830187614297565b8181036020830152614cfd8186614169565b9050614d0c6040830185614297565b614d196060830184614103565b95945050505050565b60008060408385031215614d3957614d38614064565b5b6000614d47858286016142d8565b9250506020614d588582860161408f565b9150509250929050565b60c082016000820151614d786000850182614598565b506020820151614d8b602085018261431a565b506040820151614d9e604085018261431a565b506060820151614db16060850182614598565b506080820151614dc46080850182614598565b5060a0820151614dd760a0850182614598565b50505050565b600060c082019050614df26000830184614d62565b92915050565b7f4e487b7100000000000000000000000000000000000000000000000000000000600052602260045260246000fd5b60006002820490506001821680614e3f57607f821691505b602082108103614e5257614e51614df8565b5b50919050565b7f4e487b7100000000000000000000000000000000000000000000000000000000600052603260045260246000fd5b7f50726f6475637420646f6573206e6f7420657869737421000000000000000000600082015250565b6000614ebd60178361411d565b9150614ec882614e87565b602082019050919050565b60006020820190508181036000830152614eec81614eb0565b9050919050565b7f4e487b7100000000000000000000000000000000000000000000000000000000600052601160045260246000fd5b6000614f2d8261406e565b9150614f388361406e565b9250828203905081811115614f5057614f4f614ef3565b5b92915050565b600081549050614f6581614e27565b9050919050565b60008190508160005260206000209050919050565b60006020601f8301049050919050565b600082821b905092915050565b600060088302614fce7fffffffffffffffffffffffffffffffffffffffffffffffffffffffffffffffff82614f91565b614fd88683614f91565b95508019841693508086168417925050509392505050565b6000819050919050565b600061501561501061500b8461406e565b614ff0565b61406e565b9050919050565b6000819050919050565b61502f83614ffa565b61504361503b8261501c565b848454614f9e565b825550505050565b600090565b61505861504b565b615063818484615026565b505050565b5b818110156150875761507c600082615050565b600181019050615069565b5050565b601f8211156150cc5761509d81614f6c565b6150a684614f81565b810160208510156150b5578190505b6150c96150c185614f81565b830182615068565b50505b505050565b600082821c905092915050565b60006150ef600019846008026150d1565b1980831691505092915050565b600061510883836150de565b9150826002028217905092915050565b8181036151265750506151fe565b61512f82614f56565b67ffffffffffffffff811115615148576151476143fe565b5b6151528254614e27565b61515d82828561508b565b6000601f83116001811461518c576000841561517a578287015490505b61518485826150fc565b8655506151f7565b601f19841661519a87614f6c565b96506151a586614f6c565b60005b828110156151cd578489015482556001820191506001850194506020810190506151a8565b868310156151ea57848901546151e6601f8916826150de565b8355505b6001600288020188555050505b5050505050505b565b7f4e487b7100000000000000000000000000000000000000000000000000000000600052603160045260246000fd5b7f4e6f7420617574686f72697a6564000000000000000000000000000000000000600082015250565b6000615265600e8361411d565b91506152708261522f565b602082019050919050565b6000602082019050818103600083015261529481615258565b9050919050565b7f456e7469747920646f6573206e6f742065786973742100000000000000000000600082015250565b60006152d160168361411d565b91506152dc8261529b565b602082019050919050565b60006020820190508181036000830152615300816152c4565b9050919050565b600060208201905061531c6000830184614103565b92915050565b7f43616e6e6f74206372656174652070726f64756374206265636175736520456e60008201527f7469747920646f6573206e6f7420657869737421000000000000000000000000602082015250565b600061537e60348361411d565b915061538982615322565b604082019050919050565b600060208201905081810360008301526153ad81615371565b9050919050565b7f43616e6e6f74206372656174652070726f64756374206265636175736520456e60008201527f74697479206973206e6f74206120537570706c69657221000000000000000000602082015250565b600061541060378361411d565b915061541b826153b4565b604082019050919050565b6000602082019050818103600083015261543f81615403565b9050919050565b60006154518261406e565b91507fffffffffffffffffffffffffffffffffffffffffffffffffffffffffffffffff820361548357615482614ef3565b5b600182019050919050565b61549782614112565b67ffffffffffffffff8111156154b0576154af6143fe565b5b6154ba8254614e27565b6154c582828561508b565b600060209050601f8311600181146154f857600084156154e6578287015190505b6154f085826150fc565b865550615558565b601f19841661550686614f6c565b60005b8281101561552e57848901518255600182019150602085019450602081019050615509565b8683101561554b5784890151615547601f8916826150de565b8355505b6001600288020188555050505b505050505050565b7f50726f6475637420646f6573206e6f742062656c6f6e6720746f20746865207560008201527f7365720000000000000000000000000000000000000000000000000000000000602082015250565b60006155bc60238361411d565b91506155c782615560565b604082019050919050565b600060208201905081810360008301526155eb816155af565b9050919050565b7f5573657220646f6573206e6f7420657869737421000000000000000000000000600082015250565b600061562860148361411d565b9150615633826155f2565b602082019050919050565b600060208201905081810360008301526156578161561b565b9050919050565b7f41646d696e2063616e27742072656d6f76652068696d73656c66210000000000600082015250565b6000615694601b8361411d565b915061569f8261565e565b602082019050919050565b600060208201905081810360008301526156c381615687565b9050919050565b7f456e7469747920616c7265616479206578697374732100000000000000000000600082015250565b600061570060168361411d565b915061570b826156ca565b602082019050919050565b6000602082019050818103600083015261572f816156f3565b9050919050565b7f45787065637465642064617465206f66206172726976616c2073686f756c642060008201527f62652061667465722064617465206f6620646570617274757265210000000000602082015250565b6000615792603b8361411d565b915061579d82615736565b604082019050919050565b600060208201905081810360008301526157c181615785565b9050919050565b7f57726f6e672064657374696e6174696f6e210000000000000000000000000000600082015250565b60006157fe60128361411d565b9150615809826157c8565b602082019050919050565b6000602082019050818103600083015261582d816157f1565b9050919050565b7f5573657220616c72656164792065786973747300000000000000000000000000600082015250565b600061586a60138361411d565b915061587582615834565b602082019050919050565b600060208201905081810360008301526158998161585d565b9050919050565b7f536869706d656e7420646f6573206e6f74206578697374210000000000000000600082015250565b60006158d660188361411d565b91506158e1826158a0565b602082019050919050565b60006020820190508181036000830152615905816158c9565b9050919050565b600060208201905081810360008301526159268184614169565b905092915050565b7f4e487b7100000000000000000000000000000000000000000000000000000000600052605160045260246000fdfea26469706673582212204e2d5df0f28b5b60ff7234af8efaddee7e6977b2fb11f966f112f6392a53c86564736f6c63430008180033",
  "linkReferences": {},
  "deployedLinkReferences": {}
}