{
  "_format": "hh-sol-artifact-1",
  "contractName": "Pharmacy",
  "sourceName": "contracts/Pharmacy.sol",
  "abi": [
    {
      "inputs": [],
      "stateMutability": "nonpayable",
      "type": "constructor"
    },
    {
      "anonymous": false,
      "inputs": [
        {
          "indexed": false,
          "internalType": "uint256",
          "name": "id",
          "type": "uint256"
        },
        {
          "indexed": false,
          "internalType": "string",
          "name": "name",
          "type": "string"
        },
        {
          "indexed": false,
          "internalType": "uint256",
          "name": "quantity",
          "type": "uint256"
        },
        {
          "indexed": false,
          "internalType": "address",
          "name": "currentScEntity",
          "type": "address"
        }
      ],
      "name": "ProductCreated",
      "type": "event"
    },
    {
      "anonymous": false,
      "inputs": [
        {
          "indexed": false,
          "internalType": "uint256",
          "name": "id",
          "type": "uint256"
        }
      ],
      "name": "ProductRemoved",
      "type": "event"
    },
    {
      "anonymous": false,
      "inputs": [
        {
          "indexed": false,
          "internalType": "address",
          "name": "entity_address",
          "type": "address"
        },
        {
          "indexed": false,
          "internalType": "string",
          "name": "name",
          "type": "string"
        },
        {
          "indexed": false,
          "internalType": "enum Pharmacy.EntityType",
          "name": "entity_type",
          "type": "uint8"
        }
      ],
      "name": "ScEntityCreated",
      "type": "event"
    },
    {
      "anonymous": false,
      "inputs": [
        {
          "indexed": false,
          "internalType": "address",
          "name": "entity_address",
          "type": "address"
        }
      ],
      "name": "ScEntityRemoved",
      "type": "event"
    },
    {
      "anonymous": false,
      "inputs": [
        {
          "indexed": false,
          "internalType": "uint256",
          "name": "shipment_id",
          "type": "uint256"
        },
        {
          "indexed": false,
          "internalType": "address",
          "name": "origin",
          "type": "address"
        },
        {
          "indexed": false,
          "internalType": "address",
          "name": "destination",
          "type": "address"
        },
        {
          "indexed": false,
          "internalType": "uint256",
          "name": "date_of_departure",
          "type": "uint256"
        },
        {
          "indexed": false,
          "internalType": "uint256",
          "name": "expected_date_of_arrival",
          "type": "uint256"
        },
        {
          "indexed": false,
          "internalType": "uint256",
          "name": "product_id",
          "type": "uint256"
        }
      ],
      "name": "ShipmentCreated",
      "type": "event"
    },
    {
      "anonymous": false,
      "inputs": [
        {
          "indexed": false,
          "internalType": "address",
          "name": "user_address",
          "type": "address"
        },
        {
          "indexed": false,
          "internalType": "string",
          "name": "name",
          "type": "string"
        },
        {
          "indexed": false,
          "internalType": "enum Pharmacy.Role",
          "name": "role",
          "type": "uint8"
        }
      ],
      "name": "UserCreated",
      "type": "event"
    },
    {
      "anonymous": false,
      "inputs": [
        {
          "indexed": false,
          "internalType": "address",
          "name": "user_address",
          "type": "address"
        }
      ],
      "name": "UserRemoved",
      "type": "event"
    },
    {
      "inputs": [
        {
          "internalType": "address",
          "name": "entity_address",
          "type": "address"
        },
        {
          "internalType": "string",
          "name": "name",
          "type": "string"
        },
        {
          "internalType": "enum Pharmacy.EntityType",
          "name": "entity_type",
          "type": "uint8"
        }
      ],
      "name": "create_ScEntity",
      "outputs": [],
      "stateMutability": "nonpayable",
      "type": "function"
    },
    {
      "inputs": [
        {
          "internalType": "string",
          "name": "name",
          "type": "string"
        },
        {
          "internalType": "uint256",
          "name": "quantity",
          "type": "uint256"
        },
        {
          "internalType": "address",
          "name": "currentScEntity",
          "type": "address"
        }
      ],
      "name": "create_product",
      "outputs": [],
      "stateMutability": "nonpayable",
      "type": "function"
    },
    {
      "inputs": [
        {
          "internalType": "address",
          "name": "destination",
          "type": "address"
        },
        {
          "internalType": "uint256",
          "name": "product_id",
          "type": "uint256"
        },
        {
          "internalType": "uint256",
          "name": "expected_date_of_arrival",
          "type": "uint256"
        }
      ],
      "name": "create_shipment",
      "outputs": [],
      "stateMutability": "nonpayable",
      "type": "function"
    },
    {
      "inputs": [
        {
          "internalType": "string",
          "name": "name",
          "type": "string"
        },
        {
          "internalType": "enum Pharmacy.Role",
          "name": "role",
          "type": "uint8"
        },
        {
          "internalType": "address",
          "name": "user_address",
          "type": "address"
        }
      ],
      "name": "create_user",
      "outputs": [],
      "stateMutability": "nonpayable",
      "type": "function"
    },
    {
      "inputs": [
        {
          "internalType": "address",
          "name": "",
          "type": "address"
        },
        {
          "internalType": "uint256",
          "name": "",
          "type": "uint256"
        }
      ],
      "name": "entities_products",
      "outputs": [
        {
          "internalType": "uint256",
          "name": "",
          "type": "uint256"
        }
      ],
      "stateMutability": "view",
      "type": "function"
    },
    {
      "inputs": [],
      "name": "get_ScEntities",
      "outputs": [
        {
          "components": [
            {
              "internalType": "address",
              "name": "entity_address",
              "type": "address"
            },
            {
              "internalType": "string",
              "name": "name",
              "type": "string"
            },
            {
              "internalType": "enum Pharmacy.EntityType",
              "name": "entity_type",
              "type": "uint8"
            }
          ],
          "internalType": "struct Pharmacy.ScEntity[]",
          "name": "",
          "type": "tuple[]"
        }
      ],
      "stateMutability": "view",
      "type": "function"
    },
    {
      "inputs": [
        {
          "internalType": "address",
          "name": "entity_address",
          "type": "address"
        }
      ],
      "name": "get_ScEntity",
      "outputs": [
        {
          "components": [
            {
              "internalType": "address",
              "name": "entity_address",
              "type": "address"
            },
            {
              "internalType": "string",
              "name": "name",
              "type": "string"
            },
            {
              "internalType": "enum Pharmacy.EntityType",
              "name": "entity_type",
              "type": "uint8"
            }
          ],
          "internalType": "struct Pharmacy.ScEntity",
          "name": "",
          "type": "tuple"
        }
      ],
      "stateMutability": "view",
      "type": "function"
    },
    {
      "inputs": [
        {
          "internalType": "uint256",
          "name": "id",
          "type": "uint256"
        }
      ],
      "name": "get_product",
      "outputs": [
        {
          "components": [
            {
              "internalType": "uint256",
              "name": "id",
              "type": "uint256"
            },
            {
              "internalType": "string",
              "name": "name",
              "type": "string"
            },
            {
              "internalType": "uint256",
              "name": "quantity",
              "type": "uint256"
            },
            {
              "internalType": "address",
              "name": "currentScEntity",
              "type": "address"
            }
          ],
          "internalType": "struct Pharmacy.Product",
          "name": "",
          "type": "tuple"
        }
      ],
      "stateMutability": "view",
      "type": "function"
    },
    {
      "inputs": [
        {
          "internalType": "uint256",
          "name": "id",
          "type": "uint256"
        }
      ],
      "name": "get_product_entity",
      "outputs": [
        {
          "components": [
            {
              "internalType": "address",
              "name": "entity_address",
              "type": "address"
            },
            {
              "internalType": "string",
              "name": "name",
              "type": "string"
            },
            {
              "internalType": "enum Pharmacy.EntityType",
              "name": "entity_type",
              "type": "uint8"
            }
          ],
          "internalType": "struct Pharmacy.ScEntity",
          "name": "",
          "type": "tuple"
        }
      ],
      "stateMutability": "view",
      "type": "function"
    },
    {
      "inputs": [
        {
          "internalType": "uint256",
          "name": "product_id",
          "type": "uint256"
        }
      ],
      "name": "get_product_shipments",
      "outputs": [
        {
          "components": [
            {
              "internalType": "uint256",
              "name": "shipment_id",
              "type": "uint256"
            },
            {
              "internalType": "address",
              "name": "origin",
              "type": "address"
            },
            {
              "internalType": "address",
              "name": "destination",
              "type": "address"
            },
            {
              "internalType": "uint256",
              "name": "date_of_departure",
              "type": "uint256"
            },
            {
              "internalType": "uint256",
              "name": "expected_date_of_arrival",
              "type": "uint256"
            },
            {
              "internalType": "uint256",
              "name": "product_id",
              "type": "uint256"
            }
          ],
          "internalType": "struct Pharmacy.Shipment[]",
          "name": "",
          "type": "tuple[]"
        }
      ],
      "stateMutability": "view",
      "type": "function"
    },
    {
      "inputs": [],
      "name": "get_products",
      "outputs": [
        {
          "components": [
            {
              "internalType": "uint256",
              "name": "id",
              "type": "uint256"
            },
            {
              "internalType": "string",
              "name": "name",
              "type": "string"
            },
            {
              "internalType": "uint256",
              "name": "quantity",
              "type": "uint256"
            },
            {
              "internalType": "address",
              "name": "currentScEntity",
              "type": "address"
            }
          ],
          "internalType": "struct Pharmacy.Product[]",
          "name": "",
          "type": "tuple[]"
        }
      ],
      "stateMutability": "view",
      "type": "function"
    },
    {
      "inputs": [
        {
          "internalType": "uint256",
          "name": "shipment_id",
          "type": "uint256"
        }
      ],
      "name": "get_shipment",
      "outputs": [
        {
          "components": [
            {
              "internalType": "uint256",
              "name": "shipment_id",
              "type": "uint256"
            },
            {
              "internalType": "address",
              "name": "origin",
              "type": "address"
            },
            {
              "internalType": "address",
              "name": "destination",
              "type": "address"
            },
            {
              "internalType": "uint256",
              "name": "date_of_departure",
              "type": "uint256"
            },
            {
              "internalType": "uint256",
              "name": "expected_date_of_arrival",
              "type": "uint256"
            },
            {
              "internalType": "uint256",
              "name": "product_id",
              "type": "uint256"
            }
          ],
          "internalType": "struct Pharmacy.Shipment",
          "name": "",
          "type": "tuple"
        }
      ],
      "stateMutability": "view",
      "type": "function"
    },
    {
      "inputs": [],
      "name": "get_shipments",
      "outputs": [
        {
          "components": [
            {
              "internalType": "uint256",
              "name": "shipment_id",
              "type": "uint256"
            },
            {
              "internalType": "address",
              "name": "origin",
              "type": "address"
            },
            {
              "internalType": "address",
              "name": "destination",
              "type": "address"
            },
            {
              "internalType": "uint256",
              "name": "date_of_departure",
              "type": "uint256"
            },
            {
              "internalType": "uint256",
              "name": "expected_date_of_arrival",
              "type": "uint256"
            },
            {
              "internalType": "uint256",
              "name": "product_id",
              "type": "uint256"
            }
          ],
          "internalType": "struct Pharmacy.Shipment[]",
          "name": "",
          "type": "tuple[]"
        }
      ],
      "stateMutability": "view",
      "type": "function"
    },
    {
      "inputs": [],
      "name": "get_users_address",
      "outputs": [
        {
          "internalType": "address[]",
          "name": "",
          "type": "address[]"
        }
      ],
      "stateMutability": "view",
      "type": "function"
    },
    {
      "inputs": [
        {
          "internalType": "address[]",
          "name": "available_address",
          "type": "address[]"
        }
      ],
      "name": "init_shipments",
      "outputs": [],
      "stateMutability": "nonpayable",
      "type": "function"
    },
    {
      "inputs": [
        {
          "internalType": "uint256",
          "name": "",
          "type": "uint256"
        }
      ],
      "name": "products_index",
      "outputs": [
        {
          "internalType": "uint256",
          "name": "",
          "type": "uint256"
        }
      ],
      "stateMutability": "view",
      "type": "function"
    },
    {
      "inputs": [
        {
          "internalType": "uint256",
          "name": "",
          "type": "uint256"
        }
      ],
      "name": "products_list",
      "outputs": [
        {
          "internalType": "uint256",
          "name": "id",
          "type": "uint256"
        },
        {
          "internalType": "string",
          "name": "name",
          "type": "string"
        },
        {
          "internalType": "uint256",
          "name": "quantity",
          "type": "uint256"
        },
        {
          "internalType": "address",
          "name": "currentScEntity",
          "type": "address"
        }
      ],
      "stateMutability": "view",
      "type": "function"
    },
    {
      "inputs": [
        {
          "internalType": "uint256",
          "name": "",
          "type": "uint256"
        },
        {
          "internalType": "uint256",
          "name": "",
          "type": "uint256"
        }
      ],
      "name": "products_shipments",
      "outputs": [
        {
          "internalType": "uint256",
          "name": "",
          "type": "uint256"
        }
      ],
      "stateMutability": "view",
      "type": "function"
    },
    {
      "inputs": [
        {
          "internalType": "address",
          "name": "entity_address",
          "type": "address"
        }
      ],
      "name": "remove_ScEntity",
      "outputs": [],
      "stateMutability": "nonpayable",
      "type": "function"
    },
    {
      "inputs": [
        {
          "internalType": "uint256",
          "name": "id",
          "type": "uint256"
        }
      ],
      "name": "remove_product",
      "outputs": [],
      "stateMutability": "nonpayable",
      "type": "function"
    },
    {
      "inputs": [
        {
          "internalType": "address",
          "name": "user_address",
          "type": "address"
        }
      ],
      "name": "remove_user",
      "outputs": [],
      "stateMutability": "nonpayable",
      "type": "function"
    },
    {
      "inputs": [
        {
          "internalType": "address",
          "name": "",
          "type": "address"
        }
      ],
      "name": "scEntities_index",
      "outputs": [
        {
          "internalType": "uint256",
          "name": "",
          "type": "uint256"
        }
      ],
      "stateMutability": "view",
      "type": "function"
    },
    {
      "inputs": [
        {
          "internalType": "uint256",
          "name": "",
          "type": "uint256"
        }
      ],
      "name": "scEntities_list",
      "outputs": [
        {
          "internalType": "address",
          "name": "entity_address",
          "type": "address"
        },
        {
          "internalType": "string",
          "name": "name",
          "type": "string"
        },
        {
          "internalType": "enum Pharmacy.EntityType",
          "name": "entity_type",
          "type": "uint8"
        }
      ],
      "stateMutability": "view",
      "type": "function"
    },
    {
      "inputs": [
        {
          "internalType": "uint256",
          "name": "",
          "type": "uint256"
        }
      ],
      "name": "shipments_list",
      "outputs": [
        {
          "internalType": "uint256",
          "name": "shipment_id",
          "type": "uint256"
        },
        {
          "internalType": "address",
          "name": "origin",
          "type": "address"
        },
        {
          "internalType": "address",
          "name": "destination",
          "type": "address"
        },
        {
          "internalType": "uint256",
          "name": "date_of_departure",
          "type": "uint256"
        },
        {
          "internalType": "uint256",
          "name": "expected_date_of_arrival",
          "type": "uint256"
        },
        {
          "internalType": "uint256",
          "name": "product_id",
          "type": "uint256"
        }
      ],
      "stateMutability": "view",
      "type": "function"
    },
    {
      "inputs": [
        {
          "internalType": "address",
          "name": "",
          "type": "address"
        }
      ],
      "name": "users",
      "outputs": [
        {
          "internalType": "address",
          "name": "user_address",
          "type": "address"
        },
        {
          "internalType": "string",
          "name": "name",
          "type": "string"
        },
        {
          "internalType": "enum Pharmacy.Role",
          "name": "role",
          "type": "uint8"
        }
      ],
      "stateMutability": "view",
      "type": "function"
    },
    {
      "inputs": [
        {
          "internalType": "uint256",
          "name": "",
          "type": "uint256"
        }
      ],
      "name": "users_list",
      "outputs": [
        {
          "internalType": "address",
          "name": "",
          "type": "address"
        }
      ],
      "stateMutability": "view",
      "type": "function"
    },
    {
      "inputs": [
        {
          "internalType": "address",
          "name": "user_address",
          "type": "address"
        }
      ],
      "name": "view_user",
      "outputs": [
        {
          "components": [
            {
              "internalType": "address",
              "name": "user_address",
              "type": "address"
            },
            {
              "internalType": "string",
              "name": "name",
              "type": "string"
            },
            {
              "internalType": "enum Pharmacy.Role",
              "name": "role",
              "type": "uint8"
            }
          ],
          "internalType": "struct Pharmacy.User",
          "name": "",
          "type": "tuple"
        }
      ],
      "stateMutability": "view",
      "type": "function"
    }
  ],
  "bytecode": "0x608060405260016005553480156200001657600080fd5b50600060405180606001604052803373ffffffffffffffffffffffffffffffffffffffff1681526020016040518060400160405280600581526020017f41646d696e000000000000000000000000000000000000000000000000000000815250815260200160006003811115620000925762000091620001d5565b5b8152509050806000803373ffffffffffffffffffffffffffffffffffffffff1673ffffffffffffffffffffffffffffffffffffffff16815260200190815260200160002060008201518160000160006101000a81548173ffffffffffffffffffffffffffffffffffffffff021916908373ffffffffffffffffffffffffffffffffffffffff16021790555060208201518160010190816200013491906200047e565b5060408201518160020160006101000a81548160ff02191690836003811115620001635762000162620001d5565b5b02179055509050506009339080600181540180825580915050600190039060005260206000200160009091909190916101000a81548173ffffffffffffffffffffffffffffffffffffffff021916908373ffffffffffffffffffffffffffffffffffffffff1602179055505062000565565b7f4e487b7100000000000000000000000000000000000000000000000000000000600052602160045260246000fd5b600081519050919050565b7f4e487b7100000000000000000000000000000000000000000000000000000000600052604160045260246000fd5b7f4e487b7100000000000000000000000000000000000000000000000000000000600052602260045260246000fd5b600060028204905060018216806200028657607f821691505b6020821081036200029c576200029b6200023e565b5b50919050565b60008190508160005260206000209050919050565b60006020601f8301049050919050565b600082821b905092915050565b600060088302620003067fffffffffffffffffffffffffffffffffffffffffffffffffffffffffffffffff82620002c7565b620003128683620002c7565b95508019841693508086168417925050509392505050565b6000819050919050565b6000819050919050565b60006200035f6200035962000353846200032a565b62000334565b6200032a565b9050919050565b6000819050919050565b6200037b836200033e565b620003936200038a8262000366565b848454620002d4565b825550505050565b600090565b620003aa6200039b565b620003b781848462000370565b505050565b5b81811015620003df57620003d3600082620003a0565b600181019050620003bd565b5050565b601f8211156200042e57620003f881620002a2565b6200040384620002b7565b8101602085101562000413578190505b6200042b6200042285620002b7565b830182620003bc565b50505b505050565b600082821c905092915050565b6000620004536000198460080262000433565b1980831691505092915050565b60006200046e838362000440565b9150826002028217905092915050565b620004898262000204565b67ffffffffffffffff811115620004a557620004a46200020f565b5b620004b182546200026d565b620004be828285620003e3565b600060209050601f831160018114620004f65760008415620004e1578287015190505b620004ed858262000460565b8655506200055d565b601f1984166200050686620002a2565b60005b82811015620005305784890151825560018201915060208501945060208101905062000509565b868310156200055057848901516200054c601f89168262000440565b8355505b6001600288020188555050505b505050505050565b615e1a80620005756000396000f3fe608060405234801561001057600080fd5b50600436106101a85760003560e01c8063a87430ba116100f9578063dd2d6ac411610097578063efccd4aa11610071578063efccd4aa14610530578063f7aed7731461054e578063f80e6fe114610581578063faecc246146105b1576101a8565b8063dd2d6ac4146104c6578063de63918a146104e4578063eb54eb0514610500576101a8565b8063b7bdecc9116100d3578063b7bdecc914610452578063c041fa271461046e578063c17644a81461048c578063cb40f9d5146104aa576101a8565b8063a87430ba146103cf578063b07048d914610401578063b08806a21461041d576101a8565b80633490228f11610166578063777138bb11610140578063777138bb1461030f5780637bc195bf1461033f578063871bb6951461036f578063a32da9d11461039f576101a8565b80633490228f146102a7578063624387fa146102c35780636f11432d146102df576101a8565b8062709d39146101ad5780630e326221146101df57806316248fd1146101fb5780632120a03b1461022b57806323033fe0146102475780632fca0bf714610277575b600080fd5b6101c760048036038101906101c29190614326565b6105e1565b6040516101d69392919061449b565b60405180910390f35b6101f960048036038101906101f49190614326565b6106d0565b005b610215600480360381019061021091906144d9565b610958565b6040516102229190614528565b60405180910390f35b6102456004803603810190610240919061456f565b610989565b005b610261600480360381019061025c919061456f565b610dee565b60405161026e9190614654565b60405180910390f35b610291600480360381019061028c9190614326565b611055565b60405161029e9190614528565b60405180910390f35b6102c160048036038101906102bc91906147ab565b61106d565b005b6102dd60048036038101906102d8919061487a565b6113dc565b005b6102f960048036038101906102f49190614326565b61152b565b6040516103069190614939565b60405180910390f35b61032960048036038101906103249190614326565b6116fd565b6040516103369190614654565b60405180910390f35b61035960048036038101906103549190614326565b6117f4565b6040516103669190614a85565b60405180910390f35b6103896004803603810190610384919061456f565b611fdd565b6040516103969190614b3f565b60405180910390f35b6103b960048036038101906103b49190614326565b612227565b6040516103c69190614b61565b60405180910390f35b6103e960048036038101906103e4919061456f565b612266565b6040516103f893929190614b8b565b60405180910390f35b61041b6004803603810190610416919061456f565b612345565b005b61043760048036038101906104329190614326565b612782565b60405161044996959493929190614bc9565b60405180910390f35b61046c60048036038101906104679190614c4f565b61280e565b005b610476612bab565b6040516104839190614a85565b60405180910390f35b610494612cde565b6040516104a19190614de3565b60405180910390f35b6104c460048036038101906104bf9190614e05565b6131e5565b005b6104ce613969565b6040516104db9190614f07565b60405180910390f35b6104fe60048036038101906104f99190614f4e565b6139f7565b005b61051a6004803603810190610515919061456f565b613d43565b6040516105279190614528565b60405180910390f35b610538613d5b565b60405161054591906150cf565b60405180910390f35b61056860048036038101906105639190614326565b613edd565b60405161057894939291906150f1565b60405180910390f35b61059b6004803603810190610596919061513d565b613fc5565b6040516105a89190614528565b60405180910390f35b6105cb60048036038101906105c69190614326565b613ff6565b6040516105d891906151f8565b60405180910390f35b600881815481106105f157600080fd5b90600052602060002090600302016000915090508060000160009054906101000a900473ffffffffffffffffffffffffffffffffffffffff169080600101805461063a90615242565b80601f016020809104026020016040519081016040528092919081815260200182805461066690615242565b80156106b35780601f10610688576101008083540402835291602001916106b3565b820191906000526020600020905b81548152906001019060200180831161069657829003601f168201915b5050505050908060020160009054906101000a900460ff16905083565b60006002600083815260200190815260200160002054141580610718575080600660008154811061070457610703615273565b5b906000526020600020906004020160000154145b610757576040517f08c379a000000000000000000000000000000000000000000000000000000000815260040161074e906152ee565b60405180910390fd5b60006002600083815260200190815260200160002054905060066001600680549050610783919061533d565b8154811061079457610793615273565b5b9060005260206000209060040201600682815481106107b6576107b5615273565b5b906000526020600020906004020160008201548160000155600182018160010190816107e29190615533565b50600282015481600201556003820160009054906101000a900473ffffffffffffffffffffffffffffffffffffffff168160030160006101000a81548173ffffffffffffffffffffffffffffffffffffffff021916908373ffffffffffffffffffffffffffffffffffffffff1602179055509050508060026000600684815481106108705761086f615273565b5b906000526020600020906004020160000154815260200190815260200160002081905550600260008381526020019081526020016000206000905560068054806108bd576108bc61561b565b5b60019003818190600052602060002090600402016000808201600090556001820160006108ea919061414d565b60028201600090556003820160006101000a81549073ffffffffffffffffffffffffffffffffffffffff0219169055505090557f07015631cff457b5b13492c2045e70c6305a0a4aa773e432e79abbe2cf52c1eb8260405161094c9190614528565b60405180910390a15050565b6004602052816000526040600020818154811061097457600080fd5b90600052602060002001600091509150505481565b600080600381111561099e5761099d614424565b5b6000803373ffffffffffffffffffffffffffffffffffffffff1673ffffffffffffffffffffffffffffffffffffffff16815260200190815260200160002060020160009054906101000a900460ff1660038111156109ff576109fe614424565b5b14610a3f576040517f08c379a0000000000000000000000000000000000000000000000000000000008152600401610a3690615696565b60405180910390fd5b6000600160008473ffffffffffffffffffffffffffffffffffffffff1673ffffffffffffffffffffffffffffffffffffffff16815260200190815260200160002054905060088054905081108015610b0757508273ffffffffffffffffffffffffffffffffffffffff1660088281548110610abd57610abc615273565b5b906000526020600020906003020160000160009054906101000a900473ffffffffffffffffffffffffffffffffffffffff1673ffffffffffffffffffffffffffffffffffffffff16145b610b46576040517f08c379a0000000000000000000000000000000000000000000000000000000008152600401610b3d90615702565b60405180910390fd5b6001600880549050610b58919061533d565b8114610cf95760086001600880549050610b72919061533d565b81548110610b8357610b82615273565b5b906000526020600020906003020160088281548110610ba557610ba4615273565b5b90600052602060002090600302016000820160009054906101000a900473ffffffffffffffffffffffffffffffffffffffff168160000160006101000a81548173ffffffffffffffffffffffffffffffffffffffff021916908373ffffffffffffffffffffffffffffffffffffffff16021790555060018201816001019081610c2e9190615533565b506002820160009054906101000a900460ff168160020160006101000a81548160ff02191690836005811115610c6757610c66614424565b5b0217905550905050806001600060088481548110610c8857610c87615273565b5b906000526020600020906003020160000160009054906101000a900473ffffffffffffffffffffffffffffffffffffffff1673ffffffffffffffffffffffffffffffffffffffff1673ffffffffffffffffffffffffffffffffffffffff168152602001908152602001600020819055505b6008805480610d0b57610d0a61561b565b5b6001900381819060005260206000209060030201600080820160006101000a81549073ffffffffffffffffffffffffffffffffffffffff0219169055600182016000610d57919061414d565b6002820160006101000a81549060ff021916905550509055600160008473ffffffffffffffffffffffffffffffffffffffff1673ffffffffffffffffffffffffffffffffffffffff168152602001908152602001600020600090557f5d3e2f6091ad4a3a365ae9a6a381688e8e80b4ebb902a5217c76ca91fdff95af83604051610de19190614b61565b60405180910390a1505050565b610df661418d565b6000600160008473ffffffffffffffffffffffffffffffffffffffff1673ffffffffffffffffffffffffffffffffffffffff16815260200190815260200160002054905060088054905081108015610ebe57508273ffffffffffffffffffffffffffffffffffffffff1660088281548110610e7457610e73615273565b5b906000526020600020906003020160000160009054906101000a900473ffffffffffffffffffffffffffffffffffffffff1673ffffffffffffffffffffffffffffffffffffffff16145b610efd576040517f08c379a0000000000000000000000000000000000000000000000000000000008152600401610ef490615702565b60405180910390fd5b60088181548110610f1157610f10615273565b5b90600052602060002090600302016040518060600160405290816000820160009054906101000a900473ffffffffffffffffffffffffffffffffffffffff1673ffffffffffffffffffffffffffffffffffffffff1673ffffffffffffffffffffffffffffffffffffffff168152602001600182018054610f9090615242565b80601f0160208091040260200160405190810160405280929190818152602001828054610fbc90615242565b80156110095780601f10610fde57610100808354040283529160200191611009565b820191906000526020600020905b815481529060010190602001808311610fec57829003601f168201915b505050505081526020016002820160009054906101000a900460ff16600581111561103757611036614424565b5b600581111561104957611048614424565b5b81525050915050919050565b60026020528060005260406000206000915090505481565b6000600160008373ffffffffffffffffffffffffffffffffffffffff1673ffffffffffffffffffffffffffffffffffffffff1681526020019081526020016000205490506008805490508110801561113557508173ffffffffffffffffffffffffffffffffffffffff16600882815481106110eb576110ea615273565b5b906000526020600020906003020160000160009054906101000a900473ffffffffffffffffffffffffffffffffffffffff1673ffffffffffffffffffffffffffffffffffffffff16145b611174576040517f08c379a000000000000000000000000000000000000000000000000000000000815260040161116b90615794565b60405180910390fd5b6000600581111561118857611187614424565b5b6008828154811061119c5761119b615273565b5b906000526020600020906003020160020160009054906101000a900460ff1660058111156111cd576111cc614424565b5b1461120d576040517f08c379a000000000000000000000000000000000000000000000000000000000815260040161120490615826565b60405180910390fd5b600060405180608001604052806005600081548092919061122d90615846565b9190505581526020018681526020018581526020018473ffffffffffffffffffffffffffffffffffffffff16815250905060068054905060026000836000015181526020019081526020016000208190555060068190806001815401808255809150506001900390600052602060002090600402016000909190919091506000820151816000015560208201518160010190816112ca919061588e565b506040820151816002015560608201518160030160006101000a81548173ffffffffffffffffffffffffffffffffffffffff021916908373ffffffffffffffffffffffffffffffffffffffff1602179055505050600360008473ffffffffffffffffffffffffffffffffffffffff1673ffffffffffffffffffffffffffffffffffffffff168152602001908152602001600020816000015190806001815401808255809150506001900390600052602060002001600090919091909150557f2e87df3c8f53fb06266ed52023929f5fab9f24130224ef6538b665d9cac8253081600001518260200151836040015184606001516040516113cd94939291906150f1565b60405180910390a15050505050565b6005828290501015611423576040517f08c379a000000000000000000000000000000000000000000000000000000000815260040161141a906159ac565b60405180910390fd5b3373ffffffffffffffffffffffffffffffffffffffff168282600081811061144e5761144d615273565b5b9050602002016020810190611463919061456f565b73ffffffffffffffffffffffffffffffffffffffff16036114b9576040517f08c379a00000000000000000000000000000000000000000000000000000000081526004016114b090615a18565b60405180910390fd5b6000600190505b600b8110156115265760005b60058110156115185761150b8484838181106114eb576114ea615273565b5b9050602002016020810190611500919061456f565b8363670fc8f36131e5565b80806001019150506114cc565b5080806001019150506114c0565b505050565b6115336141d6565b6000600260008481526020019081526020016000205414158061157b575081600660008154811061156757611566615273565b5b906000526020600020906004020160000154145b6115ba576040517f08c379a00000000000000000000000000000000000000000000000000000000081526004016115b1906152ee565b60405180910390fd5b60066002600084815260200190815260200160002054815481106115e1576115e0615273565b5b90600052602060002090600402016040518060800160405290816000820154815260200160018201805461161490615242565b80601f016020809104026020016040519081016040528092919081815260200182805461164090615242565b801561168d5780601f106116625761010080835404028352916020019161168d565b820191906000526020600020905b81548152906001019060200180831161167057829003601f168201915b50505050508152602001600282015481526020016003820160009054906101000a900473ffffffffffffffffffffffffffffffffffffffff1673ffffffffffffffffffffffffffffffffffffffff1673ffffffffffffffffffffffffffffffffffffffff16815250509050919050565b61170561418d565b6000600260008481526020019081526020016000205414158061174d575081600660008154811061173957611738615273565b5b906000526020600020906004020160000154145b61178c576040517f08c379a0000000000000000000000000000000000000000000000000000000008152600401611783906152ee565b60405180910390fd5b6117ed60066002600085815260200190815260200160002054815481106117b6576117b5615273565b5b906000526020600020906004020160030160009054906101000a900473ffffffffffffffffffffffffffffffffffffffff16610dee565b9050919050565b606060006006805490501161183e576040517f08c379a0000000000000000000000000000000000000000000000000000000008152600401611835906152ee565b60405180910390fd5b60006002600084815260200190815260200160002054141580611886575081600660008154811061187257611871615273565b5b906000526020600020906004020160000154145b6118c5576040517f08c379a00000000000000000000000000000000000000000000000000000000081526004016118bc906152ee565b60405180910390fd5b60008060003373ffffffffffffffffffffffffffffffffffffffff1673ffffffffffffffffffffffffffffffffffffffff1681526020019081526020016000206040518060600160405290816000820160009054906101000a900473ffffffffffffffffffffffffffffffffffffffff1673ffffffffffffffffffffffffffffffffffffffff1673ffffffffffffffffffffffffffffffffffffffff16815260200160018201805461197690615242565b80601f01602080910402602001604051908101604052809291908181526020018280546119a290615242565b80156119ef5780601f106119c4576101008083540402835291602001916119ef565b820191906000526020600020905b8154815290600101906020018083116119d257829003601f168201915b505050505081526020016002820160009054906101000a900460ff166003811115611a1d57611a1c614424565b5b6003811115611a2f57611a2e614424565b5b815250509050600060046000858152602001908152602001600020805480602002602001604051908101604052809291908181526020018280548015611a9457602002820191906000526020600020905b815481526020019060010190808311611a80575b5050505050905060016003811115611aaf57611aae614424565b5b82604001516003811115611ac657611ac5614424565b5b1480611afa575060026003811115611ae157611ae0614424565b5b82604001516003811115611af857611af7614424565b5b145b15611e2557600080600360003373ffffffffffffffffffffffffffffffffffffffff1673ffffffffffffffffffffffffffffffffffffffff168152602001908152602001600020805480602002602001604051908101604052809291908181526020018280548015611b8b57602002820191906000526020600020905b815481526020019060010190808311611b77575b5050505050905060005b8151811015611bd55786828281518110611bb257611bb1615273565b5b602002602001015103611bc85760019250611bd5565b8080600101915050611b95565b5081611c16576040517f08c379a0000000000000000000000000000000000000000000000000000000008152600401611c0d90615aaa565b60405180910390fd5b600060016003811115611c2c57611c2b614424565b5b85604001516003811115611c4357611c42614424565b5b14611c4f576003611c52565b60025b60ff169050600081855110611c675781611c6a565b84515b905060008167ffffffffffffffff811115611c8857611c87614680565b5b604051908082528060200260200182016040528015611cc157816020015b611cae614214565b815260200190600190039081611ca65790505b50905060005b82811015611e15576007878281518110611ce457611ce3615273565b5b602002602001015181548110611cfd57611cfc615273565b5b90600052602060002090600602016040518060c0016040529081600082015481526020016001820160009054906101000a900473ffffffffffffffffffffffffffffffffffffffff1673ffffffffffffffffffffffffffffffffffffffff1673ffffffffffffffffffffffffffffffffffffffff1681526020016002820160009054906101000a900473ffffffffffffffffffffffffffffffffffffffff1673ffffffffffffffffffffffffffffffffffffffff1673ffffffffffffffffffffffffffffffffffffffff1681526020016003820154815260200160048201548152602001600582015481525050828281518110611dfd57611dfc615273565b5b60200260200101819052508080600101915050611cc7565b5080975050505050505050611fd8565b6000815167ffffffffffffffff811115611e4257611e41614680565b5b604051908082528060200260200182016040528015611e7b57816020015b611e68614214565b815260200190600190039081611e605790505b50905060005b8251811015611fd0576007838281518110611e9f57611e9e615273565b5b602002602001015181548110611eb857611eb7615273565b5b90600052602060002090600602016040518060c0016040529081600082015481526020016001820160009054906101000a900473ffffffffffffffffffffffffffffffffffffffff1673ffffffffffffffffffffffffffffffffffffffff1673ffffffffffffffffffffffffffffffffffffffff1681526020016002820160009054906101000a900473ffffffffffffffffffffffffffffffffffffffff1673ffffffffffffffffffffffffffffffffffffffff1673ffffffffffffffffffffffffffffffffffffffff1681526020016003820154815260200160048201548152602001600582015481525050828281518110611fb857611fb7615273565b5b60200260200101819052508080600101915050611e81565b508093505050505b919050565b611fe5614276565b8173ffffffffffffffffffffffffffffffffffffffff166000808473ffffffffffffffffffffffffffffffffffffffff1673ffffffffffffffffffffffffffffffffffffffff16815260200190815260200160002060000160009054906101000a900473ffffffffffffffffffffffffffffffffffffffff1673ffffffffffffffffffffffffffffffffffffffff16146120b4576040517f08c379a00000000000000000000000000000000000000000000000000000000081526004016120ab90615b16565b60405180910390fd5b6000808373ffffffffffffffffffffffffffffffffffffffff1673ffffffffffffffffffffffffffffffffffffffff1681526020019081526020016000206040518060600160405290816000820160009054906101000a900473ffffffffffffffffffffffffffffffffffffffff1673ffffffffffffffffffffffffffffffffffffffff1673ffffffffffffffffffffffffffffffffffffffff16815260200160018201805461216390615242565b80601f016020809104026020016040519081016040528092919081815260200182805461218f90615242565b80156121dc5780601f106121b1576101008083540402835291602001916121dc565b820191906000526020600020905b8154815290600101906020018083116121bf57829003601f168201915b505050505081526020016002820160009054906101000a900460ff16600381111561220a57612209614424565b5b600381111561221c5761221b614424565b5b815250509050919050565b6009818154811061223757600080fd5b906000526020600020016000915054906101000a900473ffffffffffffffffffffffffffffffffffffffff1681565b60006020528060005260406000206000915090508060000160009054906101000a900473ffffffffffffffffffffffffffffffffffffffff16908060010180546122af90615242565b80601f01602080910402602001604051908101604052809291908181526020018280546122db90615242565b80156123285780601f106122fd57610100808354040283529160200191612328565b820191906000526020600020905b81548152906001019060200180831161230b57829003601f168201915b5050505050908060020160009054906101000a900460ff16905083565b600080600381111561235a57612359614424565b5b6000803373ffffffffffffffffffffffffffffffffffffffff1673ffffffffffffffffffffffffffffffffffffffff16815260200190815260200160002060020160009054906101000a900460ff1660038111156123bb576123ba614424565b5b146123fb576040517f08c379a00000000000000000000000000000000000000000000000000000000081526004016123f290615696565b60405180910390fd5b8173ffffffffffffffffffffffffffffffffffffffff166000808473ffffffffffffffffffffffffffffffffffffffff1673ffffffffffffffffffffffffffffffffffffffff16815260200190815260200160002060000160009054906101000a900473ffffffffffffffffffffffffffffffffffffffff1673ffffffffffffffffffffffffffffffffffffffff16146124ca576040517f08c379a00000000000000000000000000000000000000000000000000000000081526004016124c190615b16565b60405180910390fd5b8173ffffffffffffffffffffffffffffffffffffffff163373ffffffffffffffffffffffffffffffffffffffff1603612538576040517f08c379a000000000000000000000000000000000000000000000000000000000815260040161252f90615b82565b60405180910390fd5b6000808373ffffffffffffffffffffffffffffffffffffffff1673ffffffffffffffffffffffffffffffffffffffff168152602001908152602001600020600080820160006101000a81549073ffffffffffffffffffffffffffffffffffffffff02191690556001820160006125ae919061414d565b6002820160006101000a81549060ff0219169055505060005b600980549050811015612746578273ffffffffffffffffffffffffffffffffffffffff16600982815481106125ff576125fe615273565b5b9060005260206000200160009054906101000a900473ffffffffffffffffffffffffffffffffffffffff1673ffffffffffffffffffffffffffffffffffffffff16036127395760096001600980549050612659919061533d565b8154811061266a57612669615273565b5b9060005260206000200160009054906101000a900473ffffffffffffffffffffffffffffffffffffffff16600982815481106126a9576126a8615273565b5b9060005260206000200160006101000a81548173ffffffffffffffffffffffffffffffffffffffff021916908373ffffffffffffffffffffffffffffffffffffffff16021790555060098054806127035761270261561b565b5b6001900381819060005260206000200160006101000a81549073ffffffffffffffffffffffffffffffffffffffff021916905590555b80806001019150506125c7565b507fe9dce8c992623ce791725b21e857e33248d1f190a25b5168313420eebdaae99d826040516127769190614b61565b60405180910390a15050565b6007818154811061279257600080fd5b90600052602060002090600602016000915090508060000154908060010160009054906101000a900473ffffffffffffffffffffffffffffffffffffffff16908060020160009054906101000a900473ffffffffffffffffffffffffffffffffffffffff16908060030154908060040154908060050154905086565b600080600381111561282357612822614424565b5b6000803373ffffffffffffffffffffffffffffffffffffffff1673ffffffffffffffffffffffffffffffffffffffff16815260200190815260200160002060020160009054906101000a900460ff16600381111561288457612883614424565b5b146128c4576040517f08c379a00000000000000000000000000000000000000000000000000000000081526004016128bb90615696565b60405180910390fd5b6000600160008673ffffffffffffffffffffffffffffffffffffffff1673ffffffffffffffffffffffffffffffffffffffff168152602001908152602001600020541480156129d35750600060088054905014806129d257508373ffffffffffffffffffffffffffffffffffffffff166008600160008773ffffffffffffffffffffffffffffffffffffffff1673ffffffffffffffffffffffffffffffffffffffff168152602001908152602001600020548154811061298757612986615273565b5b906000526020600020906003020160000160009054906101000a900473ffffffffffffffffffffffffffffffffffffffff1673ffffffffffffffffffffffffffffffffffffffff1614155b5b612a12576040517f08c379a0000000000000000000000000000000000000000000000000000000008152600401612a0990615bee565b60405180910390fd5b600060405180606001604052808673ffffffffffffffffffffffffffffffffffffffff168152602001858152602001846005811115612a5457612a53614424565b5b8152509050600880549050600160008773ffffffffffffffffffffffffffffffffffffffff1673ffffffffffffffffffffffffffffffffffffffff16815260200190815260200160002081905550600881908060018154018082558091505060019003906000526020600020906003020160009091909190915060008201518160000160006101000a81548173ffffffffffffffffffffffffffffffffffffffff021916908373ffffffffffffffffffffffffffffffffffffffff1602179055506020820151816001019081612b2a919061588e565b5060408201518160020160006101000a81548160ff02191690836005811115612b5657612b55614424565b5b021790555050507f5e1452cfc728689895f5ea99ed4bb90292b01d5fd117e480c94cddb4e1f5d5ef816000015182602001518360400151604051612b9c9392919061449b565b60405180910390a15050505050565b60606007805480602002602001604051908101604052809291908181526020016000905b82821015612cd557838290600052602060002090600602016040518060c0016040529081600082015481526020016001820160009054906101000a900473ffffffffffffffffffffffffffffffffffffffff1673ffffffffffffffffffffffffffffffffffffffff1673ffffffffffffffffffffffffffffffffffffffff1681526020016002820160009054906101000a900473ffffffffffffffffffffffffffffffffffffffff1673ffffffffffffffffffffffffffffffffffffffff1673ffffffffffffffffffffffffffffffffffffffff168152602001600382015481526020016004820154815260200160058201548152505081526020019060010190612bcf565b50505050905090565b606060016003811115612cf457612cf3614424565b5b6000803373ffffffffffffffffffffffffffffffffffffffff1673ffffffffffffffffffffffffffffffffffffffff16815260200190815260200160002060020160009054906101000a900460ff166003811115612d5557612d54614424565b5b1480612dd3575060026003811115612d7057612d6f614424565b5b6000803373ffffffffffffffffffffffffffffffffffffffff1673ffffffffffffffffffffffffffffffffffffffff16815260200190815260200160002060020160009054906101000a900460ff166003811115612dd157612dd0614424565b5b145b1561308b576000600360003373ffffffffffffffffffffffffffffffffffffffff1673ffffffffffffffffffffffffffffffffffffffff1681526020019081526020016000208054905067ffffffffffffffff811115612e3657612e35614680565b5b604051908082528060200260200182016040528015612e6f57816020015b612e5c6141d6565b815260200190600190039081612e545790505b50905060005b600360003373ffffffffffffffffffffffffffffffffffffffff1673ffffffffffffffffffffffffffffffffffffffff1681526020019081526020016000208054905081101561308157600660026000600360003373ffffffffffffffffffffffffffffffffffffffff1673ffffffffffffffffffffffffffffffffffffffff1681526020019081526020016000208481548110612f1657612f15615273565b5b906000526020600020015481526020019081526020016000205481548110612f4157612f40615273565b5b906000526020600020906004020160405180608001604052908160008201548152602001600182018054612f7490615242565b80601f0160208091040260200160405190810160405280929190818152602001828054612fa090615242565b8015612fed5780601f10612fc257610100808354040283529160200191612fed565b820191906000526020600020905b815481529060010190602001808311612fd057829003601f168201915b50505050508152602001600282015481526020016003820160009054906101000a900473ffffffffffffffffffffffffffffffffffffffff1673ffffffffffffffffffffffffffffffffffffffff1673ffffffffffffffffffffffffffffffffffffffff168152505082828151811061306957613068615273565b5b60200260200101819052508080600101915050612e75565b50809150506131e2565b6006805480602002602001604051908101604052809291908181526020016000905b828210156131db5783829060005260206000209060040201604051806080016040529081600082015481526020016001820180546130ea90615242565b80601f016020809104026020016040519081016040528092919081815260200182805461311690615242565b80156131635780601f1061313857610100808354040283529160200191613163565b820191906000526020600020905b81548152906001019060200180831161314657829003601f168201915b50505050508152602001600282015481526020016003820160009054906101000a900473ffffffffffffffffffffffffffffffffffffffff1673ffffffffffffffffffffffffffffffffffffffff1673ffffffffffffffffffffffffffffffffffffffff1681525050815260200190600101906130ad565b5050505090505b90565b804210613227576040517f08c379a000000000000000000000000000000000000000000000000000000000815260040161321e90615c80565b60405180910390fd5b60006002600084815260200190815260200160002054905060008114158061327457508260066000815481106132605761325f615273565b5b906000526020600020906004020160000154145b6132b3576040517f08c379a00000000000000000000000000000000000000000000000000000000081526004016132aa906152ee565b60405180910390fd5b6000600160008673ffffffffffffffffffffffffffffffffffffffff1673ffffffffffffffffffffffffffffffffffffffff1681526020019081526020016000205490506008805490508110801561337b57508473ffffffffffffffffffffffffffffffffffffffff166008828154811061333157613330615273565b5b906000526020600020906003020160000160009054906101000a900473ffffffffffffffffffffffffffffffffffffffff1673ffffffffffffffffffffffffffffffffffffffff16145b6133ba576040517f08c379a00000000000000000000000000000000000000000000000000000000081526004016133b190615702565b60405180910390fd5b6000600683815481106133d0576133cf615273565b5b90600052602060002090600402016040518060800160405290816000820154815260200160018201805461340390615242565b80601f016020809104026020016040519081016040528092919081815260200182805461342f90615242565b801561347c5780601f106134515761010080835404028352916020019161347c565b820191906000526020600020905b81548152906001019060200180831161345f57829003601f168201915b50505050508152602001600282015481526020016003820160009054906101000a900473ffffffffffffffffffffffffffffffffffffffff1673ffffffffffffffffffffffffffffffffffffffff1673ffffffffffffffffffffffffffffffffffffffff16815250509050600060016000836060015173ffffffffffffffffffffffffffffffffffffffff1673ffffffffffffffffffffffffffffffffffffffff16815260200190815260200160002054905060006008848154811061354557613544615273565b5b906000526020600020906003020160020160009054906101000a900460ff16600581111561357657613575614424565b5b118015613616575060016008848154811061359457613593615273565b5b906000526020600020906003020160020160009054906101000a900460ff1660058111156135c5576135c4614424565b5b6135cf919061533d565b600882815481106135e3576135e2615273565b5b906000526020600020906003020160020160009054906101000a900460ff16600581111561361457613613614424565b5b145b613655576040517f08c379a000000000000000000000000000000000000000000000000000000000815260040161364c90615cec565b60405180910390fd5b60006040518060c001604052806007805490508152602001846060015173ffffffffffffffffffffffffffffffffffffffff1681526020018973ffffffffffffffffffffffffffffffffffffffff16815260200142815260200187815260200188815250905060046000888152602001908152602001600020816000015190806001815401808255809150506001900390600052602060002001600090919091909150556003600581111561370d5761370c614424565b5b6008858154811061372157613720615273565b5b906000526020600020906003020160020160009054906101000a900460ff16600581111561375257613751614424565b5b036137be57600360008973ffffffffffffffffffffffffffffffffffffffff1673ffffffffffffffffffffffffffffffffffffffff1681526020019081526020016000208790806001815401808255809150506001900390600052602060002001600090919091909150555b87600686815481106137d3576137d2615273565b5b906000526020600020906004020160030160006101000a81548173ffffffffffffffffffffffffffffffffffffffff021916908373ffffffffffffffffffffffffffffffffffffffff16021790555060078190806001815401808255809150506001900390600052602060002090600602016000909190919091506000820151816000015560208201518160010160006101000a81548173ffffffffffffffffffffffffffffffffffffffff021916908373ffffffffffffffffffffffffffffffffffffffff16021790555060408201518160020160006101000a81548173ffffffffffffffffffffffffffffffffffffffff021916908373ffffffffffffffffffffffffffffffffffffffff160217905550606082015181600301556080820151816004015560a0820151816005015550507f876644f605c09f137e642a100ea79c3ff90507acc401482bbca37fd22ba292cc816000015182602001518360400151846060015185608001518660a0015160405161395796959493929190614bc9565b60405180910390a15050505050505050565b606060098054806020026020016040519081016040528092919081815260200182805480156139ed57602002820191906000526020600020905b8160009054906101000a900473ffffffffffffffffffffffffffffffffffffffff1673ffffffffffffffffffffffffffffffffffffffff16815260200190600101908083116139a3575b5050505050905090565b6000806003811115613a0c57613a0b614424565b5b6000803373ffffffffffffffffffffffffffffffffffffffff1673ffffffffffffffffffffffffffffffffffffffff16815260200190815260200160002060020160009054906101000a900460ff166003811115613a6d57613a6c614424565b5b14613aad576040517f08c379a0000000000000000000000000000000000000000000000000000000008152600401613aa490615696565b60405180910390fd5b8173ffffffffffffffffffffffffffffffffffffffff166000808473ffffffffffffffffffffffffffffffffffffffff1673ffffffffffffffffffffffffffffffffffffffff16815260200190815260200160002060000160009054906101000a900473ffffffffffffffffffffffffffffffffffffffff1673ffffffffffffffffffffffffffffffffffffffff1603613b7c576040517f08c379a0000000000000000000000000000000000000000000000000000000008152600401613b7390615d58565b60405180910390fd5b600060405180606001604052808473ffffffffffffffffffffffffffffffffffffffff168152602001868152602001856003811115613bbe57613bbd614424565b5b8152509050806000808573ffffffffffffffffffffffffffffffffffffffff1673ffffffffffffffffffffffffffffffffffffffff16815260200190815260200160002060008201518160000160006101000a81548173ffffffffffffffffffffffffffffffffffffffff021916908373ffffffffffffffffffffffffffffffffffffffff1602179055506020820151816001019081613c5e919061588e565b5060408201518160020160006101000a81548160ff02191690836003811115613c8a57613c89614424565b5b02179055509050506009339080600181540180825580915050600190039060005260206000200160009091909190916101000a81548173ffffffffffffffffffffffffffffffffffffffff021916908373ffffffffffffffffffffffffffffffffffffffff1602179055507f4734c94d88f62c0881093b87207fd9c5d0cbcab7ea0cf7f07370a2952c2f8d60816000015182602001518360400151604051613d3493929190614b8b565b60405180910390a15050505050565b60016020528060005260406000206000915090505481565b60606008805480602002602001604051908101604052809291908181526020016000905b82821015613ed457838290600052602060002090600302016040518060600160405290816000820160009054906101000a900473ffffffffffffffffffffffffffffffffffffffff1673ffffffffffffffffffffffffffffffffffffffff1673ffffffffffffffffffffffffffffffffffffffff168152602001600182018054613e0890615242565b80601f0160208091040260200160405190810160405280929190818152602001828054613e3490615242565b8015613e815780601f10613e5657610100808354040283529160200191613e81565b820191906000526020600020905b815481529060010190602001808311613e6457829003601f168201915b505050505081526020016002820160009054906101000a900460ff166005811115613eaf57613eae614424565b5b6005811115613ec157613ec0614424565b5b8152505081526020019060010190613d7f565b50505050905090565b60068181548110613eed57600080fd5b9060005260206000209060040201600091509050806000015490806001018054613f1690615242565b80601f0160208091040260200160405190810160405280929190818152602001828054613f4290615242565b8015613f8f5780601f10613f6457610100808354040283529160200191613f8f565b820191906000526020600020905b815481529060010190602001808311613f7257829003601f168201915b5050505050908060020154908060030160009054906101000a900473ffffffffffffffffffffffffffffffffffffffff16905084565b60036020528160005260406000208181548110613fe157600080fd5b90600052602060002001600091509150505481565b613ffe614214565b6007805490508210614045576040517f08c379a000000000000000000000000000000000000000000000000000000000815260040161403c90615dc4565b60405180910390fd5b6007828154811061405957614058615273565b5b90600052602060002090600602016040518060c0016040529081600082015481526020016001820160009054906101000a900473ffffffffffffffffffffffffffffffffffffffff1673ffffffffffffffffffffffffffffffffffffffff1673ffffffffffffffffffffffffffffffffffffffff1681526020016002820160009054906101000a900473ffffffffffffffffffffffffffffffffffffffff1673ffffffffffffffffffffffffffffffffffffffff1673ffffffffffffffffffffffffffffffffffffffff16815260200160038201548152602001600482015481526020016005820154815250509050919050565b50805461415990615242565b6000825580601f1061416b575061418a565b601f01602090049060005260206000209081019061418991906142bf565b5b50565b6040518060600160405280600073ffffffffffffffffffffffffffffffffffffffff16815260200160608152602001600060058111156141d0576141cf614424565b5b81525090565b6040518060800160405280600081526020016060815260200160008152602001600073ffffffffffffffffffffffffffffffffffffffff1681525090565b6040518060c0016040528060008152602001600073ffffffffffffffffffffffffffffffffffffffff168152602001600073ffffffffffffffffffffffffffffffffffffffff1681526020016000815260200160008152602001600081525090565b6040518060600160405280600073ffffffffffffffffffffffffffffffffffffffff16815260200160608152602001600060038111156142b9576142b8614424565b5b81525090565b5b808211156142d85760008160009055506001016142c0565b5090565b6000604051905090565b600080fd5b600080fd5b6000819050919050565b614303816142f0565b811461430e57600080fd5b50565b600081359050614320816142fa565b92915050565b60006020828403121561433c5761433b6142e6565b5b600061434a84828501614311565b91505092915050565b600073ffffffffffffffffffffffffffffffffffffffff82169050919050565b600061437e82614353565b9050919050565b61438e81614373565b82525050565b600081519050919050565b600082825260208201905092915050565b60005b838110156143ce5780820151818401526020810190506143b3565b60008484015250505050565b6000601f19601f8301169050919050565b60006143f682614394565b614400818561439f565b93506144108185602086016143b0565b614419816143da565b840191505092915050565b7f4e487b7100000000000000000000000000000000000000000000000000000000600052602160045260246000fd5b6006811061446457614463614424565b5b50565b600081905061447582614453565b919050565b600061448582614467565b9050919050565b6144958161447a565b82525050565b60006060820190506144b06000830186614385565b81810360208301526144c281856143eb565b90506144d1604083018461448c565b949350505050565b600080604083850312156144f0576144ef6142e6565b5b60006144fe85828601614311565b925050602061450f85828601614311565b9150509250929050565b614522816142f0565b82525050565b600060208201905061453d6000830184614519565b92915050565b61454c81614373565b811461455757600080fd5b50565b60008135905061456981614543565b92915050565b600060208284031215614585576145846142e6565b5b60006145938482850161455a565b91505092915050565b6145a581614373565b82525050565b600082825260208201905092915050565b60006145c782614394565b6145d181856145ab565b93506145e18185602086016143b0565b6145ea816143da565b840191505092915050565b6145fe8161447a565b82525050565b600060608301600083015161461c600086018261459c565b506020830151848203602086015261463482826145bc565b915050604083015161464960408601826145f5565b508091505092915050565b6000602082019050818103600083015261466e8184614604565b905092915050565b600080fd5b600080fd5b7f4e487b7100000000000000000000000000000000000000000000000000000000600052604160045260246000fd5b6146b8826143da565b810181811067ffffffffffffffff821117156146d7576146d6614680565b5b80604052505050565b60006146ea6142dc565b90506146f682826146af565b919050565b600067ffffffffffffffff82111561471657614715614680565b5b61471f826143da565b9050602081019050919050565b82818337600083830152505050565b600061474e614749846146fb565b6146e0565b90508281526020810184848401111561476a5761476961467b565b5b61477584828561472c565b509392505050565b600082601f83011261479257614791614676565b5b81356147a284826020860161473b565b91505092915050565b6000806000606084860312156147c4576147c36142e6565b5b600084013567ffffffffffffffff8111156147e2576147e16142eb565b5b6147ee8682870161477d565b93505060206147ff86828701614311565b92505060406148108682870161455a565b9150509250925092565b600080fd5b600080fd5b60008083601f84011261483a57614839614676565b5b8235905067ffffffffffffffff8111156148575761485661481a565b5b6020830191508360208202830111156148735761487261481f565b5b9250929050565b60008060208385031215614891576148906142e6565b5b600083013567ffffffffffffffff8111156148af576148ae6142eb565b5b6148bb85828601614824565b92509250509250929050565b6148d0816142f0565b82525050565b60006080830160008301516148ee60008601826148c7565b506020830151848203602086015261490682826145bc565b915050604083015161491b60408601826148c7565b50606083015161492e606086018261459c565b508091505092915050565b6000602082019050818103600083015261495381846148d6565b905092915050565b600081519050919050565b600082825260208201905092915050565b6000819050602082019050919050565b60c08201600082015161499d60008501826148c7565b5060208201516149b0602085018261459c565b5060408201516149c3604085018261459c565b5060608201516149d660608501826148c7565b5060808201516149e960808501826148c7565b5060a08201516149fc60a08501826148c7565b50505050565b6000614a0e8383614987565b60c08301905092915050565b6000602082019050919050565b6000614a328261495b565b614a3c8185614966565b9350614a4783614977565b8060005b83811015614a78578151614a5f8882614a02565b9750614a6a83614a1a565b925050600181019050614a4b565b5085935050505092915050565b60006020820190508181036000830152614a9f8184614a27565b905092915050565b60048110614ab857614ab7614424565b5b50565b6000819050614ac982614aa7565b919050565b6000614ad982614abb565b9050919050565b614ae981614ace565b82525050565b6000606083016000830151614b07600086018261459c565b5060208301518482036020860152614b1f82826145bc565b9150506040830151614b346040860182614ae0565b508091505092915050565b60006020820190508181036000830152614b598184614aef565b905092915050565b6000602082019050614b766000830184614385565b92915050565b614b8581614ace565b82525050565b6000606082019050614ba06000830186614385565b8181036020830152614bb281856143eb565b9050614bc16040830184614b7c565b949350505050565b600060c082019050614bde6000830189614519565b614beb6020830188614385565b614bf86040830187614385565b614c056060830186614519565b614c126080830185614519565b614c1f60a0830184614519565b979650505050505050565b60068110614c3757600080fd5b50565b600081359050614c4981614c2a565b92915050565b600080600060608486031215614c6857614c676142e6565b5b6000614c768682870161455a565b935050602084013567ffffffffffffffff811115614c9757614c966142eb565b5b614ca38682870161477d565b9250506040614cb486828701614c3a565b9150509250925092565b600081519050919050565b600082825260208201905092915050565b6000819050602082019050919050565b6000608083016000830151614d0260008601826148c7565b5060208301518482036020860152614d1a82826145bc565b9150506040830151614d2f60408601826148c7565b506060830151614d42606086018261459c565b508091505092915050565b6000614d598383614cea565b905092915050565b6000602082019050919050565b6000614d7982614cbe565b614d838185614cc9565b935083602082028501614d9585614cda565b8060005b85811015614dd15784840389528151614db28582614d4d565b9450614dbd83614d61565b925060208a01995050600181019050614d99565b50829750879550505050505092915050565b60006020820190508181036000830152614dfd8184614d6e565b905092915050565b600080600060608486031215614e1e57614e1d6142e6565b5b6000614e2c8682870161455a565b9350506020614e3d86828701614311565b9250506040614e4e86828701614311565b9150509250925092565b600081519050919050565b600082825260208201905092915050565b6000819050602082019050919050565b6000614e90838361459c565b60208301905092915050565b6000602082019050919050565b6000614eb482614e58565b614ebe8185614e63565b9350614ec983614e74565b8060005b83811015614efa578151614ee18882614e84565b9750614eec83614e9c565b925050600181019050614ecd565b5085935050505092915050565b60006020820190508181036000830152614f218184614ea9565b905092915050565b60048110614f3657600080fd5b50565b600081359050614f4881614f29565b92915050565b600080600060608486031215614f6757614f666142e6565b5b600084013567ffffffffffffffff811115614f8557614f846142eb565b5b614f918682870161477d565b9350506020614fa286828701614f39565b9250506040614fb38682870161455a565b9150509250925092565b600081519050919050565b600082825260208201905092915050565b6000819050602082019050919050565b6000606083016000830151615001600086018261459c565b506020830151848203602086015261501982826145bc565b915050604083015161502e60408601826145f5565b508091505092915050565b60006150458383614fe9565b905092915050565b6000602082019050919050565b600061506582614fbd565b61506f8185614fc8565b93508360208202850161508185614fd9565b8060005b858110156150bd578484038952815161509e8582615039565b94506150a98361504d565b925060208a01995050600181019050615085565b50829750879550505050505092915050565b600060208201905081810360008301526150e9818461505a565b905092915050565b60006080820190506151066000830187614519565b818103602083015261511881866143eb565b90506151276040830185614519565b6151346060830184614385565b95945050505050565b60008060408385031215615154576151536142e6565b5b60006151628582860161455a565b925050602061517385828601614311565b9150509250929050565b60c08201600082015161519360008501826148c7565b5060208201516151a6602085018261459c565b5060408201516151b9604085018261459c565b5060608201516151cc60608501826148c7565b5060808201516151df60808501826148c7565b5060a08201516151f260a08501826148c7565b50505050565b600060c08201905061520d600083018461517d565b92915050565b7f4e487b7100000000000000000000000000000000000000000000000000000000600052602260045260246000fd5b6000600282049050600182168061525a57607f821691505b60208210810361526d5761526c615213565b5b50919050565b7f4e487b7100000000000000000000000000000000000000000000000000000000600052603260045260246000fd5b7f50726f6475637420646f6573206e6f7420657869737421000000000000000000600082015250565b60006152d860178361439f565b91506152e3826152a2565b602082019050919050565b60006020820190508181036000830152615307816152cb565b9050919050565b7f4e487b7100000000000000000000000000000000000000000000000000000000600052601160045260246000fd5b6000615348826142f0565b9150615353836142f0565b925082820390508181111561536b5761536a61530e565b5b92915050565b60008154905061538081615242565b9050919050565b60008190508160005260206000209050919050565b60006020601f8301049050919050565b600082821b905092915050565b6000600883026153e97fffffffffffffffffffffffffffffffffffffffffffffffffffffffffffffffff826153ac565b6153f386836153ac565b95508019841693508086168417925050509392505050565b6000819050919050565b600061543061542b615426846142f0565b61540b565b6142f0565b9050919050565b6000819050919050565b61544a83615415565b61545e61545682615437565b8484546153b9565b825550505050565b600090565b615473615466565b61547e818484615441565b505050565b5b818110156154a25761549760008261546b565b600181019050615484565b5050565b601f8211156154e7576154b881615387565b6154c18461539c565b810160208510156154d0578190505b6154e46154dc8561539c565b830182615483565b50505b505050565b600082821c905092915050565b600061550a600019846008026154ec565b1980831691505092915050565b600061552383836154f9565b9150826002028217905092915050565b818103615541575050615619565b61554a82615371565b67ffffffffffffffff81111561556357615562614680565b5b61556d8254615242565b6155788282856154a6565b6000601f8311600181146155a75760008415615595578287015490505b61559f8582615517565b865550615612565b601f1984166155b587615387565b96506155c086615387565b60005b828110156155e8578489015482556001820191506001850194506020810190506155c3565b868310156156055784890154615601601f8916826154f9565b8355505b6001600288020188555050505b5050505050505b565b7f4e487b7100000000000000000000000000000000000000000000000000000000600052603160045260246000fd5b7f4e6f7420617574686f72697a6564000000000000000000000000000000000000600082015250565b6000615680600e8361439f565b915061568b8261564a565b602082019050919050565b600060208201905081810360008301526156af81615673565b9050919050565b7f456e7469747920646f6573206e6f742065786973742100000000000000000000600082015250565b60006156ec60168361439f565b91506156f7826156b6565b602082019050919050565b6000602082019050818103600083015261571b816156df565b9050919050565b7f43616e6e6f74206372656174652070726f64756374206265636175736520456e60008201527f7469747920646f6573206e6f7420657869737421000000000000000000000000602082015250565b600061577e60348361439f565b915061578982615722565b604082019050919050565b600060208201905081810360008301526157ad81615771565b9050919050565b7f43616e6e6f74206372656174652070726f64756374206265636175736520456e60008201527f74697479206973206e6f74206120537570706c69657221000000000000000000602082015250565b600061581060378361439f565b915061581b826157b4565b604082019050919050565b6000602082019050818103600083015261583f81615803565b9050919050565b6000615851826142f0565b91507fffffffffffffffffffffffffffffffffffffffffffffffffffffffffffffffff82036158835761588261530e565b5b600182019050919050565b61589782614394565b67ffffffffffffffff8111156158b0576158af614680565b5b6158ba8254615242565b6158c58282856154a6565b600060209050601f8311600181146158f857600084156158e6578287015190505b6158f08582615517565b865550615958565b601f19841661590686615387565b60005b8281101561592e57848901518255600182019150602085019450602081019050615909565b8683101561594b5784890151615947601f8916826154f9565b8355505b6001600288020188555050505b505050505050565b7f496e73756666696369656e74206164647265737365732070726f766964656400600082015250565b6000615996601f8361439f565b91506159a182615960565b602082019050919050565b600060208201905081810360008301526159c581615989565b9050919050565b7f4669727374206163636f756e74206d757374206e6f742062652061646d696e00600082015250565b6000615a02601f8361439f565b9150615a0d826159cc565b602082019050919050565b60006020820190508181036000830152615a31816159f5565b9050919050565b7f50726f6475637420646f6573206e6f742062656c6f6e6720746f20746865207560008201527f7365720000000000000000000000000000000000000000000000000000000000602082015250565b6000615a9460238361439f565b9150615a9f82615a38565b604082019050919050565b60006020820190508181036000830152615ac381615a87565b9050919050565b7f5573657220646f6573206e6f7420657869737421000000000000000000000000600082015250565b6000615b0060148361439f565b9150615b0b82615aca565b602082019050919050565b60006020820190508181036000830152615b2f81615af3565b9050919050565b7f41646d696e2063616e27742072656d6f76652068696d73656c66210000000000600082015250565b6000615b6c601b8361439f565b9150615b7782615b36565b602082019050919050565b60006020820190508181036000830152615b9b81615b5f565b9050919050565b7f456e7469747920616c7265616479206578697374732100000000000000000000600082015250565b6000615bd860168361439f565b9150615be382615ba2565b602082019050919050565b60006020820190508181036000830152615c0781615bcb565b9050919050565b7f45787065637465642064617465206f66206172726976616c2073686f756c642060008201527f62652061667465722064617465206f6620646570617274757265210000000000602082015250565b6000615c6a603b8361439f565b9150615c7582615c0e565b604082019050919050565b60006020820190508181036000830152615c9981615c5d565b9050919050565b7f57726f6e672064657374696e6174696f6e210000000000000000000000000000600082015250565b6000615cd660128361439f565b9150615ce182615ca0565b602082019050919050565b60006020820190508181036000830152615d0581615cc9565b9050919050565b7f5573657220616c72656164792065786973747300000000000000000000000000600082015250565b6000615d4260138361439f565b9150615d4d82615d0c565b602082019050919050565b60006020820190508181036000830152615d7181615d35565b9050919050565b7f536869706d656e7420646f6573206e6f74206578697374210000000000000000600082015250565b6000615dae60188361439f565b9150615db982615d78565b602082019050919050565b60006020820190508181036000830152615ddd81615da1565b905091905056fea2646970667358221220c1c32ca19f69a3c0283ee3079312fc51ddc55260dcc5e0eeee626e8aad3a9d0864736f6c63430008180033",
  "linkReferences": {},
  "deployedLinkReferences": {}
}