{
  "_format": "hh-sol-artifact-1",
  "contractName": "Pharmacy",
  "sourceName": "contracts/Pharmacy.sol",
  "abi": [
    {
      "inputs": [],
      "stateMutability": "nonpayable",
      "type": "constructor"
    },
    {
      "anonymous": false,
      "inputs": [
        {
          "indexed": false,
          "internalType": "uint256",
          "name": "id",
          "type": "uint256"
        },
        {
          "indexed": false,
          "internalType": "string",
          "name": "name",
          "type": "string"
        },
        {
          "indexed": false,
          "internalType": "uint256",
          "name": "quantity",
          "type": "uint256"
        },
        {
          "indexed": false,
          "internalType": "address",
          "name": "currentScEntity",
          "type": "address"
        }
      ],
      "name": "ProductCreated",
      "type": "event"
    },
    {
      "anonymous": false,
      "inputs": [
        {
          "indexed": false,
          "internalType": "uint256",
          "name": "id",
          "type": "uint256"
        }
      ],
      "name": "ProductRemoved",
      "type": "event"
    },
    {
      "anonymous": false,
      "inputs": [
        {
          "indexed": false,
          "internalType": "address",
          "name": "entity_address",
          "type": "address"
        },
        {
          "indexed": false,
          "internalType": "string",
          "name": "name",
          "type": "string"
        },
        {
          "indexed": false,
          "internalType": "enum Pharmacy.EntityType",
          "name": "entity_type",
          "type": "uint8"
        }
      ],
      "name": "ScEntityCreated",
      "type": "event"
    },
    {
      "anonymous": false,
      "inputs": [
        {
          "indexed": false,
          "internalType": "address",
          "name": "entity_address",
          "type": "address"
        }
      ],
      "name": "ScEntityRemoved",
      "type": "event"
    },
    {
      "anonymous": false,
      "inputs": [
        {
          "indexed": false,
          "internalType": "uint256",
          "name": "shipment_id",
          "type": "uint256"
        },
        {
          "indexed": false,
          "internalType": "address",
          "name": "origin",
          "type": "address"
        },
        {
          "indexed": false,
          "internalType": "address",
          "name": "destination",
          "type": "address"
        },
        {
          "indexed": false,
          "internalType": "uint256",
          "name": "date_of_departure",
          "type": "uint256"
        },
        {
          "indexed": false,
          "internalType": "uint256",
          "name": "expected_date_of_arrival",
          "type": "uint256"
        },
        {
          "indexed": false,
          "internalType": "uint256",
          "name": "product_id",
          "type": "uint256"
        }
      ],
      "name": "ShipmentCreated",
      "type": "event"
    },
    {
      "anonymous": false,
      "inputs": [
        {
          "indexed": false,
          "internalType": "address",
          "name": "user_address",
          "type": "address"
        },
        {
          "indexed": false,
          "internalType": "string",
          "name": "name",
          "type": "string"
        },
        {
          "indexed": false,
          "internalType": "enum Pharmacy.Role",
          "name": "role",
          "type": "uint8"
        }
      ],
      "name": "UserCreated",
      "type": "event"
    },
    {
      "anonymous": false,
      "inputs": [
        {
          "indexed": false,
          "internalType": "address",
          "name": "user_address",
          "type": "address"
        }
      ],
      "name": "UserRemoved",
      "type": "event"
    },
    {
      "inputs": [
        {
          "internalType": "address",
          "name": "entity_address",
          "type": "address"
        },
        {
          "internalType": "string",
          "name": "name",
          "type": "string"
        },
        {
          "internalType": "enum Pharmacy.EntityType",
          "name": "entity_type",
          "type": "uint8"
        }
      ],
      "name": "create_ScEntity",
      "outputs": [],
      "stateMutability": "nonpayable",
      "type": "function"
    },
    {
      "inputs": [
        {
          "internalType": "string",
          "name": "name",
          "type": "string"
        },
        {
          "internalType": "uint256",
          "name": "quantity",
          "type": "uint256"
        },
        {
          "internalType": "address",
          "name": "currentScEntity",
          "type": "address"
        }
      ],
      "name": "create_product",
      "outputs": [],
      "stateMutability": "nonpayable",
      "type": "function"
    },
    {
      "inputs": [
        {
          "internalType": "address",
          "name": "destination",
          "type": "address"
        },
        {
          "internalType": "uint256",
          "name": "product_id",
          "type": "uint256"
        },
        {
          "internalType": "uint256",
          "name": "expected_date_of_arrival",
          "type": "uint256"
        }
      ],
      "name": "create_shipment",
      "outputs": [],
      "stateMutability": "nonpayable",
      "type": "function"
    },
    {
      "inputs": [
        {
          "internalType": "string",
          "name": "name",
          "type": "string"
        },
        {
          "internalType": "enum Pharmacy.Role",
          "name": "role",
          "type": "uint8"
        },
        {
          "internalType": "address",
          "name": "user_address",
          "type": "address"
        }
      ],
      "name": "create_user",
      "outputs": [],
      "stateMutability": "nonpayable",
      "type": "function"
    },
    {
      "inputs": [
        {
          "internalType": "address",
          "name": "",
          "type": "address"
        },
        {
          "internalType": "uint256",
          "name": "",
          "type": "uint256"
        }
      ],
      "name": "entities_products",
      "outputs": [
        {
          "internalType": "uint256",
          "name": "",
          "type": "uint256"
        }
      ],
      "stateMutability": "view",
      "type": "function"
    },
    {
      "inputs": [],
      "name": "get_ScEntities",
      "outputs": [
        {
          "components": [
            {
              "internalType": "address",
              "name": "entity_address",
              "type": "address"
            },
            {
              "internalType": "string",
              "name": "name",
              "type": "string"
            },
            {
              "internalType": "enum Pharmacy.EntityType",
              "name": "entity_type",
              "type": "uint8"
            }
          ],
          "internalType": "struct Pharmacy.ScEntity[]",
          "name": "",
          "type": "tuple[]"
        }
      ],
      "stateMutability": "view",
      "type": "function"
    },
    {
      "inputs": [
        {
          "internalType": "address",
          "name": "entity_address",
          "type": "address"
        }
      ],
      "name": "get_ScEntity",
      "outputs": [
        {
          "components": [
            {
              "internalType": "address",
              "name": "entity_address",
              "type": "address"
            },
            {
              "internalType": "string",
              "name": "name",
              "type": "string"
            },
            {
              "internalType": "enum Pharmacy.EntityType",
              "name": "entity_type",
              "type": "uint8"
            }
          ],
          "internalType": "struct Pharmacy.ScEntity",
          "name": "",
          "type": "tuple"
        }
      ],
      "stateMutability": "view",
      "type": "function"
    },
    {
      "inputs": [
        {
          "internalType": "uint256",
          "name": "id",
          "type": "uint256"
        }
      ],
      "name": "get_product",
      "outputs": [
        {
          "components": [
            {
              "internalType": "uint256",
              "name": "id",
              "type": "uint256"
            },
            {
              "internalType": "string",
              "name": "name",
              "type": "string"
            },
            {
              "internalType": "uint256",
              "name": "quantity",
              "type": "uint256"
            },
            {
              "internalType": "address",
              "name": "currentScEntity",
              "type": "address"
            }
          ],
          "internalType": "struct Pharmacy.Product",
          "name": "",
          "type": "tuple"
        }
      ],
      "stateMutability": "view",
      "type": "function"
    },
    {
      "inputs": [
        {
          "internalType": "uint256",
          "name": "id",
          "type": "uint256"
        }
      ],
      "name": "get_product_entity",
      "outputs": [
        {
          "components": [
            {
              "internalType": "address",
              "name": "entity_address",
              "type": "address"
            },
            {
              "internalType": "string",
              "name": "name",
              "type": "string"
            },
            {
              "internalType": "enum Pharmacy.EntityType",
              "name": "entity_type",
              "type": "uint8"
            }
          ],
          "internalType": "struct Pharmacy.ScEntity",
          "name": "",
          "type": "tuple"
        }
      ],
      "stateMutability": "view",
      "type": "function"
    },
    {
      "inputs": [
        {
          "internalType": "uint256",
          "name": "product_id",
          "type": "uint256"
        }
      ],
      "name": "get_product_shipments",
      "outputs": [
        {
          "components": [
            {
              "internalType": "uint256",
              "name": "shipment_id",
              "type": "uint256"
            },
            {
              "internalType": "address",
              "name": "origin",
              "type": "address"
            },
            {
              "internalType": "address",
              "name": "destination",
              "type": "address"
            },
            {
              "internalType": "uint256",
              "name": "date_of_departure",
              "type": "uint256"
            },
            {
              "internalType": "uint256",
              "name": "expected_date_of_arrival",
              "type": "uint256"
            },
            {
              "internalType": "uint256",
              "name": "product_id",
              "type": "uint256"
            }
          ],
          "internalType": "struct Pharmacy.Shipment[]",
          "name": "",
          "type": "tuple[]"
        }
      ],
      "stateMutability": "view",
      "type": "function"
    },
    {
      "inputs": [],
      "name": "get_products",
      "outputs": [
        {
          "components": [
            {
              "internalType": "uint256",
              "name": "id",
              "type": "uint256"
            },
            {
              "internalType": "string",
              "name": "name",
              "type": "string"
            },
            {
              "internalType": "uint256",
              "name": "quantity",
              "type": "uint256"
            },
            {
              "internalType": "address",
              "name": "currentScEntity",
              "type": "address"
            }
          ],
          "internalType": "struct Pharmacy.Product[]",
          "name": "",
          "type": "tuple[]"
        }
      ],
      "stateMutability": "view",
      "type": "function"
    },
    {
      "inputs": [
        {
          "internalType": "uint256",
          "name": "shipment_id",
          "type": "uint256"
        }
      ],
      "name": "get_shipment",
      "outputs": [
        {
          "components": [
            {
              "internalType": "uint256",
              "name": "shipment_id",
              "type": "uint256"
            },
            {
              "internalType": "address",
              "name": "origin",
              "type": "address"
            },
            {
              "internalType": "address",
              "name": "destination",
              "type": "address"
            },
            {
              "internalType": "uint256",
              "name": "date_of_departure",
              "type": "uint256"
            },
            {
              "internalType": "uint256",
              "name": "expected_date_of_arrival",
              "type": "uint256"
            },
            {
              "internalType": "uint256",
              "name": "product_id",
              "type": "uint256"
            }
          ],
          "internalType": "struct Pharmacy.Shipment",
          "name": "",
          "type": "tuple"
        }
      ],
      "stateMutability": "view",
      "type": "function"
    },
    {
      "inputs": [],
      "name": "get_shipments",
      "outputs": [
        {
          "components": [
            {
              "internalType": "uint256",
              "name": "shipment_id",
              "type": "uint256"
            },
            {
              "internalType": "address",
              "name": "origin",
              "type": "address"
            },
            {
              "internalType": "address",
              "name": "destination",
              "type": "address"
            },
            {
              "internalType": "uint256",
              "name": "date_of_departure",
              "type": "uint256"
            },
            {
              "internalType": "uint256",
              "name": "expected_date_of_arrival",
              "type": "uint256"
            },
            {
              "internalType": "uint256",
              "name": "product_id",
              "type": "uint256"
            }
          ],
          "internalType": "struct Pharmacy.Shipment[]",
          "name": "",
          "type": "tuple[]"
        }
      ],
      "stateMutability": "view",
      "type": "function"
    },
    {
      "inputs": [
        {
          "internalType": "address[]",
          "name": "available_address",
          "type": "address[]"
        }
      ],
      "name": "init_shipments",
      "outputs": [],
      "stateMutability": "nonpayable",
      "type": "function"
    },
    {
      "inputs": [
        {
          "internalType": "uint256",
          "name": "",
          "type": "uint256"
        }
      ],
      "name": "products_index",
      "outputs": [
        {
          "internalType": "uint256",
          "name": "",
          "type": "uint256"
        }
      ],
      "stateMutability": "view",
      "type": "function"
    },
    {
      "inputs": [
        {
          "internalType": "uint256",
          "name": "",
          "type": "uint256"
        }
      ],
      "name": "products_list",
      "outputs": [
        {
          "internalType": "uint256",
          "name": "id",
          "type": "uint256"
        },
        {
          "internalType": "string",
          "name": "name",
          "type": "string"
        },
        {
          "internalType": "uint256",
          "name": "quantity",
          "type": "uint256"
        },
        {
          "internalType": "address",
          "name": "currentScEntity",
          "type": "address"
        }
      ],
      "stateMutability": "view",
      "type": "function"
    },
    {
      "inputs": [
        {
          "internalType": "uint256",
          "name": "",
          "type": "uint256"
        },
        {
          "internalType": "uint256",
          "name": "",
          "type": "uint256"
        }
      ],
      "name": "products_shipments",
      "outputs": [
        {
          "internalType": "uint256",
          "name": "",
          "type": "uint256"
        }
      ],
      "stateMutability": "view",
      "type": "function"
    },
    {
      "inputs": [
        {
          "internalType": "address",
          "name": "entity_address",
          "type": "address"
        }
      ],
      "name": "remove_ScEntity",
      "outputs": [],
      "stateMutability": "nonpayable",
      "type": "function"
    },
    {
      "inputs": [
        {
          "internalType": "uint256",
          "name": "id",
          "type": "uint256"
        }
      ],
      "name": "remove_product",
      "outputs": [],
      "stateMutability": "nonpayable",
      "type": "function"
    },
    {
      "inputs": [
        {
          "internalType": "address",
          "name": "user_address",
          "type": "address"
        }
      ],
      "name": "remove_user",
      "outputs": [],
      "stateMutability": "nonpayable",
      "type": "function"
    },
    {
      "inputs": [
        {
          "internalType": "address",
          "name": "",
          "type": "address"
        }
      ],
      "name": "scEntities_index",
      "outputs": [
        {
          "internalType": "uint256",
          "name": "",
          "type": "uint256"
        }
      ],
      "stateMutability": "view",
      "type": "function"
    },
    {
      "inputs": [
        {
          "internalType": "uint256",
          "name": "",
          "type": "uint256"
        }
      ],
      "name": "scEntities_list",
      "outputs": [
        {
          "internalType": "address",
          "name": "entity_address",
          "type": "address"
        },
        {
          "internalType": "string",
          "name": "name",
          "type": "string"
        },
        {
          "internalType": "enum Pharmacy.EntityType",
          "name": "entity_type",
          "type": "uint8"
        }
      ],
      "stateMutability": "view",
      "type": "function"
    },
    {
      "inputs": [
        {
          "internalType": "uint256",
          "name": "",
          "type": "uint256"
        }
      ],
      "name": "shipments_list",
      "outputs": [
        {
          "internalType": "uint256",
          "name": "shipment_id",
          "type": "uint256"
        },
        {
          "internalType": "address",
          "name": "origin",
          "type": "address"
        },
        {
          "internalType": "address",
          "name": "destination",
          "type": "address"
        },
        {
          "internalType": "uint256",
          "name": "date_of_departure",
          "type": "uint256"
        },
        {
          "internalType": "uint256",
          "name": "expected_date_of_arrival",
          "type": "uint256"
        },
        {
          "internalType": "uint256",
          "name": "product_id",
          "type": "uint256"
        }
      ],
      "stateMutability": "view",
      "type": "function"
    },
    {
      "inputs": [
        {
          "internalType": "address",
          "name": "",
          "type": "address"
        }
      ],
      "name": "users",
      "outputs": [
        {
          "internalType": "address",
          "name": "user_address",
          "type": "address"
        },
        {
          "internalType": "string",
          "name": "name",
          "type": "string"
        },
        {
          "internalType": "enum Pharmacy.Role",
          "name": "role",
          "type": "uint8"
        }
      ],
      "stateMutability": "view",
      "type": "function"
    },
    {
      "inputs": [
        {
          "internalType": "address",
          "name": "user_address",
          "type": "address"
        }
      ],
      "name": "view_user",
      "outputs": [
        {
          "components": [
            {
              "internalType": "address",
              "name": "user_address",
              "type": "address"
            },
            {
              "internalType": "string",
              "name": "name",
              "type": "string"
            },
            {
              "internalType": "enum Pharmacy.Role",
              "name": "role",
              "type": "uint8"
            }
          ],
          "internalType": "struct Pharmacy.User",
          "name": "",
          "type": "tuple"
        }
      ],
      "stateMutability": "view",
      "type": "function"
    }
  ],
  "bytecode": "0x608060405260016005553480156200001657600080fd5b50600060405180606001604052803373ffffffffffffffffffffffffffffffffffffffff1681526020016040518060400160405280600581526020017f41646d696e00000000000000000000000000000000000000000000000000000081525081526020016000600381111562000092576200009162000172565b5b8152509050806000803373ffffffffffffffffffffffffffffffffffffffff1673ffffffffffffffffffffffffffffffffffffffff16815260200190815260200160002060008201518160000160006101000a81548173ffffffffffffffffffffffffffffffffffffffff021916908373ffffffffffffffffffffffffffffffffffffffff16021790555060208201518160010190816200013491906200041b565b5060408201518160020160006101000a81548160ff0219169083600381111562000163576200016262000172565b5b02179055509050505062000502565b7f4e487b7100000000000000000000000000000000000000000000000000000000600052602160045260246000fd5b600081519050919050565b7f4e487b7100000000000000000000000000000000000000000000000000000000600052604160045260246000fd5b7f4e487b7100000000000000000000000000000000000000000000000000000000600052602260045260246000fd5b600060028204905060018216806200022357607f821691505b602082108103620002395762000238620001db565b5b50919050565b60008190508160005260206000209050919050565b60006020601f8301049050919050565b600082821b905092915050565b600060088302620002a37fffffffffffffffffffffffffffffffffffffffffffffffffffffffffffffffff8262000264565b620002af868362000264565b95508019841693508086168417925050509392505050565b6000819050919050565b6000819050919050565b6000620002fc620002f6620002f084620002c7565b620002d1565b620002c7565b9050919050565b6000819050919050565b6200031883620002db565b62000330620003278262000303565b84845462000271565b825550505050565b600090565b6200034762000338565b620003548184846200030d565b505050565b5b818110156200037c57620003706000826200033d565b6001810190506200035a565b5050565b601f821115620003cb5762000395816200023f565b620003a08462000254565b81016020851015620003b0578190505b620003c8620003bf8562000254565b83018262000359565b50505b505050565b600082821c905092915050565b6000620003f060001984600802620003d0565b1980831691505092915050565b60006200040b8383620003dd565b9150826002028217905092915050565b6200042682620001a1565b67ffffffffffffffff811115620004425762000441620001ac565b5b6200044e82546200020a565b6200045b82828562000380565b600060209050601f8311600181146200049357600084156200047e578287015190505b6200048a8582620003fd565b865550620004fa565b601f198416620004a3866200023f565b60005b82811015620004cd57848901518255600182019150602085019450602081019050620004a6565b86831015620004ed5784890151620004e9601f891682620003dd565b8355505b6001600288020188555050505b505050505050565b615a1280620005126000396000f3fe608060405234801561001057600080fd5b50600436106101725760003560e01c8063a87430ba116100de578063cb40f9d511610097578063efccd4aa11610071578063efccd4aa146104ac578063f7aed773146104ca578063f80e6fe1146104fd578063faecc2461461052d57610172565b8063cb40f9d514610444578063de63918a14610460578063eb54eb051461047c57610172565b8063a87430ba14610369578063b07048d91461039b578063b08806a2146103b7578063b7bdecc9146103ec578063c041fa2714610408578063c17644a81461042657610172565b80633490228f116101305780633490228f14610271578063624387fa1461028d5780636f11432d146102a9578063777138bb146102d95780637bc195bf14610309578063871bb6951461033957610172565b8062709d39146101775780630e326221146101a957806316248fd1146101c55780632120a03b146101f557806323033fe0146102115780632fca0bf714610241575b600080fd5b610191600480360381019061018c9190613fef565b61055d565b6040516101a093929190614164565b60405180910390f35b6101c360048036038101906101be9190613fef565b61064c565b005b6101df60048036038101906101da91906141a2565b6108d4565b6040516101ec91906141f1565b60405180910390f35b61020f600480360381019061020a9190614238565b610905565b005b61022b60048036038101906102269190614238565b610d6a565b604051610238919061431d565b60405180910390f35b61025b60048036038101906102569190613fef565b610fd1565b60405161026891906141f1565b60405180910390f35b61028b60048036038101906102869190614474565b610fe9565b005b6102a760048036038101906102a29190614543565b611358565b005b6102c360048036038101906102be9190613fef565b6114a7565b6040516102d09190614602565b60405180910390f35b6102f360048036038101906102ee9190613fef565b611679565b604051610300919061431d565b60405180910390f35b610323600480360381019061031e9190613fef565b611770565b604051610330919061474e565b60405180910390f35b610353600480360381019061034e9190614238565b611f59565b6040516103609190614808565b60405180910390f35b610383600480360381019061037e9190614238565b6121a3565b60405161039293929190614839565b60405180910390f35b6103b560048036038101906103b09190614238565b612282565b005b6103d160048036038101906103cc9190613fef565b61253c565b6040516103e396959493929190614877565b60405180910390f35b610406600480360381019061040191906148fd565b6125c8565b005b610410612965565b60405161041d919061474e565b60405180910390f35b61042e612a98565b60405161043b9190614a91565b60405180910390f35b61045e60048036038101906104599190614ab3565b612f9f565b005b61047a60048036038101906104759190614b2b565b613723565b005b61049660048036038101906104919190614238565b613a0c565b6040516104a391906141f1565b60405180910390f35b6104b4613a24565b6040516104c19190614cac565b60405180910390f35b6104e460048036038101906104df9190613fef565b613ba6565b6040516104f49493929190614cce565b60405180910390f35b61051760048036038101906105129190614d1a565b613c8e565b60405161052491906141f1565b60405180910390f35b61054760048036038101906105429190613fef565b613cbf565b6040516105549190614dd5565b60405180910390f35b6008818154811061056d57600080fd5b90600052602060002090600302016000915090508060000160009054906101000a900473ffffffffffffffffffffffffffffffffffffffff16908060010180546105b690614e1f565b80601f01602080910402602001604051908101604052809291908181526020018280546105e290614e1f565b801561062f5780601f106106045761010080835404028352916020019161062f565b820191906000526020600020905b81548152906001019060200180831161061257829003601f168201915b5050505050908060020160009054906101000a900460ff16905083565b6000600260008381526020019081526020016000205414158061069457508060066000815481106106805761067f614e50565b5b906000526020600020906004020160000154145b6106d3576040517f08c379a00000000000000000000000000000000000000000000000000000000081526004016106ca90614ecb565b60405180910390fd5b600060026000838152602001908152602001600020549050600660016006805490506106ff9190614f1a565b815481106107105761070f614e50565b5b90600052602060002090600402016006828154811061073257610731614e50565b5b9060005260206000209060040201600082015481600001556001820181600101908161075e9190615110565b50600282015481600201556003820160009054906101000a900473ffffffffffffffffffffffffffffffffffffffff168160030160006101000a81548173ffffffffffffffffffffffffffffffffffffffff021916908373ffffffffffffffffffffffffffffffffffffffff1602179055509050508060026000600684815481106107ec576107eb614e50565b5b90600052602060002090600402016000015481526020019081526020016000208190555060026000838152602001908152602001600020600090556006805480610839576108386151f8565b5b60019003818190600052602060002090600402016000808201600090556001820160006108669190613e16565b60028201600090556003820160006101000a81549073ffffffffffffffffffffffffffffffffffffffff0219169055505090557f07015631cff457b5b13492c2045e70c6305a0a4aa773e432e79abbe2cf52c1eb826040516108c891906141f1565b60405180910390a15050565b600460205281600052604060002081815481106108f057600080fd5b90600052602060002001600091509150505481565b600080600381111561091a576109196140ed565b5b6000803373ffffffffffffffffffffffffffffffffffffffff1673ffffffffffffffffffffffffffffffffffffffff16815260200190815260200160002060020160009054906101000a900460ff16600381111561097b5761097a6140ed565b5b146109bb576040517f08c379a00000000000000000000000000000000000000000000000000000000081526004016109b290615273565b60405180910390fd5b6000600160008473ffffffffffffffffffffffffffffffffffffffff1673ffffffffffffffffffffffffffffffffffffffff16815260200190815260200160002054905060088054905081108015610a8357508273ffffffffffffffffffffffffffffffffffffffff1660088281548110610a3957610a38614e50565b5b906000526020600020906003020160000160009054906101000a900473ffffffffffffffffffffffffffffffffffffffff1673ffffffffffffffffffffffffffffffffffffffff16145b610ac2576040517f08c379a0000000000000000000000000000000000000000000000000000000008152600401610ab9906152df565b60405180910390fd5b6001600880549050610ad49190614f1a565b8114610c755760086001600880549050610aee9190614f1a565b81548110610aff57610afe614e50565b5b906000526020600020906003020160088281548110610b2157610b20614e50565b5b90600052602060002090600302016000820160009054906101000a900473ffffffffffffffffffffffffffffffffffffffff168160000160006101000a81548173ffffffffffffffffffffffffffffffffffffffff021916908373ffffffffffffffffffffffffffffffffffffffff16021790555060018201816001019081610baa9190615110565b506002820160009054906101000a900460ff168160020160006101000a81548160ff02191690836005811115610be357610be26140ed565b5b0217905550905050806001600060088481548110610c0457610c03614e50565b5b906000526020600020906003020160000160009054906101000a900473ffffffffffffffffffffffffffffffffffffffff1673ffffffffffffffffffffffffffffffffffffffff1673ffffffffffffffffffffffffffffffffffffffff168152602001908152602001600020819055505b6008805480610c8757610c866151f8565b5b6001900381819060005260206000209060030201600080820160006101000a81549073ffffffffffffffffffffffffffffffffffffffff0219169055600182016000610cd39190613e16565b6002820160006101000a81549060ff021916905550509055600160008473ffffffffffffffffffffffffffffffffffffffff1673ffffffffffffffffffffffffffffffffffffffff168152602001908152602001600020600090557f5d3e2f6091ad4a3a365ae9a6a381688e8e80b4ebb902a5217c76ca91fdff95af83604051610d5d91906152ff565b60405180910390a1505050565b610d72613e56565b6000600160008473ffffffffffffffffffffffffffffffffffffffff1673ffffffffffffffffffffffffffffffffffffffff16815260200190815260200160002054905060088054905081108015610e3a57508273ffffffffffffffffffffffffffffffffffffffff1660088281548110610df057610def614e50565b5b906000526020600020906003020160000160009054906101000a900473ffffffffffffffffffffffffffffffffffffffff1673ffffffffffffffffffffffffffffffffffffffff16145b610e79576040517f08c379a0000000000000000000000000000000000000000000000000000000008152600401610e70906152df565b60405180910390fd5b60088181548110610e8d57610e8c614e50565b5b90600052602060002090600302016040518060600160405290816000820160009054906101000a900473ffffffffffffffffffffffffffffffffffffffff1673ffffffffffffffffffffffffffffffffffffffff1673ffffffffffffffffffffffffffffffffffffffff168152602001600182018054610f0c90614e1f565b80601f0160208091040260200160405190810160405280929190818152602001828054610f3890614e1f565b8015610f855780601f10610f5a57610100808354040283529160200191610f85565b820191906000526020600020905b815481529060010190602001808311610f6857829003601f168201915b505050505081526020016002820160009054906101000a900460ff166005811115610fb357610fb26140ed565b5b6005811115610fc557610fc46140ed565b5b81525050915050919050565b60026020528060005260406000206000915090505481565b6000600160008373ffffffffffffffffffffffffffffffffffffffff1673ffffffffffffffffffffffffffffffffffffffff168152602001908152602001600020549050600880549050811080156110b157508173ffffffffffffffffffffffffffffffffffffffff166008828154811061106757611066614e50565b5b906000526020600020906003020160000160009054906101000a900473ffffffffffffffffffffffffffffffffffffffff1673ffffffffffffffffffffffffffffffffffffffff16145b6110f0576040517f08c379a00000000000000000000000000000000000000000000000000000000081526004016110e79061538c565b60405180910390fd5b60006005811115611104576111036140ed565b5b6008828154811061111857611117614e50565b5b906000526020600020906003020160020160009054906101000a900460ff166005811115611149576111486140ed565b5b14611189576040517f08c379a00000000000000000000000000000000000000000000000000000000081526004016111809061541e565b60405180910390fd5b60006040518060800160405280600560008154809291906111a99061543e565b9190505581526020018681526020018581526020018473ffffffffffffffffffffffffffffffffffffffff16815250905060068054905060026000836000015181526020019081526020016000208190555060068190806001815401808255809150506001900390600052602060002090600402016000909190919091506000820151816000015560208201518160010190816112469190615486565b506040820151816002015560608201518160030160006101000a81548173ffffffffffffffffffffffffffffffffffffffff021916908373ffffffffffffffffffffffffffffffffffffffff1602179055505050600360008473ffffffffffffffffffffffffffffffffffffffff1673ffffffffffffffffffffffffffffffffffffffff168152602001908152602001600020816000015190806001815401808255809150506001900390600052602060002001600090919091909150557f2e87df3c8f53fb06266ed52023929f5fab9f24130224ef6538b665d9cac8253081600001518260200151836040015184606001516040516113499493929190614cce565b60405180910390a15050505050565b600582829050101561139f576040517f08c379a0000000000000000000000000000000000000000000000000000000008152600401611396906155a4565b60405180910390fd5b3373ffffffffffffffffffffffffffffffffffffffff16828260008181106113ca576113c9614e50565b5b90506020020160208101906113df9190614238565b73ffffffffffffffffffffffffffffffffffffffff1603611435576040517f08c379a000000000000000000000000000000000000000000000000000000000815260040161142c90615610565b60405180910390fd5b6000600190505b600b8110156114a25760005b60058110156114945761148784848381811061146757611466614e50565b5b905060200201602081019061147c9190614238565b8363670fc8f3612f9f565b8080600101915050611448565b50808060010191505061143c565b505050565b6114af613e9f565b600060026000848152602001908152602001600020541415806114f757508160066000815481106114e3576114e2614e50565b5b906000526020600020906004020160000154145b611536576040517f08c379a000000000000000000000000000000000000000000000000000000000815260040161152d90614ecb565b60405180910390fd5b600660026000848152602001908152602001600020548154811061155d5761155c614e50565b5b90600052602060002090600402016040518060800160405290816000820154815260200160018201805461159090614e1f565b80601f01602080910402602001604051908101604052809291908181526020018280546115bc90614e1f565b80156116095780601f106115de57610100808354040283529160200191611609565b820191906000526020600020905b8154815290600101906020018083116115ec57829003601f168201915b50505050508152602001600282015481526020016003820160009054906101000a900473ffffffffffffffffffffffffffffffffffffffff1673ffffffffffffffffffffffffffffffffffffffff1673ffffffffffffffffffffffffffffffffffffffff16815250509050919050565b611681613e56565b600060026000848152602001908152602001600020541415806116c957508160066000815481106116b5576116b4614e50565b5b906000526020600020906004020160000154145b611708576040517f08c379a00000000000000000000000000000000000000000000000000000000081526004016116ff90614ecb565b60405180910390fd5b611769600660026000858152602001908152602001600020548154811061173257611731614e50565b5b906000526020600020906004020160030160009054906101000a900473ffffffffffffffffffffffffffffffffffffffff16610d6a565b9050919050565b60606000600680549050116117ba576040517f08c379a00000000000000000000000000000000000000000000000000000000081526004016117b190614ecb565b60405180910390fd5b6000600260008481526020019081526020016000205414158061180257508160066000815481106117ee576117ed614e50565b5b906000526020600020906004020160000154145b611841576040517f08c379a000000000000000000000000000000000000000000000000000000000815260040161183890614ecb565b60405180910390fd5b60008060003373ffffffffffffffffffffffffffffffffffffffff1673ffffffffffffffffffffffffffffffffffffffff1681526020019081526020016000206040518060600160405290816000820160009054906101000a900473ffffffffffffffffffffffffffffffffffffffff1673ffffffffffffffffffffffffffffffffffffffff1673ffffffffffffffffffffffffffffffffffffffff1681526020016001820180546118f290614e1f565b80601f016020809104026020016040519081016040528092919081815260200182805461191e90614e1f565b801561196b5780601f106119405761010080835404028352916020019161196b565b820191906000526020600020905b81548152906001019060200180831161194e57829003601f168201915b505050505081526020016002820160009054906101000a900460ff166003811115611999576119986140ed565b5b60038111156119ab576119aa6140ed565b5b815250509050600060046000858152602001908152602001600020805480602002602001604051908101604052809291908181526020018280548015611a1057602002820191906000526020600020905b8154815260200190600101908083116119fc575b5050505050905060016003811115611a2b57611a2a6140ed565b5b82604001516003811115611a4257611a416140ed565b5b1480611a76575060026003811115611a5d57611a5c6140ed565b5b82604001516003811115611a7457611a736140ed565b5b145b15611da157600080600360003373ffffffffffffffffffffffffffffffffffffffff1673ffffffffffffffffffffffffffffffffffffffff168152602001908152602001600020805480602002602001604051908101604052809291908181526020018280548015611b0757602002820191906000526020600020905b815481526020019060010190808311611af3575b5050505050905060005b8151811015611b515786828281518110611b2e57611b2d614e50565b5b602002602001015103611b445760019250611b51565b8080600101915050611b11565b5081611b92576040517f08c379a0000000000000000000000000000000000000000000000000000000008152600401611b89906156a2565b60405180910390fd5b600060016003811115611ba857611ba76140ed565b5b85604001516003811115611bbf57611bbe6140ed565b5b14611bcb576003611bce565b60025b60ff169050600081855110611be35781611be6565b84515b905060008167ffffffffffffffff811115611c0457611c03614349565b5b604051908082528060200260200182016040528015611c3d57816020015b611c2a613edd565b815260200190600190039081611c225790505b50905060005b82811015611d91576007878281518110611c6057611c5f614e50565b5b602002602001015181548110611c7957611c78614e50565b5b90600052602060002090600602016040518060c0016040529081600082015481526020016001820160009054906101000a900473ffffffffffffffffffffffffffffffffffffffff1673ffffffffffffffffffffffffffffffffffffffff1673ffffffffffffffffffffffffffffffffffffffff1681526020016002820160009054906101000a900473ffffffffffffffffffffffffffffffffffffffff1673ffffffffffffffffffffffffffffffffffffffff1673ffffffffffffffffffffffffffffffffffffffff1681526020016003820154815260200160048201548152602001600582015481525050828281518110611d7957611d78614e50565b5b60200260200101819052508080600101915050611c43565b5080975050505050505050611f54565b6000815167ffffffffffffffff811115611dbe57611dbd614349565b5b604051908082528060200260200182016040528015611df757816020015b611de4613edd565b815260200190600190039081611ddc5790505b50905060005b8251811015611f4c576007838281518110611e1b57611e1a614e50565b5b602002602001015181548110611e3457611e33614e50565b5b90600052602060002090600602016040518060c0016040529081600082015481526020016001820160009054906101000a900473ffffffffffffffffffffffffffffffffffffffff1673ffffffffffffffffffffffffffffffffffffffff1673ffffffffffffffffffffffffffffffffffffffff1681526020016002820160009054906101000a900473ffffffffffffffffffffffffffffffffffffffff1673ffffffffffffffffffffffffffffffffffffffff1673ffffffffffffffffffffffffffffffffffffffff1681526020016003820154815260200160048201548152602001600582015481525050828281518110611f3457611f33614e50565b5b60200260200101819052508080600101915050611dfd565b508093505050505b919050565b611f61613f3f565b8173ffffffffffffffffffffffffffffffffffffffff166000808473ffffffffffffffffffffffffffffffffffffffff1673ffffffffffffffffffffffffffffffffffffffff16815260200190815260200160002060000160009054906101000a900473ffffffffffffffffffffffffffffffffffffffff1673ffffffffffffffffffffffffffffffffffffffff1614612030576040517f08c379a00000000000000000000000000000000000000000000000000000000081526004016120279061570e565b60405180910390fd5b6000808373ffffffffffffffffffffffffffffffffffffffff1673ffffffffffffffffffffffffffffffffffffffff1681526020019081526020016000206040518060600160405290816000820160009054906101000a900473ffffffffffffffffffffffffffffffffffffffff1673ffffffffffffffffffffffffffffffffffffffff1673ffffffffffffffffffffffffffffffffffffffff1681526020016001820180546120df90614e1f565b80601f016020809104026020016040519081016040528092919081815260200182805461210b90614e1f565b80156121585780601f1061212d57610100808354040283529160200191612158565b820191906000526020600020905b81548152906001019060200180831161213b57829003601f168201915b505050505081526020016002820160009054906101000a900460ff166003811115612186576121856140ed565b5b6003811115612198576121976140ed565b5b815250509050919050565b60006020528060005260406000206000915090508060000160009054906101000a900473ffffffffffffffffffffffffffffffffffffffff16908060010180546121ec90614e1f565b80601f016020809104026020016040519081016040528092919081815260200182805461221890614e1f565b80156122655780601f1061223a57610100808354040283529160200191612265565b820191906000526020600020905b81548152906001019060200180831161224857829003601f168201915b5050505050908060020160009054906101000a900460ff16905083565b6000806003811115612297576122966140ed565b5b6000803373ffffffffffffffffffffffffffffffffffffffff1673ffffffffffffffffffffffffffffffffffffffff16815260200190815260200160002060020160009054906101000a900460ff1660038111156122f8576122f76140ed565b5b14612338576040517f08c379a000000000000000000000000000000000000000000000000000000000815260040161232f90615273565b60405180910390fd5b8173ffffffffffffffffffffffffffffffffffffffff166000808473ffffffffffffffffffffffffffffffffffffffff1673ffffffffffffffffffffffffffffffffffffffff16815260200190815260200160002060000160009054906101000a900473ffffffffffffffffffffffffffffffffffffffff1673ffffffffffffffffffffffffffffffffffffffff1614612407576040517f08c379a00000000000000000000000000000000000000000000000000000000081526004016123fe9061570e565b60405180910390fd5b8173ffffffffffffffffffffffffffffffffffffffff163373ffffffffffffffffffffffffffffffffffffffff1603612475576040517f08c379a000000000000000000000000000000000000000000000000000000000815260040161246c9061577a565b60405180910390fd5b6000808373ffffffffffffffffffffffffffffffffffffffff1673ffffffffffffffffffffffffffffffffffffffff168152602001908152602001600020600080820160006101000a81549073ffffffffffffffffffffffffffffffffffffffff02191690556001820160006124eb9190613e16565b6002820160006101000a81549060ff021916905550507fe9dce8c992623ce791725b21e857e33248d1f190a25b5168313420eebdaae99d8260405161253091906152ff565b60405180910390a15050565b6007818154811061254c57600080fd5b90600052602060002090600602016000915090508060000154908060010160009054906101000a900473ffffffffffffffffffffffffffffffffffffffff16908060020160009054906101000a900473ffffffffffffffffffffffffffffffffffffffff16908060030154908060040154908060050154905086565b60008060038111156125dd576125dc6140ed565b5b6000803373ffffffffffffffffffffffffffffffffffffffff1673ffffffffffffffffffffffffffffffffffffffff16815260200190815260200160002060020160009054906101000a900460ff16600381111561263e5761263d6140ed565b5b1461267e576040517f08c379a000000000000000000000000000000000000000000000000000000000815260040161267590615273565b60405180910390fd5b6000600160008673ffffffffffffffffffffffffffffffffffffffff1673ffffffffffffffffffffffffffffffffffffffff1681526020019081526020016000205414801561278d57506000600880549050148061278c57508373ffffffffffffffffffffffffffffffffffffffff166008600160008773ffffffffffffffffffffffffffffffffffffffff1673ffffffffffffffffffffffffffffffffffffffff168152602001908152602001600020548154811061274157612740614e50565b5b906000526020600020906003020160000160009054906101000a900473ffffffffffffffffffffffffffffffffffffffff1673ffffffffffffffffffffffffffffffffffffffff1614155b5b6127cc576040517f08c379a00000000000000000000000000000000000000000000000000000000081526004016127c3906157e6565b60405180910390fd5b600060405180606001604052808673ffffffffffffffffffffffffffffffffffffffff16815260200185815260200184600581111561280e5761280d6140ed565b5b8152509050600880549050600160008773ffffffffffffffffffffffffffffffffffffffff1673ffffffffffffffffffffffffffffffffffffffff16815260200190815260200160002081905550600881908060018154018082558091505060019003906000526020600020906003020160009091909190915060008201518160000160006101000a81548173ffffffffffffffffffffffffffffffffffffffff021916908373ffffffffffffffffffffffffffffffffffffffff16021790555060208201518160010190816128e49190615486565b5060408201518160020160006101000a81548160ff021916908360058111156129105761290f6140ed565b5b021790555050507f5e1452cfc728689895f5ea99ed4bb90292b01d5fd117e480c94cddb4e1f5d5ef81600001518260200151836040015160405161295693929190614164565b60405180910390a15050505050565b60606007805480602002602001604051908101604052809291908181526020016000905b82821015612a8f57838290600052602060002090600602016040518060c0016040529081600082015481526020016001820160009054906101000a900473ffffffffffffffffffffffffffffffffffffffff1673ffffffffffffffffffffffffffffffffffffffff1673ffffffffffffffffffffffffffffffffffffffff1681526020016002820160009054906101000a900473ffffffffffffffffffffffffffffffffffffffff1673ffffffffffffffffffffffffffffffffffffffff1673ffffffffffffffffffffffffffffffffffffffff168152602001600382015481526020016004820154815260200160058201548152505081526020019060010190612989565b50505050905090565b606060016003811115612aae57612aad6140ed565b5b6000803373ffffffffffffffffffffffffffffffffffffffff1673ffffffffffffffffffffffffffffffffffffffff16815260200190815260200160002060020160009054906101000a900460ff166003811115612b0f57612b0e6140ed565b5b1480612b8d575060026003811115612b2a57612b296140ed565b5b6000803373ffffffffffffffffffffffffffffffffffffffff1673ffffffffffffffffffffffffffffffffffffffff16815260200190815260200160002060020160009054906101000a900460ff166003811115612b8b57612b8a6140ed565b5b145b15612e45576000600360003373ffffffffffffffffffffffffffffffffffffffff1673ffffffffffffffffffffffffffffffffffffffff1681526020019081526020016000208054905067ffffffffffffffff811115612bf057612bef614349565b5b604051908082528060200260200182016040528015612c2957816020015b612c16613e9f565b815260200190600190039081612c0e5790505b50905060005b600360003373ffffffffffffffffffffffffffffffffffffffff1673ffffffffffffffffffffffffffffffffffffffff16815260200190815260200160002080549050811015612e3b57600660026000600360003373ffffffffffffffffffffffffffffffffffffffff1673ffffffffffffffffffffffffffffffffffffffff1681526020019081526020016000208481548110612cd057612ccf614e50565b5b906000526020600020015481526020019081526020016000205481548110612cfb57612cfa614e50565b5b906000526020600020906004020160405180608001604052908160008201548152602001600182018054612d2e90614e1f565b80601f0160208091040260200160405190810160405280929190818152602001828054612d5a90614e1f565b8015612da75780601f10612d7c57610100808354040283529160200191612da7565b820191906000526020600020905b815481529060010190602001808311612d8a57829003601f168201915b50505050508152602001600282015481526020016003820160009054906101000a900473ffffffffffffffffffffffffffffffffffffffff1673ffffffffffffffffffffffffffffffffffffffff1673ffffffffffffffffffffffffffffffffffffffff1681525050828281518110612e2357612e22614e50565b5b60200260200101819052508080600101915050612c2f565b5080915050612f9c565b6006805480602002602001604051908101604052809291908181526020016000905b82821015612f95578382906000526020600020906004020160405180608001604052908160008201548152602001600182018054612ea490614e1f565b80601f0160208091040260200160405190810160405280929190818152602001828054612ed090614e1f565b8015612f1d5780601f10612ef257610100808354040283529160200191612f1d565b820191906000526020600020905b815481529060010190602001808311612f0057829003601f168201915b50505050508152602001600282015481526020016003820160009054906101000a900473ffffffffffffffffffffffffffffffffffffffff1673ffffffffffffffffffffffffffffffffffffffff1673ffffffffffffffffffffffffffffffffffffffff168152505081526020019060010190612e67565b5050505090505b90565b804210612fe1576040517f08c379a0000000000000000000000000000000000000000000000000000000008152600401612fd890615878565b60405180910390fd5b60006002600084815260200190815260200160002054905060008114158061302e575082600660008154811061301a57613019614e50565b5b906000526020600020906004020160000154145b61306d576040517f08c379a000000000000000000000000000000000000000000000000000000000815260040161306490614ecb565b60405180910390fd5b6000600160008673ffffffffffffffffffffffffffffffffffffffff1673ffffffffffffffffffffffffffffffffffffffff1681526020019081526020016000205490506008805490508110801561313557508473ffffffffffffffffffffffffffffffffffffffff16600882815481106130eb576130ea614e50565b5b906000526020600020906003020160000160009054906101000a900473ffffffffffffffffffffffffffffffffffffffff1673ffffffffffffffffffffffffffffffffffffffff16145b613174576040517f08c379a000000000000000000000000000000000000000000000000000000000815260040161316b906152df565b60405180910390fd5b60006006838154811061318a57613189614e50565b5b9060005260206000209060040201604051806080016040529081600082015481526020016001820180546131bd90614e1f565b80601f01602080910402602001604051908101604052809291908181526020018280546131e990614e1f565b80156132365780601f1061320b57610100808354040283529160200191613236565b820191906000526020600020905b81548152906001019060200180831161321957829003601f168201915b50505050508152602001600282015481526020016003820160009054906101000a900473ffffffffffffffffffffffffffffffffffffffff1673ffffffffffffffffffffffffffffffffffffffff1673ffffffffffffffffffffffffffffffffffffffff16815250509050600060016000836060015173ffffffffffffffffffffffffffffffffffffffff1673ffffffffffffffffffffffffffffffffffffffff1681526020019081526020016000205490506000600884815481106132ff576132fe614e50565b5b906000526020600020906003020160020160009054906101000a900460ff1660058111156133305761332f6140ed565b5b1180156133d0575060016008848154811061334e5761334d614e50565b5b906000526020600020906003020160020160009054906101000a900460ff16600581111561337f5761337e6140ed565b5b6133899190614f1a565b6008828154811061339d5761339c614e50565b5b906000526020600020906003020160020160009054906101000a900460ff1660058111156133ce576133cd6140ed565b5b145b61340f576040517f08c379a0000000000000000000000000000000000000000000000000000000008152600401613406906158e4565b60405180910390fd5b60006040518060c001604052806007805490508152602001846060015173ffffffffffffffffffffffffffffffffffffffff1681526020018973ffffffffffffffffffffffffffffffffffffffff1681526020014281526020018781526020018881525090506004600088815260200190815260200160002081600001519080600181540180825580915050600190039060005260206000200160009091909190915055600360058111156134c7576134c66140ed565b5b600885815481106134db576134da614e50565b5b906000526020600020906003020160020160009054906101000a900460ff16600581111561350c5761350b6140ed565b5b0361357857600360008973ffffffffffffffffffffffffffffffffffffffff1673ffffffffffffffffffffffffffffffffffffffff1681526020019081526020016000208790806001815401808255809150506001900390600052602060002001600090919091909150555b876006868154811061358d5761358c614e50565b5b906000526020600020906004020160030160006101000a81548173ffffffffffffffffffffffffffffffffffffffff021916908373ffffffffffffffffffffffffffffffffffffffff16021790555060078190806001815401808255809150506001900390600052602060002090600602016000909190919091506000820151816000015560208201518160010160006101000a81548173ffffffffffffffffffffffffffffffffffffffff021916908373ffffffffffffffffffffffffffffffffffffffff16021790555060408201518160020160006101000a81548173ffffffffffffffffffffffffffffffffffffffff021916908373ffffffffffffffffffffffffffffffffffffffff160217905550606082015181600301556080820151816004015560a0820151816005015550507f876644f605c09f137e642a100ea79c3ff90507acc401482bbca37fd22ba292cc816000015182602001518360400151846060015185608001518660a0015160405161371196959493929190614877565b60405180910390a15050505050505050565b6000806003811115613738576137376140ed565b5b6000803373ffffffffffffffffffffffffffffffffffffffff1673ffffffffffffffffffffffffffffffffffffffff16815260200190815260200160002060020160009054906101000a900460ff166003811115613799576137986140ed565b5b146137d9576040517f08c379a00000000000000000000000000000000000000000000000000000000081526004016137d090615273565b60405180910390fd5b8173ffffffffffffffffffffffffffffffffffffffff166000808473ffffffffffffffffffffffffffffffffffffffff1673ffffffffffffffffffffffffffffffffffffffff16815260200190815260200160002060000160009054906101000a900473ffffffffffffffffffffffffffffffffffffffff1673ffffffffffffffffffffffffffffffffffffffff16036138a8576040517f08c379a000000000000000000000000000000000000000000000000000000000815260040161389f90615950565b60405180910390fd5b600060405180606001604052808473ffffffffffffffffffffffffffffffffffffffff1681526020018681526020018560038111156138ea576138e96140ed565b5b8152509050806000808573ffffffffffffffffffffffffffffffffffffffff1673ffffffffffffffffffffffffffffffffffffffff16815260200190815260200160002060008201518160000160006101000a81548173ffffffffffffffffffffffffffffffffffffffff021916908373ffffffffffffffffffffffffffffffffffffffff160217905550602082015181600101908161398a9190615486565b5060408201518160020160006101000a81548160ff021916908360038111156139b6576139b56140ed565b5b02179055509050507f4734c94d88f62c0881093b87207fd9c5d0cbcab7ea0cf7f07370a2952c2f8d608160000151826020015183604001516040516139fd93929190614839565b60405180910390a15050505050565b60016020528060005260406000206000915090505481565b60606008805480602002602001604051908101604052809291908181526020016000905b82821015613b9d57838290600052602060002090600302016040518060600160405290816000820160009054906101000a900473ffffffffffffffffffffffffffffffffffffffff1673ffffffffffffffffffffffffffffffffffffffff1673ffffffffffffffffffffffffffffffffffffffff168152602001600182018054613ad190614e1f565b80601f0160208091040260200160405190810160405280929190818152602001828054613afd90614e1f565b8015613b4a5780601f10613b1f57610100808354040283529160200191613b4a565b820191906000526020600020905b815481529060010190602001808311613b2d57829003601f168201915b505050505081526020016002820160009054906101000a900460ff166005811115613b7857613b776140ed565b5b6005811115613b8a57613b896140ed565b5b8152505081526020019060010190613a48565b50505050905090565b60068181548110613bb657600080fd5b9060005260206000209060040201600091509050806000015490806001018054613bdf90614e1f565b80601f0160208091040260200160405190810160405280929190818152602001828054613c0b90614e1f565b8015613c585780601f10613c2d57610100808354040283529160200191613c58565b820191906000526020600020905b815481529060010190602001808311613c3b57829003601f168201915b5050505050908060020154908060030160009054906101000a900473ffffffffffffffffffffffffffffffffffffffff16905084565b60036020528160005260406000208181548110613caa57600080fd5b90600052602060002001600091509150505481565b613cc7613edd565b6007805490508210613d0e576040517f08c379a0000000000000000000000000000000000000000000000000000000008152600401613d05906159bc565b60405180910390fd5b60078281548110613d2257613d21614e50565b5b90600052602060002090600602016040518060c0016040529081600082015481526020016001820160009054906101000a900473ffffffffffffffffffffffffffffffffffffffff1673ffffffffffffffffffffffffffffffffffffffff1673ffffffffffffffffffffffffffffffffffffffff1681526020016002820160009054906101000a900473ffffffffffffffffffffffffffffffffffffffff1673ffffffffffffffffffffffffffffffffffffffff1673ffffffffffffffffffffffffffffffffffffffff16815260200160038201548152602001600482015481526020016005820154815250509050919050565b508054613e2290614e1f565b6000825580601f10613e345750613e53565b601f016020900490600052602060002090810190613e529190613f88565b5b50565b6040518060600160405280600073ffffffffffffffffffffffffffffffffffffffff1681526020016060815260200160006005811115613e9957613e986140ed565b5b81525090565b6040518060800160405280600081526020016060815260200160008152602001600073ffffffffffffffffffffffffffffffffffffffff1681525090565b6040518060c0016040528060008152602001600073ffffffffffffffffffffffffffffffffffffffff168152602001600073ffffffffffffffffffffffffffffffffffffffff1681526020016000815260200160008152602001600081525090565b6040518060600160405280600073ffffffffffffffffffffffffffffffffffffffff1681526020016060815260200160006003811115613f8257613f816140ed565b5b81525090565b5b80821115613fa1576000816000905550600101613f89565b5090565b6000604051905090565b600080fd5b600080fd5b6000819050919050565b613fcc81613fb9565b8114613fd757600080fd5b50565b600081359050613fe981613fc3565b92915050565b60006020828403121561400557614004613faf565b5b600061401384828501613fda565b91505092915050565b600073ffffffffffffffffffffffffffffffffffffffff82169050919050565b60006140478261401c565b9050919050565b6140578161403c565b82525050565b600081519050919050565b600082825260208201905092915050565b60005b8381101561409757808201518184015260208101905061407c565b60008484015250505050565b6000601f19601f8301169050919050565b60006140bf8261405d565b6140c98185614068565b93506140d9818560208601614079565b6140e2816140a3565b840191505092915050565b7f4e487b7100000000000000000000000000000000000000000000000000000000600052602160045260246000fd5b6006811061412d5761412c6140ed565b5b50565b600081905061413e8261411c565b919050565b600061414e82614130565b9050919050565b61415e81614143565b82525050565b6000606082019050614179600083018661404e565b818103602083015261418b81856140b4565b905061419a6040830184614155565b949350505050565b600080604083850312156141b9576141b8613faf565b5b60006141c785828601613fda565b92505060206141d885828601613fda565b9150509250929050565b6141eb81613fb9565b82525050565b600060208201905061420660008301846141e2565b92915050565b6142158161403c565b811461422057600080fd5b50565b6000813590506142328161420c565b92915050565b60006020828403121561424e5761424d613faf565b5b600061425c84828501614223565b91505092915050565b61426e8161403c565b82525050565b600082825260208201905092915050565b60006142908261405d565b61429a8185614274565b93506142aa818560208601614079565b6142b3816140a3565b840191505092915050565b6142c781614143565b82525050565b60006060830160008301516142e56000860182614265565b50602083015184820360208601526142fd8282614285565b915050604083015161431260408601826142be565b508091505092915050565b6000602082019050818103600083015261433781846142cd565b905092915050565b600080fd5b600080fd5b7f4e487b7100000000000000000000000000000000000000000000000000000000600052604160045260246000fd5b614381826140a3565b810181811067ffffffffffffffff821117156143a05761439f614349565b5b80604052505050565b60006143b3613fa5565b90506143bf8282614378565b919050565b600067ffffffffffffffff8211156143df576143de614349565b5b6143e8826140a3565b9050602081019050919050565b82818337600083830152505050565b6000614417614412846143c4565b6143a9565b90508281526020810184848401111561443357614432614344565b5b61443e8482856143f5565b509392505050565b600082601f83011261445b5761445a61433f565b5b813561446b848260208601614404565b91505092915050565b60008060006060848603121561448d5761448c613faf565b5b600084013567ffffffffffffffff8111156144ab576144aa613fb4565b5b6144b786828701614446565b93505060206144c886828701613fda565b92505060406144d986828701614223565b9150509250925092565b600080fd5b600080fd5b60008083601f8401126145035761450261433f565b5b8235905067ffffffffffffffff8111156145205761451f6144e3565b5b60208301915083602082028301111561453c5761453b6144e8565b5b9250929050565b6000806020838503121561455a57614559613faf565b5b600083013567ffffffffffffffff81111561457857614577613fb4565b5b614584858286016144ed565b92509250509250929050565b61459981613fb9565b82525050565b60006080830160008301516145b76000860182614590565b50602083015184820360208601526145cf8282614285565b91505060408301516145e46040860182614590565b5060608301516145f76060860182614265565b508091505092915050565b6000602082019050818103600083015261461c818461459f565b905092915050565b600081519050919050565b600082825260208201905092915050565b6000819050602082019050919050565b60c0820160008201516146666000850182614590565b5060208201516146796020850182614265565b50604082015161468c6040850182614265565b50606082015161469f6060850182614590565b5060808201516146b26080850182614590565b5060a08201516146c560a0850182614590565b50505050565b60006146d78383614650565b60c08301905092915050565b6000602082019050919050565b60006146fb82614624565b614705818561462f565b935061471083614640565b8060005b8381101561474157815161472888826146cb565b9750614733836146e3565b925050600181019050614714565b5085935050505092915050565b6000602082019050818103600083015261476881846146f0565b905092915050565b60048110614781576147806140ed565b5b50565b600081905061479282614770565b919050565b60006147a282614784565b9050919050565b6147b281614797565b82525050565b60006060830160008301516147d06000860182614265565b50602083015184820360208601526147e88282614285565b91505060408301516147fd60408601826147a9565b508091505092915050565b6000602082019050818103600083015261482281846147b8565b905092915050565b61483381614797565b82525050565b600060608201905061484e600083018661404e565b818103602083015261486081856140b4565b905061486f604083018461482a565b949350505050565b600060c08201905061488c60008301896141e2565b614899602083018861404e565b6148a6604083018761404e565b6148b360608301866141e2565b6148c060808301856141e2565b6148cd60a08301846141e2565b979650505050505050565b600681106148e557600080fd5b50565b6000813590506148f7816148d8565b92915050565b60008060006060848603121561491657614915613faf565b5b600061492486828701614223565b935050602084013567ffffffffffffffff81111561494557614944613fb4565b5b61495186828701614446565b9250506040614962868287016148e8565b9150509250925092565b600081519050919050565b600082825260208201905092915050565b6000819050602082019050919050565b60006080830160008301516149b06000860182614590565b50602083015184820360208601526149c88282614285565b91505060408301516149dd6040860182614590565b5060608301516149f06060860182614265565b508091505092915050565b6000614a078383614998565b905092915050565b6000602082019050919050565b6000614a278261496c565b614a318185614977565b935083602082028501614a4385614988565b8060005b85811015614a7f5784840389528151614a6085826149fb565b9450614a6b83614a0f565b925060208a01995050600181019050614a47565b50829750879550505050505092915050565b60006020820190508181036000830152614aab8184614a1c565b905092915050565b600080600060608486031215614acc57614acb613faf565b5b6000614ada86828701614223565b9350506020614aeb86828701613fda565b9250506040614afc86828701613fda565b9150509250925092565b60048110614b1357600080fd5b50565b600081359050614b2581614b06565b92915050565b600080600060608486031215614b4457614b43613faf565b5b600084013567ffffffffffffffff811115614b6257614b61613fb4565b5b614b6e86828701614446565b9350506020614b7f86828701614b16565b9250506040614b9086828701614223565b9150509250925092565b600081519050919050565b600082825260208201905092915050565b6000819050602082019050919050565b6000606083016000830151614bde6000860182614265565b5060208301518482036020860152614bf68282614285565b9150506040830151614c0b60408601826142be565b508091505092915050565b6000614c228383614bc6565b905092915050565b6000602082019050919050565b6000614c4282614b9a565b614c4c8185614ba5565b935083602082028501614c5e85614bb6565b8060005b85811015614c9a5784840389528151614c7b8582614c16565b9450614c8683614c2a565b925060208a01995050600181019050614c62565b50829750879550505050505092915050565b60006020820190508181036000830152614cc68184614c37565b905092915050565b6000608082019050614ce360008301876141e2565b8181036020830152614cf581866140b4565b9050614d0460408301856141e2565b614d11606083018461404e565b95945050505050565b60008060408385031215614d3157614d30613faf565b5b6000614d3f85828601614223565b9250506020614d5085828601613fda565b9150509250929050565b60c082016000820151614d706000850182614590565b506020820151614d836020850182614265565b506040820151614d966040850182614265565b506060820151614da96060850182614590565b506080820151614dbc6080850182614590565b5060a0820151614dcf60a0850182614590565b50505050565b600060c082019050614dea6000830184614d5a565b92915050565b7f4e487b7100000000000000000000000000000000000000000000000000000000600052602260045260246000fd5b60006002820490506001821680614e3757607f821691505b602082108103614e4a57614e49614df0565b5b50919050565b7f4e487b7100000000000000000000000000000000000000000000000000000000600052603260045260246000fd5b7f50726f6475637420646f6573206e6f7420657869737421000000000000000000600082015250565b6000614eb5601783614068565b9150614ec082614e7f565b602082019050919050565b60006020820190508181036000830152614ee481614ea8565b9050919050565b7f4e487b7100000000000000000000000000000000000000000000000000000000600052601160045260246000fd5b6000614f2582613fb9565b9150614f3083613fb9565b9250828203905081811115614f4857614f47614eeb565b5b92915050565b600081549050614f5d81614e1f565b9050919050565b60008190508160005260206000209050919050565b60006020601f8301049050919050565b600082821b905092915050565b600060088302614fc67fffffffffffffffffffffffffffffffffffffffffffffffffffffffffffffffff82614f89565b614fd08683614f89565b95508019841693508086168417925050509392505050565b6000819050919050565b600061500d61500861500384613fb9565b614fe8565b613fb9565b9050919050565b6000819050919050565b61502783614ff2565b61503b61503382615014565b848454614f96565b825550505050565b600090565b615050615043565b61505b81848461501e565b505050565b5b8181101561507f57615074600082615048565b600181019050615061565b5050565b601f8211156150c45761509581614f64565b61509e84614f79565b810160208510156150ad578190505b6150c16150b985614f79565b830182615060565b50505b505050565b600082821c905092915050565b60006150e7600019846008026150c9565b1980831691505092915050565b600061510083836150d6565b9150826002028217905092915050565b81810361511e5750506151f6565b61512782614f4e565b67ffffffffffffffff8111156151405761513f614349565b5b61514a8254614e1f565b615155828285615083565b6000601f8311600181146151845760008415615172578287015490505b61517c85826150f4565b8655506151ef565b601f19841661519287614f64565b965061519d86614f64565b60005b828110156151c5578489015482556001820191506001850194506020810190506151a0565b868310156151e257848901546151de601f8916826150d6565b8355505b6001600288020188555050505b5050505050505b565b7f4e487b7100000000000000000000000000000000000000000000000000000000600052603160045260246000fd5b7f4e6f7420617574686f72697a6564000000000000000000000000000000000000600082015250565b600061525d600e83614068565b915061526882615227565b602082019050919050565b6000602082019050818103600083015261528c81615250565b9050919050565b7f456e7469747920646f6573206e6f742065786973742100000000000000000000600082015250565b60006152c9601683614068565b91506152d482615293565b602082019050919050565b600060208201905081810360008301526152f8816152bc565b9050919050565b6000602082019050615314600083018461404e565b92915050565b7f43616e6e6f74206372656174652070726f64756374206265636175736520456e60008201527f7469747920646f6573206e6f7420657869737421000000000000000000000000602082015250565b6000615376603483614068565b91506153818261531a565b604082019050919050565b600060208201905081810360008301526153a581615369565b9050919050565b7f43616e6e6f74206372656174652070726f64756374206265636175736520456e60008201527f74697479206973206e6f74206120537570706c69657221000000000000000000602082015250565b6000615408603783614068565b9150615413826153ac565b604082019050919050565b60006020820190508181036000830152615437816153fb565b9050919050565b600061544982613fb9565b91507fffffffffffffffffffffffffffffffffffffffffffffffffffffffffffffffff820361547b5761547a614eeb565b5b600182019050919050565b61548f8261405d565b67ffffffffffffffff8111156154a8576154a7614349565b5b6154b28254614e1f565b6154bd828285615083565b600060209050601f8311600181146154f057600084156154de578287015190505b6154e885826150f4565b865550615550565b601f1984166154fe86614f64565b60005b8281101561552657848901518255600182019150602085019450602081019050615501565b86831015615543578489015161553f601f8916826150d6565b8355505b6001600288020188555050505b505050505050565b7f496e73756666696369656e74206164647265737365732070726f766964656400600082015250565b600061558e601f83614068565b915061559982615558565b602082019050919050565b600060208201905081810360008301526155bd81615581565b9050919050565b7f4669727374206163636f756e74206d757374206e6f742062652061646d696e00600082015250565b60006155fa601f83614068565b9150615605826155c4565b602082019050919050565b60006020820190508181036000830152615629816155ed565b9050919050565b7f50726f6475637420646f6573206e6f742062656c6f6e6720746f20746865207560008201527f7365720000000000000000000000000000000000000000000000000000000000602082015250565b600061568c602383614068565b915061569782615630565b604082019050919050565b600060208201905081810360008301526156bb8161567f565b9050919050565b7f5573657220646f6573206e6f7420657869737421000000000000000000000000600082015250565b60006156f8601483614068565b9150615703826156c2565b602082019050919050565b60006020820190508181036000830152615727816156eb565b9050919050565b7f41646d696e2063616e27742072656d6f76652068696d73656c66210000000000600082015250565b6000615764601b83614068565b915061576f8261572e565b602082019050919050565b6000602082019050818103600083015261579381615757565b9050919050565b7f456e7469747920616c7265616479206578697374732100000000000000000000600082015250565b60006157d0601683614068565b91506157db8261579a565b602082019050919050565b600060208201905081810360008301526157ff816157c3565b9050919050565b7f45787065637465642064617465206f66206172726976616c2073686f756c642060008201527f62652061667465722064617465206f6620646570617274757265210000000000602082015250565b6000615862603b83614068565b915061586d82615806565b604082019050919050565b6000602082019050818103600083015261589181615855565b9050919050565b7f57726f6e672064657374696e6174696f6e210000000000000000000000000000600082015250565b60006158ce601283614068565b91506158d982615898565b602082019050919050565b600060208201905081810360008301526158fd816158c1565b9050919050565b7f5573657220616c72656164792065786973747300000000000000000000000000600082015250565b600061593a601383614068565b915061594582615904565b602082019050919050565b600060208201905081810360008301526159698161592d565b9050919050565b7f536869706d656e7420646f6573206e6f74206578697374210000000000000000600082015250565b60006159a6601883614068565b91506159b182615970565b602082019050919050565b600060208201905081810360008301526159d581615999565b905091905056fea2646970667358221220421f6c992c67488828b739ef21d0abb729e6371f189022cb3c27cb19ebf99c1664736f6c63430008180033",
  "linkReferences": {},
  "deployedLinkReferences": {}
}